:020000040800F2
:1000000000080020F12F000871300008713000084E
:1000100000000000000000000000000000000000E0
:100020000000000000000000000000007130000827
:10003000000000000000000071300008812D000861
:1000400071300008000000007130000871300008B5
:1000500071300008A52D0008CD2E00086D2F000876
:100060000000000071300008713000087130000895
:10007000713000087130000800000000C12F000836
:100080000000000000000000000000000000000070
:10009000D52F0008000000000000000071300008AB
:1000A00000000000713000080000000000000000A7
:1000B00071300008713000080000000000000000EE
:1000C00010B5064C2378002B07D1054B002B02D02E
:1000D000044800E000BF0123237010BD2C01002064
:1000E00000000000BC300008044B10B5002B03D00A
:1000F0000349044800E000BF10BDC04600000000F6
:1001000030010020BC300008002243088B4274D329
:1001100003098B425FD3030A8B4244D3030B8B4208
:1001200028D3030C8B420DD3FF22090212BA030C11
:100130008B4202D31212090265D0030B8B4219D3F2
:1001400000E0090AC30B8B4201D3CB03C01A524112
:10015000830B8B4201D38B03C01A5241430B8B425A
:1001600001D34B03C01A5241030B8B4201D30B0343
:10017000C01A5241C30A8B4201D3CB02C01A52416A
:10018000830A8B4201D38B02C01A5241430A8B422D
:1001900001D34B02C01A5241030A8B4201D30B0216
:1001A000C01A5241CDD2C3098B4201D3CB01C01A30
:1001B000524183098B4201D38B01C01A524143093A
:1001C0008B4201D34B01C01A524103098B4201D328
:1001D0000B01C01A5241C3088B4201D3CB00C01A95
:1001E000524183088B4201D38B00C01A524143080D
:1001F0008B4201D34B00C01A5241411A00D2014632
:10020000524110467047FFE701B5002000F006F8A4
:1002100002BDC0460029F7D076E770477047C04658
:100220008446100062468C461900634600E0C046D2
:100230001FB500F06DFC002801D40021C8421FBD8D
:1002400010B500F0ADFB4042013010BD10B500F01C
:100250005FFC002801DB002010BD012010BDC0465E
:1002600010B500F055FC002801DD002010BD012074
:1002700010BDC04610B500F0D7FB002801DC0020FF
:1002800010BD012010BDC04610B500F0CDFB002808
:1002900001DA002010BD012010BDC04670B500225B
:1002A0000C4B04000D00FFF7EFFF002804D12000E5
:1002B000290001F003FB70BD064B0022200029003D
:1002C00000F060FF01F0FAFA80231B069C466044B0
:1002D000F1E7C0460000E041F0B557464E464546BE
:1002E000DE46E0B583B0009001910C034F00CE0FC5
:1002F000610A009C1D03640F0C4300990092019356
:10030000C80059004B0D9946009A019B6D0AD90F00
:10031000530F2B439A46009B7F0DDA0094464A46C2
:10032000B046BA1A8E4200D1B0E0002A00DC78E074
:100330004946002900D1E9E0C9498F4200D195E141
:100340000125382A16DC8021534609040B439A46BE
:100350001F2A00DDE7E1202155468B1A61469D40AA
:10036000D1400D43614699404B1E99415346D340BD
:100370000D43E41A451BA84280414042241A23023F
:1003800000D40FE16402640A002C00D139E120009E
:1003900001F022FB0300083B20212800CA1AD040AC
:1003A0009C4002009D4022439F4200DD73E1D81B28
:1003B0000130091A2C008D40C4406B1E9D41130072
:1003C000C2408B402543002714001D436B0709D012
:1003D0000F232B40042B05D02B1DAB42AD416D42AA
:1003E00064191D00230200D42DE19D4A0137974274
:1003F00000D1D3E046469B49ED0821404A072A43F5
:100400007C054D022D0B640D24052C43F607344367
:100410001000210003B0F0BCBB46B246A946A0467E
:10042000F0BD002A00D184E04A46D21B002F00D044
:100430006DE12500054300D127E1561E012A00D1B8
:100440003BE2874DAA4200D16AE20125382E12DC38
:1004500032001F2A00DDF8E120262500B61A070029
:100460005346B040D440B540D740461EB0411B1B58
:100470009A463D4305436246551BAC45924153465F
:1004800052420E004F4688469C1A78E7002A00DC4C
:100490008EE04946002975D161465346194300D183
:1004A000F6E0511E012A00D191E16D4DAA4200D122
:1004B000DCE00125382914DC0A001F2A00DDA2E156
:1004C00020215346891A8B401D006346D3401D43AB
:1004D00063468B4019004B1E99415346D3400D4350
:1004E000E4182D188542804140422418230259D532
:1004F0005B4B01379F4251D001215A4B6A081C4087
:1005000029400A43E507154364085FE761465346FF
:10051000194300D1BCE0511E012A00D164E1504DC5
:10052000AA4200D16AE10125382900DD22E70A004C
:100530000EE74D4A7D1C154200D0D0E025006246F2
:10054000534605431A43002F00D037E1002D00D158
:10055000A8E1002A00D16AE16346C51A5346E21AAF
:10056000A8429B415B42D31A1A0200D403E26346BD
:100570001D1AAC459241534652421C1B0E00884640
:10058000A41A23E736498F4270D00125382AA8DC07
:100590008021534609040B439A468EE73C00002510
:1005A000002231E707232B40002B00D010E793E017
:1005B000002A74D04A46D21B002F00D1C7E0284938
:1005C000894500D185E10125382A12DC8021090402
:1005D0000C431F2A00DDABE120212500891A07000A
:1005E00088408D40D740411E8841D4403D4305435B
:1005F000A2446544654592415242524414004F461C
:1006000074E7280001F0E8F9030018331F2B00DC21
:10061000C2E62A00083882409F4200DDA9E0DB1BC9
:10062000581C1F2800DCACE115001F3BDD402028D2
:1006300005D040231B1A9A40531E9A4115430723A5
:1006400000272B40B0E7ED08054B62072A43E4087A
:100650009F420FD02403250B7C05640DD4E6C046D1
:10066000FF070000FFFF7FFFFE070000C0086207D2
:100670000243E4081300234300D186E180252D03C3
:1006800025432D03C34C2D0BBEE6604654460E0099
:100690001700C508D8E7C04CFF1A144096E6BF4AB9
:1006A000791C11426BD122000243002F00D0DBE005
:1006B000002A00D12DE1624653461A4300D1B6E02C
:1006C0006346C518854280415444404224182302A1
:1006D00002D50F00B04B1C403A002800D8E7624614
:1006E000851AA8429241534652429146E31A1A0093
:1006F0004B46D21A130091461A0254D44A464C462D
:100700002A4300D040E60026002400257CE6A14DC7
:10071000A94500D190E00125382A00DDABE680250F
:100720002D042C4395E6110055462039CD40A946AD
:10073000202A06D0402153468A1A934062461A4323
:10074000944665466B1E9D414B461D4312E62100B3
:10075000014300D1C4E0511E012A00D1FBE08D4DC0
:10076000AA4200D1B5E00125382900DD41E70A00A1
:100770002FE7894CFF1A14406207E4086AE7854AAC
:10078000914200D1E3E06346C218824280412300D7
:10079000404253441B18DD075C08072352081543E9
:1007A0000F002B4000E763461D1AAC4592415346AB
:1007B00052421C1B0E008846A41AE5E5002D00D00D
:1007C00091E0002A38D180240026240356E76346AE
:1007D000C518854280415444404224180127230211
:1007E00000D4DFE6022787E66346C51AA8428041A7
:1007F00053464042E41A0127241AC0E56207C008A4
:100800000243E40836E7110053462039CB409946AD
:10081000202A06D0402153468A1A934062461A4342
:10082000944665466B1E9D414B461D4359E6620743
:10083000C0080243E4080DE753465A076346D80848
:1008400053460E000243DC0814E715002600203D45
:10085000EE40202A03D04025AA1A94402043421E8D
:1008600090410500354306E6002A7CD06246534697
:10087000C0081A4300D1FAE6620710438022E40858
:100880001203144208D0D908114205D16346D80892
:1008900053460C005B071843420FC000C0085207C4
:1008A0000243E7E6002A00D12DE76346D808534605
:1008B0005A070E000243DC08CCE663461D1AAC451D
:1008C0009241534652421C1B0E008846A41A01371F
:1008D00055E56346D90853465A070A43DC08C9E67A
:1008E00060465446D4E6C008002A00D1BFE662073D
:1008F00010438022E40812031442CDD0DD081542D3
:10090000CAD16346D80853465B070E002C00184333
:10091000C2E76346D90853465A070A43DC0899E6FA
:100920006346D80853465A070E000243DC08A1E686
:10093000110027002039CF40202A03D040218A1AF5
:1009400094402043421E904105003D4351E60C0077
:100950000025002258E560446045924154445242CB
:100960000500A4183AE753465A076346D908534688
:100970000A43DC087EE61A001C002A4300D0ABE6DE
:10098000C1E620210025091A19E500220025014CA5
:100990003AE5C046FF070000FFFF7FFFFE070000AB
:1009A000F0B55746DE464E464546E0B50D0004001C
:1009B000E80F83460903D80F090B824619488C4675
:1009C0001F0369005E00490D3F0B760D814218D070
:1009D00086420FD00120B1420DD1BC450BD19442CB
:1009E00009D1D3451CD0002905D160462043431EC0
:1009F000984100E00120F0BCBB46B246A946A046A3
:100A0000F0BD01208E42F6D1614639430F001743F5
:100A10002743F0D15B465246981A431E9841EAE7B5
:100A20000020E8E7FF070000F0B557464E46454670
:100A3000DE46E0B50D000F03390B83B0040080469D
:100A400001915800E90F314F400D8C466E0019039B
:100A500082469146760D090BD80FBE421FD0BA458B
:100A60000FD0002E2FD15546019E3443002D27D1A3
:100A70000A433AD0002C45D100281AD10120404227
:100A800017E011433BD1002E02D1019F2743F3D041
:100A9000844509D16346002BF0D0604609E0019FF0
:100AA00027432CD1B24524D063460220013B184095
:100AB000013803B0F0BCBB46B246A946A046F0BD23
:100AC000002CD9D0E4E75446002CEDD08445EBD17E
:100AD0005645E9DCDEDB019B8B42E5D8DAD1C8451F
:100AE000E2D80020C845E4D2D4E70020002CE0D0B2
:100AF000DAE7114303D18445D6D10020D9E702209B
:100B00004042D6E78445E6D0CEE7C046FF07000066
:100B1000F0B557464E464546DE46E0B50D000F039C
:100B200004008046E80F390B844683B05800304FEC
:100B3000400D01911E03690082469146490D360B16
:100B4000D80FB94220D0BA450FD000292BD1019936
:100B50000C435146002937D1324338D0002C44D1C0
:100B6000002819D10120404216E0164313D1002974
:100B700002D1019F2743F3D0844520D06346022051
:100B8000013B1840013807E0019F274303D18A4504
:100B9000F4D116431FD0022003B0F0BCBB46B246CE
:100BA000A946A046F0BD5446002CE7D08445E5D1C7
:100BB0005145E3DC03DB019BB342DFD80FD0634632
:100BC000002BCFD06046E7E7002CC9D0D4E7002047
:100BD000002CE1D0D2E78445D0D10020DCE7C84525
:100BE000CCD80020C845D7D2E9E78445E3D0C5E793
:100BF000FF070000F0B55746DE464E464546E0B5D5
:100C00001F000B031B0B16009A46CA0F4B00040073
:100C1000934687B05B0D00D1D5E0BB4A934200D12B
:100C2000F8E05146420FC9000A43802109041143EC
:100C3000C2009146B54A8A469D1800239846029301
:100C40003C037B00FA0F3000240B5B0D009200D1B7
:100C500096E0AD4A934231D0720FE40022438024E3
:100C600024041443A94AF000944663445B195A1CB7
:100C70000192424600260A2A42DC5A4600994A401E
:100C800093464246022A32DC013A012A00D949E160
:100C9000022E00D1CAE0012E3DD100230024002203
:100CA00010005A461B052343D2071343190007B00F
:100CB000F0BCBB46B246A946A046F0BD924B2643C7
:100CC000EB18002E00D1BBE00322414611435A46E7
:100CD000884600994A40802109018C4629006144D8
:100CE000019141460A2900DD33E29346032642463C
:100CF00001279740A6213A00C9000A400F4231D08F
:100D0000029E022E00D135E2032E00D1D2E15446DC
:100D10004846012EC1D0019A7D4B94466344002B76
:100D200000DCC0E0420709D00F220240042A05D0AF
:100D3000021D82428041404224181000E20106D583
:100D4000744B019A1C4080239446DB006344724A32
:100D500093426BDC6207C00864025B050243240B0C
:100D60005B0D9DE7902189000F4263D188223A42B2
:100D700000D1D7E0009BA2469B4681460296BFE782
:100D80002300334300D17FE0002C00D1ADE12000EF
:100D900000F022FE020003000B3A1D201900821A07
:100DA00030000839D0408C400443300088405B4A12
:100DB000EB1A944663445A1C0192424600260A2AC2
:100DC00000DC5AE79CE753460343994654D0534608
:100DD000002B00D177E1504600F0FEFD0B235B4273
:100DE0009C460200844411005046083988401D2367
:100DF000804660461B1A2000D8400300404603434B
:100E00009A4623008B4099460023444D9846AD1ADC
:100E1000029315E752460243914626D100221D0057
:100E20000223924608329046029309E700240022EA
:100E3000354B35E7002380249B462403324B2FE7B4
:100E40000222414611438022120194462A00624444
:100E5000884601920A2900DD52E75A46002000998F
:100E600004004A40934602260BE70C221D00032390
:100E7000814690460293E3E600239A46043398465F
:100E8000033B00250293DBE6424601331A432B0065
:100E900090465A1C019242460024002001260A2A4C
:100EA00000DCEAE62CE70122D21A382A00DDF4E65B
:100EB0001F2A00DC2AE11F214942CB1A2100D94018
:100EC0000B00202A05D0164A019D94466544AC408B
:100ED0002043421E9041184307231900002401407B
:100EE00003420CD00F230340042B00D140E1031D2B
:100EF0008342A4411800644261076402240BC208C3
:100F000000230A43CCE6C046FF07000001FCFFFFB8
:100F1000FF030000FFFFFFFEFE0700000DFCFFFFC8
:100F20003E04000049464A460904090C0D00160C0F
:100F3000020C0004000C4543AC4605007543A8466E
:100F400015000F007543009202952A00009D6F4323
:100F500065462D0CA94647444F44B84505D91500B0
:100F6000802252029046454402953D0C0395654609
:100F70002D043F042D0CAC463D0065440495250C22
:100F80002404240CAC4625007543A84665460F0092
:100F90006943414489466743390C49446E43884557
:100FA00003D980225202904646440D0CA8463500D3
:100FB00045440595039D3F04A8463F0C0904C91903
:100FC00088444546039555462E04360C2F0C3500B3
:100FD0004543784381463800A8462D0CAA46009A1E
:100FE000504372434A445244914503D980256D02CF
:100FF000A9464844150CA94645462D042D0CA84683
:1010000065467D43120448449044A9463200654633
:1010100062436E437C43170C3619BF19BC4203D997
:1010200080246402A446E144029C039EA446059DDC
:1010300066448E428941AC4612043C04120CA2184C
:101040006244494254184644A4464645A441824657
:101050006442A046AA4292418C458941E244D04470
:10106000494252420A43A045A44182458941644213
:1010700049420C4341463F0CD2191219CC0D049938
:1010800070020843411E884141464A44F60D52020F
:101090003043490214430843D20135D501224308A5
:1010A00002401343E0071843640834E6009BA2465D
:1010B0009B4681468024534624031C4324034A460E
:1010C0002E4B240BECE500F087FC15239C46844452
:1010D0000200634620321C2B00DC84E60023994684
:1010E0002300083883409A468EE600F075FC020023
:1010F0000300153220331C2A00DC4EE602003400C7
:10110000083A0020944052E6019304E61C4B21006B
:101110009C460300019DD3406544A9401943030048
:10112000AB40581E834119430800D4404B0709D0F7
:101130000F230B40042B05D00B1D8B4280414042F6
:1011400024181800230200D4D6E60123002400222C
:10115000A6E50F29AAD1802352461B031A42A9D023
:101160001C42A7D11C43009B02009B46034B97E502
:101170000024C1E60024014B220091E5FF07000096
:101180001E040000F0B54E464546DE465746E0B523
:1011900085B0009001910C034F00CE0F610A009CB6
:1011A000B046640F0C4300997F0DC80011001A006F
:1011B0001B039C460091019251004B0D9946019BE7
:1011C000009DD90F63466A0F5B0A1343EA009446F9
:1011D0009346C14A03900293914500D1CDE0012589
:1011E00069404D467D1BAA468E4200D180E0002D0D
:1011F00000DC35E34946002900D1DFE0974200D109
:1012000094E152460125382A19DC8022029B1204FF
:101210001343029352461F2A00DDE3E15346202286
:101220006146029DD21A9540D9400D4361469140D6
:101230000A00511E8A411543029ADA40A41A451B3E
:10124000A84280414042241A230200D43DE16402B6
:10125000640A002C00D147E1200000F0BDFB030030
:10126000083B20212800CA1AD0409C4002009D4023
:1012700022439F4200DD77E1D81B0130091A2C0080
:101280008D40C4406B1E9D411300C2408B402543DE
:10129000002714001D436B0709D00F232B40042B9C
:1012A00005D02B1DAB42AD416D4264191D002302D8
:1012B00000D440E1884A0137974200D101E101267C
:1012C00043468649ED0821404A072A437C054D02E2
:1012D0002D0B640D1E4024052C43F60734431000EB
:1012E000210005B0F0BCBB46B246A946A046F0BD01
:1012F000002D00DCD0E24946002900D0D4E0614650
:10130000029B194300D12BE1691E012D00D1D9E1C7
:10131000954200D10AE10125382917DC8A46534657
:101320001F2B00DDE7E12022D21A029B6146934089
:101330001D005346D940634693401A000D43511E89
:101340008A4153461543029ADA40A4182D18854263
:10135000804140422418230200D4B6E05E4B01379E
:101360009F4200D1ADE001215C4B6A081C4029403E
:101370000A43E507154364088DE7594A029B9246E4
:101380006246BA441A432CD08E422ED05246002ACE
:1013900060D0002F00D1DBE063460E00029CD8082D
:1013A00062070243E4081300234300D154E280257E
:1013B0002D0325432D03484C2D0B8CE76146029BE2
:1013C000194300D1CCE029000139012D00D188E179
:1013D000954200D1AAE00125382900DD2FE78A4691
:1013E00018E7012251408E42D0D15346002B00D144
:1013F000BEE0002F00D038E1CA462200024300D1EF
:10140000E2E15346591E012B00D10DE2324A9245CA
:1014100000D1D2E10127382913DC1F2900DDEEE1DC
:101420002022029B521A250007009A46CC40904089
:101430009540CF40A244421E904153462F4307435C
:1014400002933D00654465459241029B52424F46DE
:10145000D41880E7234A7D1C154200D0AAE06246DA
:101460002500029B05431A43002F00D0F5E0002D14
:1014700000D16BE1002A00D152E16346C51A029BFC
:10148000E21AA8429B415B42D31A1A0200D4D5E16A
:1014900063461D1AAC4592410126029B52421C1B19
:1014A0008846A41A0E40F6E697423FD052460125E0
:1014B000382A00DD4AE78022029B1204134302937C
:1014C0002DE73C000025002205E707232B40002BD9
:1014D00000D0E2E66BE0C046FF070000FFFF7FFFA1
:1014E00001F8FFFFFE070000280000F075FA030076
:1014F00018331F2B00DCB4E62A00083882409F42D4
:1015000000DDB9E0DB1B581C1F2800DCA0E1150042
:101510001F3BDD40202805D040231B1A9A40531E54
:101520009A411543072300272B40D0E7C0086207E4
:101530000243E40837E7EA0863071A43D34BE40899
:101540009F4200D12FE72403250B7C05640DC2E6E2
:10155000CA462200024358D163460E00029C039300
:10156000039B5746DA08E7E7C94CFF1A144092E696
:10157000C84D7A1C2A4200D084E022000243002F8A
:1015800000D0EFE0002A00D1E5E0624602990A436C
:1015900000D1C5E06346C5188C468542804164444D
:1015A00040422418230202D5B94B01371C40BA46E9
:1015B0000395D5E76246851AA84292415242914668
:1015C000029BE31A1A004B46D21A130091461A02E4
:1015D0006CD44A464C462A4300D03AE60026002402
:1015E000002578E6029953460D00203AD540202B7D
:1015F00006D04022D21A0B00934062461A4393460B
:101600005B465A1E93411D4319E653465A1E012B51
:1016100000D1C6E09D4EB24500D1BDE688460E0021
:101620000125382A10DC1F2A7FDC20212500891A99
:10163000070088408D40D740D440411E8841029B1E
:101640003D431B1B054302936246551BAC4592412B
:10165000029B52424F469C1AF6E5002D00D0B7E09F
:10166000002A00D1F0E001260E4063460298D90816
:1016700042070A43C40896E6854CFF1A14406207E5
:10168000E40860E781498A4200D1C9E06346C11895
:1016900081428041029B4042E3181B18DD075C0831
:1016A000072349080D4317002B4010E763461D1A16
:1016B000AC4592410126029B52421C1B8846A41A4B
:1016C0000E40C6E56346C518029B854280419C4694
:1016D0004042644424180127230200D4F5E602277F
:1016E00041E66346C51AA8428041029B4042E41A83
:1016F0000127241AA8E5029D52462B00203AD34028
:1017000019005346202B06D04022D21A2B009340BA
:1017100062461A4393465D466B1E9D410D4315E696
:101720006207C0080243E4080DE7110027002039D2
:10173000CF40202A05D040218A1A94402500054335
:101740000395039D6A1E95413D437DE7002A00D124
:1017500044E701260E406346D908029B5A070A4314
:10176000DC08F0E6002A28D06246029FC0083A430F
:1017700000D1DCE6620710438022E4081203144221
:1017800009D0FD08154206D1634601262C00D80871
:101790007B0718430E40420FC000C00852070243A7
:1017A00001E663461D1AAC459241029B52421C1B46
:1017B0000E0088460127A41A46E56346D908029B15
:1017C0005A070A43DC08EEE56346029C0393C7E62A
:1017D000C008002A00D1AAE6620710438022E4086C
:1017E00012031442D7D0029FFD081542D3D163469D
:1017F0000126D8087B072C0018430E40CBE70A00CF
:101800002700203AD740202905D04022521A944080
:10181000250005430395039D6A1E95412F4310E65D
:1018200014000025002256E5029B6044994660455D
:1018300092414C4452420500A4184CE71A001C0087
:101840002A4300D0B3E6C9E6802400262403AEE58F
:1018500020210025091A17E5002200250B4C3AE546
:10186000002D00D1F6E54B46DA1B9246002F00D141
:101870006FE6382A05DC80263604344388460E009D
:10188000D1E688460E000125DEE6C046FF070000CF
:10189000FFFF7FFFFE070000002D00D168E64B46EA
:1018A000D91B002F01D18A46A7E50127382900DD81
:1018B000C7E5802212041443AFE5C0460B000200C6
:1018C00070B5164D0C0382B04900002000920193C0
:1018D000240B490DDE0FA94204DD1148814203DDCE
:1018E000104BF01802B070BD8020400320430E4C16
:1018F000641A1F2C08DD0D4B5B1AD84003005842B8
:10190000002EEFD11800EDE7094B009A9C4603002A
:1019100061448B40E2401343F1E7C046FE03000000
:101920001D040000FFFFFF7F3304000013040000CC
:10193000EDFBFFFF70B5002816D0C317C5185D403A
:10194000C40F280000F048F8104B1B1A5B055B0D14
:101950000A2814DC02002E00153296400B22121ABF
:10196000D5402D032D0B03E0002400230025002685
:101970001B052B43E40723433000190070BD0B38CF
:1019800085402D0300262D0BF2E7C0461E04000003
:1019900010B5041E10D000F01FF80E4B1B1A5B058B
:1019A0005B0D0A280FDC0B222100121AD1401530E2
:1019B0000A038440120B01E0002300221B0513439D
:1019C0002000190010BD22000B38824012030024B1
:1019D000120BF3E71E0400001C2101231B04984294
:1019E00001D3000C10391B0A984201D3000A0839B0
:1019F0001B09984201D30009043902A2105C401867
:101A00007047C0460403020201010101000000000A
:101A1000000000002021C020124B00061A688A43F3
:101A20001A601A6820310A431A601A683E390A435C
:101A30001A601A6801390A431A600B4B1A688A4304
:101A40001A600A4A0A495A600A6A1202120A0243D2
:101A50000A6200229A6007321A600B6A1B021B0A94
:101A60000B6270470020024010E000E0FF7C0000A5
:101A700000ED00E03549364B0A681A4080231B010F
:101A800013430B600821334B1A688A431A601A68A3
:101A900031490A401A600C22D9680A40042A13D03E
:101AA00001211A680A431A6003311A681142FCD0F6
:101AB0000321DA688A4302390A43DA600C22254995
:101AC000CB681340042BFBD1224B2449DA680A402F
:101AD000DA60DA6822490A40DA60D968214A11409E
:101AE0008022D2030A43DA60D9681F4A114080225B
:101AF000D2020A43DA60DA681C490A40DA608022BE
:101B0000D96812020A43DA60DA6819490A40DA60D1
:101B1000DA6818490A40F021DA60DA688A43DA6044
:101B20008022196852040A4380211A6089041A68C5
:101B30000A42FCD00321DA680A43DA600C22054924
:101B4000CB6813400C2BFBD17047C046007000409F
:101B5000FFE7FFFF00100240FFFEFFFFFFFFFF8FC8
:101B6000FFFFFFF0FFFF3FFFFFFFC3FFFFFFFEFF91
:101B7000FFC7FFFFFFF8FFFF8023204A5B05916B43
:101B80001F480B439363802301685B001943016086
:101B9000116D0B43802113658900136D0B42FCD03E
:101BA000116D184B194080235B020B431365802392
:101BB000116DDB020B431365CA228021124B5A625E
:101BC000773A5A62DA680A43DA604039DA681142D1
:101BD000FCD019680D4A11400D4A0A431A60596831
:101BE0000C4A11400C4A0A4380215A60DA688A4341
:101BF000DA60FE225A629A3A5A6270470010024036
:101C000000700040FFFFFCFF002800408080C0FF04
:101C100000361700C00000FF014424000721F0B582
:101C200057464E464546DE46B34AE0B5D36A0C25D4
:101C30000B43D362A023DB051968B04A042011408E
:101C40008022D2010A4380211A605A6802248A4302
:101C50005A60C022996812020A439A60A84AA94FA2
:101C60001168A943014311605168A1435160916813
:101C70003E34294391601E68A349A1460E4080214D
:101C80004901314319605968A1435960C0219E68D8
:101C90008901314399601E689C4980340E4080213F
:101CA000C9003143202619605968A446B1435960E0
:101CB000C0219E680901314399601E6894490E4015
:101CC0008021C903314319605968924E31405960EF
:101CD000C0219E6809043143996080211E68C902B1
:101CE0003E403143C026196059688B4F3603394056
:101CF0005960996831430326996001211768B743F9
:101D00000F43176057688F43576097683743976052
:101D10001768A7434C46274317605768383CA046CE
:101D2000A743644657609768274397601F68A74397
:101D30004C46274344461F605F68A74364465F6084
:101D40009F6827439F601F68744CA24627408024E9
:101D5000640027431F605F68A446F03CA7435F60B0
:101D60009D68C0272C00BF003C439C601D68A846AE
:101D700044466B4D2C4080256D042C431C605D68EF
:101D8000A8464446674D2C405C609D68AB46C02524
:101D90005C46AD042C439C60544615682C40A0461C
:101DA000644645462C43146010245568A54355608D
:101DB0009468274397601C685B4F3C4080277F03F3
:101DC00027431F605F68594C27405F60C0279C68AD
:101DD000BF0327439F601C68554F3C4080277F020C
:101DE00027431F605F68534C27405F60C0279C6893
:101DF000BF0227439F60504F3C68A400A408A4463C
:101E00008024E405A046644645462C433C607C683B
:101E1000A4464A4CA046644645462C407C60BC68BB
:101E2000A046C0242406A446444665462C43BC6014
:101E30000F241F680C25B7431F605F688F435F60E6
:101E40009F6837439F603E4FBE68A643BE603D4ECD
:101E500034680C433460F46821430224F16019684B
:101E6000A94319605968A143596099682943996049
:101E7000B968E435A943B960316821433160F1683C
:101E80002143F16019682E34A143196059688143D8
:101E90005960996821439960BB682B490B40BB602E
:101EA0003368802103433360F3680343F3601368AE
:101EB000144803401360536817480340C020536020
:101EC00093680003034393603B69AB433B6180230A
:101ED00032689B001A433260F2681343F3604A464B
:101EE00020261A4B1E601A601960F0BCBB46B24631
:101EF000A946A046F0BDC04600100240FF3FFFFFCC
:101F000000040050FFFFF3FFFFCFFFFFFFF3FFFFD1
:101F1000FFFF3FFFFFF7FFFFFFFDFFFFFFFCFFFF9E
:101F2000FFFFFFFCFFEFFFFFFFFFCFFFFFFBFFFF08
:101F3000FFFFFCFFFFFEFFFF00080050FF7FFFFFD9
:101F40000000014000040140FFF0FFFF00E100E05D
:101F500010B5022969D020D8002900D18BE0A02338
:101F60008022DB05996912030A4310219A619A695C
:101F70000A439A618022996952050A439A61802333
:101F8000E14A5B0391690B4393612E38C0B231285B
:101F90001FD8DE4B80001B589F4603295BD1A0232E
:101FA0008022DB05996912030A439A6180229969AC
:101FB00052030A439A618022996952050A4310210B
:101FC0009A61D14A2E389369C0B20B43936131288C
:101FD000DFD9A0238022DB05996912040A438021FE
:101FE0009A61C94A89029069014391618021986987
:101FF000C90301439961802198698903014399616B
:1020000080219869090501439961802198698904B3
:1020100001439961802391695B020B4393618023A3
:1020200091691B030B43936110BDA0238022DB0544
:10203000996912030A439A618022996952031143F4
:10204000996180219C69490121439961AE4B99694D
:102050000A439A6199E7A0238022DB05996912035C
:102060000A439A6180229969520311439961802140
:102070009C694905E8E7A023DB0508219A69EFE799
:10208000A0238022DB05996912040A4380219A610A
:102090009D4A890290690143916180219869C90331
:1020A00001439961802198698903014399618021E5
:1020B0009869090501439961802198698904014360
:1020C0009961802391695B020B43082193619369B5
:1020D0000B439361A8E7A02380210220DB059A69C6
:1020E0000A439A61884A91690143916199693E3036
:1020F0000143996199692038014399618021986968
:1021000009010143996180219869890080E7A02332
:102110008022DB059969120402200A439A617A4AF7
:1021200091690143916199693E3062E7A023802162
:102130000220DB059A690A439A61734A9169014357
:10214000916180219869C9030143202099619969AF
:1021500001439961802198690901014399618021B6
:1021600098698904014399619369012155E7A02386
:1021700080210220DB059A690A439A61624A9169CB
:102180000143916199693E30014399619969203811
:1021900001439961802198690905DEE7A023802227
:1021A0000220DB05996912040A439A61564A916933
:1021B0000143916199693E30014399618021986999
:1021C0008903014399618021986909050143996157
:1021D00080219869890001439961936901211CE775
:1021E000A0238021DB059A690A4380219A61464A2F
:1021F0008902906901434020916199690143996185
:1022000099692038DDE7A0238021DB059A690A431C
:1022100080219A613C4A8902906901434020916182
:102220009969014399619969203801439961802135
:1022300098690901CAE7A023DB0580219A696BE749
:10224000A02380210220DB059A690A439A612E4A65
:1022500091690143916199693E30E2E7A0238021B1
:102260000220DB059A690A439A61274A9169014372
:10227000916199693E30C1E7A02380210220DB05EE
:102280009A690A439A61204A9169014391618021C8
:102290009869C903014399618021986989030143C1
:1022A00099618021986909010143996180219869A8
:1022B000890004E7A02380210220DB059A690A43F4
:1022C0009A61114A91690143916180219869C9031A
:1022D00001439961802198698903A6E7A0238022A0
:1022E000DB05996912040A4380219A61064A890232
:1022F00090690143916180219869C9030143996103
:10230000202099697AE6C04600040050D4300008C5
:10231000F0B5CE464746A72380B5724E85B0F35C34
:10232000002B00D1B3E06B23E1243C27F55C0A339A
:10233000F35C240165437B43ED186B4BADB21A6827
:10234000120AD2B290461A6818684346120C944694
:102350001A0907231A4091009946521843460F2143
:102360000B40984663465200424454439A06920FEB
:102370009300984663460B409C464B4642445200AD
:102380006244D2B27A43C0B2A218040923409C002E
:102390001C198923640001406418E4B2A418F25C9B
:1023A000A4B213019B1A9B002A1B93426ADB802371
:1023B0004E4A1B0291690B43012193614C4B8846A5
:1023C0001A680A431A60DF6A3800FFF7E1FA0290E0
:1023D000039129002000FDF797FE434680B2181AAA
:1023E000FFF7A8FA9D23F65C04000D00300064217D
:1023F000FDF78AFEC0B2FFF79DFA02000B00FEF760
:10240000C1FE00900191632E5DD9C72E66D92200CE
:102410002B0020002900FEF7EDFB06000F000098BE
:10242000019900220023FDF725FF002815D0002286
:10243000304B20002900FEF7A5FE009A019BFEF715
:10244000D9FB00222B4BFDF747FF02000B003000A9
:102450003900FEF7CFFB06000F00029803993B00FE
:102460003200FEF7C7FB04000D00FDF717FF002246
:102470000700002320002900FDF7E8FE002813D103
:102480001B4B5F6305B0C0BCB946B046F0BD8022AF
:10249000164912068869024301208A61144A1168AC
:1024A000814311605363EDE73800FFF771FA0B00C9
:1024B000020029002000FDF7C3FE434258410C4BA7
:1024C0003F1A5F63DEE70022009801990023FDF7C1
:1024D000D1FE0028D4D00026064FA8E726002F0002
:1024E0009DE7C04600000020002800400008005082
:1024F000000801400000F03FF8B580234546DE4665
:102500004E465746294A1B029169E0B50B43936139
:102510000122274D274C2B6813432B60FA239B0085
:10252000994600239B46244B9846244B244E9A46BA
:10253000244F1EE020682449FDF76CFE494501D276
:102540005B466B6320682049FDF764FE414501D876
:1025500053466B6320681C49FDF75CFEB94201D805
:102560001A4B6B6320681849FDF754FE184B9942CB
:1025700018D920681449FDF74DFEB142DAD1002286
:102580000B4B0A495A6380228869120602438A610A
:1025900001211A688A431A60F0BCBB46B246A946BC
:1025A000A046F8BD024B0B4A5A63BEE70008005034
:1025B000000801405C010020B70B0000B80B0000D0
:1025C0000F2700006F170000102700007017000091
:1025D0002723000028230000F0B5CA23D6464F4623
:1025E00046468022444CC0B56362773B6362E36831
:1025F0001343E360403AE3681A42FCD03F4E0A219D
:10260000F37E27689A462523F35C504699462F238C
:10261000F35C9846FDF778FD0A21C5B25046FDF7F8
:10262000F9FDC9B209042D0540460D430A21FDF705
:10263000F1FDC9B248460D430A21FDF765FDC0B260
:10264000000305430A214846FDF7E4FDC9B209022B
:1026500040460D430A21FDF757FD294BC0B21F40EC
:102660004D23000105433D432560F35C0A219A4652
:102670004323F35C676899463923F35C98465723F4
:102680004046F55CFDF7C6FD6D03C9B250460D43EB
:102690000A21FDF739FDC0B2000505430A21504665
:1026A000FDF7B8FDC9B2090448460D430A21FDF7FC
:1026B0002BFDC0B2000305430A214846FDF7AAFDE1
:1026C000C9B2090240460D430A21FDF71DFD8022D3
:1026D0000C4BC0B200011F4005433D436560E368F9
:1026E0009343E360FE2363629A3B6362E0BCBA46B5
:1026F000B146A846F0BDC0460028004000000020BA
:102700008080C0FFC00000FFF0B501264746CE46DE
:102710007642904680B5002337003200B446B14679
:102720001A4C04E00133DBB20A341E2B16D001250B
:1027300065578542F6D15EB27D1C00D13700002579
:1027400065578D421BD0551C1BD065460135E9D11C
:102750000133DBB2B4460A341E2BE8D163460133A1
:1027600000D1BC464B46013300D1B146434601334C
:1027700009D06346D8B2C0BCB946B046F0BD3200FD
:10278000D0E7B146CEE74B46D8B2F4E700000020D0
:10279000F0B5C64604000D0000B5002829D08026FB
:1027A000F605B16A1648FDF7AFFC2100FDF7ACFC59
:1027B000F062F36A5B08736380240027E4056762B4
:1027C000A16AE36A0E489846FDF79EFC4146FDF774
:1027D0009BFCFA2168438900FDF796FC0122094B16
:1027E000094E1F80236830801343236080BCB846A5
:1027F000F0BD8023FA22DB059200DA625863DBE742
:102800000048E801480100204A010020202010B5BE
:10281000184AFF30184B125C184819680068091AEA
:10282000914204D9012016490C6820421DD0154858
:1028300019680068091A8A4204D2022010490C68FB
:1028400020420ED010491B6809685B1A9A4207D2D1
:1028500004220B4B19680A4202D119680A431A6014
:1028600010BD0C6820430860ECE70C68204308604A
:10287000DDE7C046000000205C0100207001002060
:10288000000401406C01002074010020F0B5D64620
:102890004F4646460325C0B50F26734FFFF7B6FFD8
:1028A0003A680A21120CD2B213092B40980018186A
:1028B000324040008018FDF727FC3030C3B2984604
:1028C00042466A4B0A219A461A703A680724120C4B
:1028D000D2B213092B4098001818324040008018DB
:1028E000FDF798FC5346303159703A680A21120AB4
:1028F000D2B21309234098001818324040008018C3
:10290000FDF702FC3030C3B2994653464A469A70EE
:102910003B680A211B0ADBB21A091440A0002018E8
:1029200033404000C018FDF775FC53463031D97074
:10293000FFF7EEFCF7213A684D4B120CD2B25C5C0B
:1029400013092B4099005B185B0032409B18052B44
:1029500046D93B681B0CDBB21A091540AA00AD181A
:102960006D001E40AE19152E3AD8424D2B689B07BC
:1029700050D003232A681340012B58D003232A6820
:102980001340022B5DD02B68DB439B0765D0FA21F7
:102990002868C900FDF73EFCFA23A0229B00D2055F
:1029A000994229D980239169DB040B439361A022CA
:1029B000D20580239169012C28D05B040B439361DD
:1029C0002D4A2E4B10781B7818432D4B1B7818433B
:1029D00043425841C0B2E0BCBA46B146A846F0BD39
:1029E000284B294A1B7812781343284A127813433C
:1029F000BBD1002CE4D1B8E7916918330B43936144
:102A0000A022D20580239169012CD6D15B000B4313
:102A10009361D5E74346302BABD05346002118785D
:102A2000FFF796FA03232A681340012BA6D15346D9
:102A300001215878FFF78CFA03232A681340022BF0
:102A4000A1D14B46302B9ED0534602219878FFF7F8
:102A50007FFA2B68DB439B0799D153460321D87833
:102A6000FFF776FA93E7C0460028004050010020A7
:102A7000000000205C0100206401002063010020B0
:102A80006501002067010020660100206801002028
:102A9000F8B50D0000281BD0013041D0894E8A4C7A
:102AA00031788A005018400023189C469B78002BF0
:102AB00000D087E02156013405E00133DBB20A344F
:102AC0001E2B00D197E00022A2568A42F5D1337026
:102AD0007E4B1B78002D18D07A4E3178002B3DD0DC
:102AE0007B48794C03788A0052185200A218567A13
:102AF0005B19DBB2127A0370B34200D96FE09342E4
:102B000000D3DDE0067039E03B78002B34D16D4B0B
:102B10006D4C187883001B185B000333E018F8BD78
:102B20006A4F3B78002B63D1664E674C31788A0040
:102B3000521801215200A2185156002906DC0AE061
:102B40000133DBB20A341E2B00D18DE00022A256E5
:102B50008A42F5D13370002DD6D05A4E01203278FA
:102B6000594C93009B185B00E156E31818562A0055
:102B7000FFF7CAFD3070CDE7554806782027554C41
:102B80000A2130002770FDF7BFFAC5B2632E0DD8B9
:102B90006770092E26D93035EDB20A213000A570B4
:102BA000FDF738FB30312000E170B8E764213000D8
:102BB000FDF7AAFA303060700A212800FDF72AFBE1
:102BC000CDB2E8E7414F3B78002B0DD101333B708C
:102BD00063463F48DB790370002DCED084E71600B2
:102BE0000270CBE72025D8E7624639480378D371D5
:102BF00000233B70AFE7162938D007DC092912D033
:102C0000102900D064E7FFF777FC61E71D2900D0A9
:102C10005EE7FFF73BFE002800D159E7FFF736FEDD
:102C20000028F6D154E7FFF7D7FC00213120FFF749
:102C30008FF901213120FFF78BF902213120FFF7B5
:102C400087F903213120FFF783F93222224B1A80C2
:102C50001A88002A00D13BE71A88013A92B21A80FA
:102C60001A88002AF8D133E7E13373E70022FA210A
:102C70001A4B1B481A801B4B013249001A70FFF790
:102C800087FD00213120FFF763F901213120FFF793
:102C90005FF902213120FFF75BF903213120FFF7B3
:102CA00057F932220C4B1A801A88002A00D10FE7FC
:102CB0001A88013A92B21A801A88002AF8D107E7D6
:102CC0001E005BE76201002000000020610100207F
:102CD0006001002054010020580100204E01002016
:102CE0000A0200004C01002070B5FEF793FEFEF7CB
:102CF000C1FEFEF793FFFEF73FFF20212020FFF7E4
:102D000027F980231A4C1B06A26900211343A361F3
:102D10000020FFF7BDFE174B174A196880251140A8
:102D20008022D2000A4320211A605A6820268A4352
:102D30005A60C022996812010A439A608022A169F0
:102D400012020A43A261012003240C4AAD03116858
:102D50000C4202D099693143996111680842F6D159
:102D600099692943996111680C42F6D0F2E7C0468F
:102D70000008005000040050FFF3FFFF5C0100203A
:102D8000064A136801331360054B1A88002A03D0E2
:102D90001A88013A92B21A807047C0465C0100203E
:102DA0005801002001223C4B10B559690A4217D046
:102DB00019683A489143196039490C6804603948E8
:102DC0000478002C44D10C68374902700C60D96833
:102DD0009143D96099680A439A6001222E4B5A6147
:102DE00002222D4B59690A4218D019682F48914385
:102DF00019602B490C6804602D480478002C0ED112
:102E00000C682C490C6001210170D9689143D9608C
:102E100099680A439A6002221F4B5A6110BD002430
:102E20000470986890439860D8680243DA600A6832
:102E30002021204BFF311B68D21A1F4B5B5C9B008B
:102E40009A4222D901221D4B1C701D4B1A70E2E7D9
:102E500000240470986890439860D8681043D86044
:102E60002020114B09681B68FF30C91A124B1B5CEC
:102E70009B00994204D9134B1C70134B1A70ACE79A
:102E8000114B1C700F4B1A70A7E701220C4B1C70E2
:102E90000A4B1A70BFE7C0460004014070010020D1
:102EA0005C0100206A0100207C0100206C010020F0
:102EB0006901002078010020000000206601002048
:102EC00063010020670100206401002004221F4BE1
:102ED00010B559690A4218D019681D489143196004
:102EE0001C490C6804601C480478002C0ED10C6846
:102EF0001A490C6001210170D9689143D960996821
:102F00000A439A600422114B5A6110BD00240470D8
:102F1000986890439860D8680243DA600A68202174
:102F20000E4BFF311B68D21A0D4B5B5C9B009A4223
:102F300005D901220B4B1A700B4B1C70E2E70122E2
:102F4000094B1A70074B1C70DCE7C04600040140B7
:102F5000740100205C0100206B0100208001002032
:102F60000000002065010020680100208022114B34
:102F700092005969114214D019680F480140196034
:102F80000E49096911420DD0D9680A43DA609A687E
:102F900002409A608023074A9B00536111680B43EB
:102FA0001360704799680A439A60DA680240DA60F1
:102FB000F0E7C04600040140FFFDFFFF00040050A1
:102FC00080230122DB0519690A4202D01969914365
:102FD000196170470122044B19690A4202D019692C
:102FE000914319617047C046000801407047C046D0
:102FF00013488546FFF7FAFF12480168090E124A86
:10300000914205D1114812490160124812490160EC
:1030100012481349134A002302E0D458C450043321
:10302000C4188C42F9D3104A104C002301E01360FD
:103030000432A242FBD300F01DF8FFF755FEFEE775
:1030400000080020040000001F00000034100240AF
:10305000010000000000014000000000000000200E
:103060002C010020A43100082C0100208401002044
:10307000FEE7000070B500260C4C0D4D641BA4103B
:10308000A64209D1002600F019F80A4C0A4D641B2B
:10309000A410A64205D170BDB300EB589847013685
:1030A000EEE7B300EB5898470136F2E79C31000891
:1030B0009C310008A03100089C310008F8B5C046DA
:1030C000F8BC08BC9E467047F8B5C046F8BC08BCC2
:0430D0009E46704761
:1030D40080200008D21F0008D62000080E21000816
:1030E4002C2100086E2100089C210008E021000822
:1030F4000622000836220008402200085C2200084C
:10310400D21F0008D21F0008D21F0008D21F0008D7
:10311400D21F000878220008D21F0008D21F00081E
:10312400D21F0008D21F0008D21F0008D21F0008B7
:10313400D21F0008D21F0008D21F0008D21F0008A7
:10314400D21F0008D21F0008D21F0008D21F000897
:10315400D21F0008D21F0008B4220008D21F0008A2
:10316400D21F0008D21F0008D21F0008D21F000877
:10317400D21F0008D21F0008D21F0008D21F000867
:10318400D21F0008D21F0008D21F0008D21F000857
:08319400D21F0008DC22000834
:04319C00E90000083E
:0431A000C100000862
:1031A40000FF0050505050000000010000505F30FC
:1031B4005F000000020101505F303000001803017D
:1031C40001505F303100003B040101505F30320098
:1031D400003B050101505F303300001F0601015020
:1031E4005F303400000C070101505F30350000638C
:1031F400080101505F3036000107090100505F30BB
:10320400370000000A0000505F315F0000000B0A25
:1032140001505F31300500170C0A01505F31312D28
:10322400003B0D0000505F325F0000000E0D0150A6
:103234005F32301E00E70F0D01505F3231E000E7CE
:10324400100D00505F3232000000110000505F3357
:103254005F000000121101505F33300001011311AF
:1032640001505F3331050018141101505F333232BD
:10327400003B151101505F33330000071611005055
:103284005F3334000000170000505F345F0000011A
:10329400181701505F3430000003191701505F34D0
:1032A400310000011A0000505F355F0000001B1A56
:1032B40001505F35301E00E71C1A01505F35316440
:0C32C40000E71D0000505F365F000000B6
:0400000508002FF1CF
:00000001FF
