:020000040800F2
:1000000000080020F52E0008752F0008752F000845
:1000100000000000000000000000000000000000E0
:10002000000000000000000000000000752F000824
:100030000000000000000000752F0008AD2B000834
:10004000752F000800000000752F0008752F0008AC
:10005000752F0008D12B00088D2D0008712E000887
:1000600000000000752F0008752F0008752F00088C
:10007000752F0008752F000800000000C52E00082D
:100080000000000000000000000000000000000070
:10009000D92E00080000000000000000752F0008A5
:1000A00000000000752F00080000000000000000A4
:1000B000752F0008752F00080000000000000000E8
:1000C00010B5064C2378002B07D1054B002B02D02E
:1000D000044800E000BF0123237010BD3801002058
:1000E00000000000C02F0008044B10B5002B03D007
:1000F0000349044800E000BF10BDC04600000000F6
:100100003C010020C02F0008002243088B4274D31A
:1001100003098B425FD3030A8B4244D3030B8B4208
:1001200028D3030C8B420DD3FF22090212BA030C11
:100130008B4202D31212090265D0030B8B4219D3F2
:1001400000E0090AC30B8B4201D3CB03C01A524112
:10015000830B8B4201D38B03C01A5241430B8B425A
:1001600001D34B03C01A5241030B8B4201D30B0343
:10017000C01A5241C30A8B4201D3CB02C01A52416A
:10018000830A8B4201D38B02C01A5241430A8B422D
:1001900001D34B02C01A5241030A8B4201D30B0216
:1001A000C01A5241CDD2C3098B4201D3CB01C01A30
:1001B000524183098B4201D38B01C01A524143093A
:1001C0008B4201D34B01C01A524103098B4201D328
:1001D0000B01C01A5241C3088B4201D3CB00C01A95
:1001E000524183088B4201D38B00C01A524143080D
:1001F0008B4201D34B00C01A5241411A00D2014632
:10020000524110467047FFE701B5002000F006F8A4
:1002100002BDC0460029F7D076E770477047C04658
:100220008446100062468C461900634600E0C046D2
:100230001FB500F06DFC002801D40021C8421FBD8D
:1002400010B500F0ADFB4042013010BD10B500F01C
:100250005FFC002801DB002010BD012010BDC0465E
:1002600010B500F055FC002801DD002010BD012074
:1002700010BDC04610B500F0D7FB002801DC0020FF
:1002800010BD012010BDC04610B500F0CDFB002808
:1002900001DA002010BD012010BDC04670B500225B
:1002A0000C4B04000D00FFF7EFFF002804D12000E5
:1002B000290001F003FB70BD064B0022200029003D
:1002C00000F060FF01F0FAFA80231B069C466044B0
:1002D000F1E7C0460000E041F0B557464E464546BE
:1002E000DE46E0B583B0009001910C034F00CE0FC5
:1002F000610A009C1D03640F0C4300990092019356
:10030000C80059004B0D9946009A019B6D0AD90F00
:10031000530F2B439A46009B7F0DDA0094464A46C2
:10032000B046BA1A8E4200D1B0E0002A00DC78E074
:100330004946002900D1E9E0C9498F4200D195E141
:100340000125382A16DC8021534609040B439A46BE
:100350001F2A00DDE7E1202155468B1A61469D40AA
:10036000D1400D43614699404B1E99415346D340BD
:100370000D43E41A451BA84280414042241A23023F
:1003800000D40FE16402640A002C00D139E120009E
:1003900001F022FB0300083B20212800CA1AD040AC
:1003A0009C4002009D4022439F4200DD73E1D81B28
:1003B0000130091A2C008D40C4406B1E9D41130072
:1003C000C2408B402543002714001D436B0709D012
:1003D0000F232B40042B05D02B1DAB42AD416D42AA
:1003E00064191D00230200D42DE19D4A0137974274
:1003F00000D1D3E046469B49ED0821404A072A43F5
:100400007C054D022D0B640D24052C43F607344367
:100410001000210003B0F0BCBB46B246A946A0467E
:10042000F0BD002A00D184E04A46D21B002F00D044
:100430006DE12500054300D127E1561E012A00D1B8
:100440003BE2874DAA4200D16AE20125382E12DC38
:1004500032001F2A00DDF8E120262500B61A070029
:100460005346B040D440B540D740461EB0411B1B58
:100470009A463D4305436246551BAC45924153465F
:1004800052420E004F4688469C1A78E7002A00DC4C
:100490008EE04946002975D161465346194300D183
:1004A000F6E0511E012A00D191E16D4DAA4200D122
:1004B000DCE00125382914DC0A001F2A00DDA2E156
:1004C00020215346891A8B401D006346D3401D43AB
:1004D00063468B4019004B1E99415346D3400D4350
:1004E000E4182D188542804140422418230259D532
:1004F0005B4B01379F4251D001215A4B6A081C4087
:1005000029400A43E507154364085FE761465346FF
:10051000194300D1BCE0511E012A00D164E1504DC5
:10052000AA4200D16AE10125382900DD22E70A004C
:100530000EE74D4A7D1C154200D0D0E025006246F2
:10054000534605431A43002F00D037E1002D00D158
:10055000A8E1002A00D16AE16346C51A5346E21AAF
:10056000A8429B415B42D31A1A0200D403E26346BD
:100570001D1AAC459241534652421C1B0E00884640
:10058000A41A23E736498F4270D00125382AA8DC07
:100590008021534609040B439A468EE73C00002510
:1005A000002231E707232B40002B00D010E793E017
:1005B000002A74D04A46D21B002F00D1C7E0284938
:1005C000894500D185E10125382A12DC8021090402
:1005D0000C431F2A00DDABE120212500891A07000A
:1005E00088408D40D740411E8841D4403D4305435B
:1005F000A2446544654592415242524414004F461C
:1006000074E7280001F0E8F9030018331F2B00DC21
:10061000C2E62A00083882409F4200DDA9E0DB1BC9
:10062000581C1F2800DCACE115001F3BDD402028D2
:1006300005D040231B1A9A40531E9A4115430723A5
:1006400000272B40B0E7ED08054B62072A43E4087A
:100650009F420FD02403250B7C05640DD4E6C046D1
:10066000FF070000FFFF7FFFFE070000C0086207D2
:100670000243E4081300234300D186E180252D03C3
:1006800025432D03C34C2D0BBEE6604654460E0099
:100690001700C508D8E7C04CFF1A144096E6BF4AB9
:1006A000791C11426BD122000243002F00D0DBE005
:1006B000002A00D12DE1624653461A4300D1B6E02C
:1006C0006346C518854280415444404224182302A1
:1006D00002D50F00B04B1C403A002800D8E7624614
:1006E000851AA8429241534652429146E31A1A0093
:1006F0004B46D21A130091461A0254D44A464C462D
:100700002A4300D040E60026002400257CE6A14DC7
:10071000A94500D190E00125382A00DDABE680250F
:100720002D042C4395E6110055462039CD40A946AD
:10073000202A06D0402153468A1A934062461A4323
:10074000944665466B1E9D414B461D4312E62100B3
:10075000014300D1C4E0511E012A00D1FBE08D4DC0
:10076000AA4200D1B5E00125382900DD41E70A00A1
:100770002FE7894CFF1A14406207E4086AE7854AAC
:10078000914200D1E3E06346C218824280412300D7
:10079000404253441B18DD075C08072352081543E9
:1007A0000F002B4000E763461D1AAC4592415346AB
:1007B00052421C1B0E008846A41AE5E5002D00D00D
:1007C00091E0002A38D180240026240356E76346AE
:1007D000C518854280415444404224180127230211
:1007E00000D4DFE6022787E66346C51AA8428041A7
:1007F00053464042E41A0127241AC0E56207C008A4
:100800000243E40836E7110053462039CB409946AD
:10081000202A06D0402153468A1A934062461A4342
:10082000944665466B1E9D414B461D4359E6620743
:10083000C0080243E4080DE753465A076346D80848
:1008400053460E000243DC0814E715002600203D45
:10085000EE40202A03D04025AA1A94402043421E8D
:1008600090410500354306E6002A7CD06246534697
:10087000C0081A4300D1FAE6620710438022E40858
:100880001203144208D0D908114205D16346D80892
:1008900053460C005B071843420FC000C0085207C4
:1008A0000243E7E6002A00D12DE76346D808534605
:1008B0005A070E000243DC08CCE663461D1AAC451D
:1008C0009241534652421C1B0E008846A41A01371F
:1008D00055E56346D90853465A070A43DC08C9E67A
:1008E00060465446D4E6C008002A00D1BFE662073D
:1008F00010438022E40812031442CDD0DD081542D3
:10090000CAD16346D80853465B070E002C00184333
:10091000C2E76346D90853465A070A43DC0899E6FA
:100920006346D80853465A070E000243DC08A1E686
:10093000110027002039CF40202A03D040218A1AF5
:1009400094402043421E904105003D4351E60C0077
:100950000025002258E560446045924154445242CB
:100960000500A4183AE753465A076346D908534688
:100970000A43DC087EE61A001C002A4300D0ABE6DE
:10098000C1E620210025091A19E500220025014CA5
:100990003AE5C046FF070000FFFF7FFFFE070000AB
:1009A000F0B55746DE464E464546E0B50D0004001C
:1009B000E80F83460903D80F090B824619488C4675
:1009C0001F0369005E00490D3F0B760D814218D070
:1009D00086420FD00120B1420DD1BC450BD19442CB
:1009E00009D1D3451CD0002905D160462043431EC0
:1009F000984100E00120F0BCBB46B246A946A046A3
:100A0000F0BD01208E42F6D1614639430F001743F5
:100A10002743F0D15B465246981A431E9841EAE7B5
:100A20000020E8E7FF070000F0B557464E46454670
:100A3000DE46E0B50D000F03390B83B0040080469D
:100A400001915800E90F314F400D8C466E0019039B
:100A500082469146760D090BD80FBE421FD0BA458B
:100A60000FD0002E2FD15546019E3443002D27D1A3
:100A70000A433AD0002C45D100281AD10120404227
:100A800017E011433BD1002E02D1019F2743F3D041
:100A9000844509D16346002BF0D0604609E0019FF0
:100AA00027432CD1B24524D063460220013B184095
:100AB000013803B0F0BCBB46B246A946A046F0BD23
:100AC000002CD9D0E4E75446002CEDD08445EBD17E
:100AD0005645E9DCDEDB019B8B42E5D8DAD1C8451F
:100AE000E2D80020C845E4D2D4E70020002CE0D0B2
:100AF000DAE7114303D18445D6D10020D9E702209B
:100B00004042D6E78445E6D0CEE7C046FF07000066
:100B1000F0B557464E464546DE46E0B50D000F039C
:100B200004008046E80F390B844683B05800304FEC
:100B3000400D01911E03690082469146490D360B16
:100B4000D80FB94220D0BA450FD000292BD1019936
:100B50000C435146002937D1324338D0002C44D1C0
:100B6000002819D10120404216E0164313D1002974
:100B700002D1019F2743F3D0844520D06346022051
:100B8000013B1840013807E0019F274303D18A4504
:100B9000F4D116431FD0022003B0F0BCBB46B246CE
:100BA000A946A046F0BD5446002CE7D08445E5D1C7
:100BB0005145E3DC03DB019BB342DFD80FD0634632
:100BC000002BCFD06046E7E7002CC9D0D4E7002047
:100BD000002CE1D0D2E78445D0D10020DCE7C84525
:100BE000CCD80020C845D7D2E9E78445E3D0C5E793
:100BF000FF070000F0B55746DE464E464546E0B5D5
:100C00001F000B031B0B16009A46CA0F4B00040073
:100C1000934687B05B0D00D1D5E0BB4A934200D12B
:100C2000F8E05146420FC9000A43802109041143EC
:100C3000C2009146B54A8A469D1800239846029301
:100C40003C037B00FA0F3000240B5B0D009200D1B7
:100C500096E0AD4A934231D0720FE40022438024E3
:100C600024041443A94AF000944663445B195A1CB7
:100C70000192424600260A2A42DC5A4600994A401E
:100C800093464246022A32DC013A012A00D949E160
:100C9000022E00D1CAE0012E3DD100230024002203
:100CA00010005A461B052343D2071343190007B00F
:100CB000F0BCBB46B246A946A046F0BD924B2643C7
:100CC000EB18002E00D1BBE00322414611435A46E7
:100CD000884600994A40802109018C4629006144D8
:100CE000019141460A2900DD33E29346032642463C
:100CF00001279740A6213A00C9000A400F4231D08F
:100D0000029E022E00D135E2032E00D1D2E15446DC
:100D10004846012EC1D0019A7D4B94466344002B76
:100D200000DCC0E0420709D00F220240042A05D0AF
:100D3000021D82428041404224181000E20106D583
:100D4000744B019A1C4080239446DB006344724A32
:100D500093426BDC6207C00864025B050243240B0C
:100D60005B0D9DE7902189000F4263D188223A42B2
:100D700000D1D7E0009BA2469B4681460296BFE782
:100D80002300334300D17FE0002C00D1ADE12000EF
:100D900000F022FE020003000B3A1D201900821A07
:100DA00030000839D0408C400443300088405B4A12
:100DB000EB1A944663445A1C0192424600260A2AC2
:100DC00000DC5AE79CE753460343994654D0534608
:100DD000002B00D177E1504600F0FEFD0B235B4273
:100DE0009C460200844411005046083988401D2367
:100DF000804660461B1A2000D8400300404603434B
:100E00009A4623008B4099460023444D9846AD1ADC
:100E1000029315E752460243914626D100221D0057
:100E20000223924608329046029309E700240022EA
:100E3000354B35E7002380249B462403324B2FE7B4
:100E40000222414611438022120194462A00624444
:100E5000884601920A2900DD52E75A46002000998F
:100E600004004A40934602260BE70C221D00032390
:100E7000814690460293E3E600239A46043398465F
:100E8000033B00250293DBE6424601331A432B0065
:100E900090465A1C019242460024002001260A2A4C
:100EA00000DCEAE62CE70122D21A382A00DDF4E65B
:100EB0001F2A00DC2AE11F214942CB1A2100D94018
:100EC0000B00202A05D0164A019D94466544AC408B
:100ED0002043421E9041184307231900002401407B
:100EE00003420CD00F230340042B00D140E1031D2B
:100EF0008342A4411800644261076402240BC208C3
:100F000000230A43CCE6C046FF07000001FCFFFFB8
:100F1000FF030000FFFFFFFEFE0700000DFCFFFFC8
:100F20003E04000049464A460904090C0D00160C0F
:100F3000020C0004000C4543AC4605007543A8466E
:100F400015000F007543009202952A00009D6F4323
:100F500065462D0CA94647444F44B84505D91500B0
:100F6000802252029046454402953D0C0395654609
:100F70002D043F042D0CAC463D0065440495250C22
:100F80002404240CAC4625007543A84665460F0092
:100F90006943414489466743390C49446E43884557
:100FA00003D980225202904646440D0CA8463500D3
:100FB00045440595039D3F04A8463F0C0904C91903
:100FC00088444546039555462E04360C2F0C3500B3
:100FD0004543784381463800A8462D0CAA46009A1E
:100FE000504372434A445244914503D980256D02CF
:100FF000A9464844150CA94645462D042D0CA84683
:1010000065467D43120448449044A9463200654633
:1010100062436E437C43170C3619BF19BC4203D997
:1010200080246402A446E144029C039EA446059DDC
:1010300066448E428941AC4612043C04120CA2184C
:101040006244494254184644A4464645A441824657
:101050006442A046AA4292418C458941E244D04470
:10106000494252420A43A045A44182458941644213
:1010700049420C4341463F0CD2191219CC0D049938
:1010800070020843411E884141464A44F60D52020F
:101090003043490214430843D20135D501224308A5
:1010A00002401343E0071843640834E6009BA2465D
:1010B0009B4681468024534624031C4324034A460E
:1010C0002E4B240BECE500F087FC15239C46844452
:1010D0000200634620321C2B00DC84E60023994684
:1010E0002300083883409A468EE600F075FC020023
:1010F0000300153220331C2A00DC4EE602003400C7
:10110000083A0020944052E6019304E61C4B21006B
:101110009C460300019DD3406544A9401943030048
:10112000AB40581E834119430800D4404B0709D0F7
:101130000F230B40042B05D00B1D8B4280414042F6
:1011400024181800230200D4D6E60123002400222C
:10115000A6E50F29AAD1802352461B031A42A9D023
:101160001C42A7D11C43009B02009B46034B97E502
:101170000024C1E60024014B220091E5FF07000096
:101180001E040000F0B54E464546DE465746E0B523
:1011900085B0009001910C034F00CE0F610A009CB6
:1011A000B046640F0C4300997F0DC80011001A006F
:1011B0001B039C460091019251004B0D9946019BE7
:1011C000009DD90F63466A0F5B0A1343EA009446F9
:1011D0009346C14A03900293914500D1CDE0012589
:1011E00069404D467D1BAA468E4200D180E0002D0D
:1011F00000DC35E34946002900D1DFE0974200D109
:1012000094E152460125382A19DC8022029B1204FF
:101210001343029352461F2A00DDE3E15346202286
:101220006146029DD21A9540D9400D4361469140D6
:101230000A00511E8A411543029ADA40A41A451B3E
:10124000A84280414042241A230200D43DE16402B6
:10125000640A002C00D147E1200000F0BDFB030030
:10126000083B20212800CA1AD0409C4002009D4023
:1012700022439F4200DD77E1D81B0130091A2C0080
:101280008D40C4406B1E9D411300C2408B402543DE
:10129000002714001D436B0709D00F232B40042B9C
:1012A00005D02B1DAB42AD416D4264191D002302D8
:1012B00000D440E1884A0137974200D101E101267C
:1012C00043468649ED0821404A072A437C054D02E2
:1012D0002D0B640D1E4024052C43F60734431000EB
:1012E000210005B0F0BCBB46B246A946A046F0BD01
:1012F000002D00DCD0E24946002900D0D4E0614650
:10130000029B194300D12BE1691E012D00D1D9E1C7
:10131000954200D10AE10125382917DC8A46534657
:101320001F2B00DDE7E12022D21A029B6146934089
:101330001D005346D940634693401A000D43511E89
:101340008A4153461543029ADA40A4182D18854263
:10135000804140422418230200D4B6E05E4B01379E
:101360009F4200D1ADE001215C4B6A081C4029403E
:101370000A43E507154364088DE7594A029B9246E4
:101380006246BA441A432CD08E422ED05246002ACE
:1013900060D0002F00D1DBE063460E00029CD8082D
:1013A00062070243E4081300234300D154E280257E
:1013B0002D0325432D03484C2D0B8CE76146029BE2
:1013C000194300D1CCE029000139012D00D188E179
:1013D000954200D1AAE00125382900DD2FE78A4691
:1013E00018E7012251408E42D0D15346002B00D144
:1013F000BEE0002F00D038E1CA462200024300D1EF
:10140000E2E15346591E012B00D10DE2324A9245CA
:1014100000D1D2E10127382913DC1F2900DDEEE1DC
:101420002022029B521A250007009A46CC40904089
:101430009540CF40A244421E904153462F4307435C
:1014400002933D00654465459241029B52424F46DE
:10145000D41880E7234A7D1C154200D0AAE06246DA
:101460002500029B05431A43002F00D0F5E0002D14
:1014700000D16BE1002A00D152E16346C51A029BFC
:10148000E21AA8429B415B42D31A1A0200D4D5E16A
:1014900063461D1AAC4592410126029B52421C1B19
:1014A0008846A41A0E40F6E697423FD052460125E0
:1014B000382A00DD4AE78022029B1204134302937C
:1014C0002DE73C000025002205E707232B40002BD9
:1014D00000D0E2E66BE0C046FF070000FFFF7FFFA1
:1014E00001F8FFFFFE070000280000F075FA030076
:1014F00018331F2B00DCB4E62A00083882409F42D4
:1015000000DDB9E0DB1B581C1F2800DCA0E1150042
:101510001F3BDD40202805D040231B1A9A40531E54
:101520009A411543072300272B40D0E7C0086207E4
:101530000243E40837E7EA0863071A43D34BE40899
:101540009F4200D12FE72403250B7C05640DC2E6E2
:10155000CA462200024358D163460E00029C039300
:10156000039B5746DA08E7E7C94CFF1A144092E696
:10157000C84D7A1C2A4200D084E022000243002F8A
:1015800000D0EFE0002A00D1E5E0624602990A436C
:1015900000D1C5E06346C5188C468542804164444D
:1015A00040422418230202D5B94B01371C40BA46E9
:1015B0000395D5E76246851AA84292415242914668
:1015C000029BE31A1A004B46D21A130091461A02E4
:1015D0006CD44A464C462A4300D03AE60026002402
:1015E000002578E6029953460D00203AD540202B7D
:1015F00006D04022D21A0B00934062461A4393460B
:101600005B465A1E93411D4319E653465A1E012B51
:1016100000D1C6E09D4EB24500D1BDE688460E0021
:101620000125382A10DC1F2A7FDC20212500891A99
:10163000070088408D40D740D440411E8841029B1E
:101640003D431B1B054302936246551BAC4592412B
:10165000029B52424F469C1AF6E5002D00D0B7E09F
:10166000002A00D1F0E001260E4063460298D90816
:1016700042070A43C40896E6854CFF1A14406207E5
:10168000E40860E781498A4200D1C9E06346C11895
:1016900081428041029B4042E3181B18DD075C0831
:1016A000072349080D4317002B4010E763461D1A16
:1016B000AC4592410126029B52421C1B8846A41A4B
:1016C0000E40C6E56346C518029B854280419C4694
:1016D0004042644424180127230200D4F5E602277F
:1016E00041E66346C51AA8428041029B4042E41A83
:1016F0000127241AA8E5029D52462B00203AD34028
:1017000019005346202B06D04022D21A2B009340BA
:1017100062461A4393465D466B1E9D410D4315E696
:101720006207C0080243E4080DE7110027002039D2
:10173000CF40202A05D040218A1A94402500054335
:101740000395039D6A1E95413D437DE7002A00D124
:1017500044E701260E406346D908029B5A070A4314
:10176000DC08F0E6002A28D06246029FC0083A430F
:1017700000D1DCE6620710438022E4081203144221
:1017800009D0FD08154206D1634601262C00D80871
:101790007B0718430E40420FC000C00852070243A7
:1017A00001E663461D1AAC459241029B52421C1B46
:1017B0000E0088460127A41A46E56346D908029B15
:1017C0005A070A43DC08EEE56346029C0393C7E62A
:1017D000C008002A00D1AAE6620710438022E4086C
:1017E00012031442D7D0029FFD081542D3D163469D
:1017F0000126D8087B072C0018430E40CBE70A00CF
:101800002700203AD740202905D04022521A944080
:10181000250005430395039D6A1E95412F4310E65D
:1018200014000025002256E5029B6044994660455D
:1018300092414C4452420500A4184CE71A001C0087
:101840002A4300D0B3E6C9E6802400262403AEE58F
:1018500020210025091A17E5002200250B4C3AE546
:10186000002D00D1F6E54B46DA1B9246002F00D141
:101870006FE6382A05DC80263604344388460E009D
:10188000D1E688460E000125DEE6C046FF070000CF
:10189000FFFF7FFFFE070000002D00D168E64B46EA
:1018A000D91B002F01D18A46A7E50127382900DD81
:1018B000C7E5802212041443AFE5C0460B000200C6
:1018C00070B5164D0C0382B04900002000920193C0
:1018D000240B490DDE0FA94204DD1148814203DDCE
:1018E000104BF01802B070BD8020400320430E4C16
:1018F000641A1F2C08DD0D4B5B1AD84003005842B8
:10190000002EEFD11800EDE7094B009A9C4603002A
:1019100061448B40E2401343F1E7C046FE03000000
:101920001D040000FFFFFF7F3304000013040000CC
:10193000EDFBFFFF70B5002816D0C317C5185D403A
:10194000C40F280000F048F8104B1B1A5B055B0D14
:101950000A2814DC02002E00153296400B22121ABF
:10196000D5402D032D0B03E0002400230025002685
:101970001B052B43E40723433000190070BD0B38CF
:1019800085402D0300262D0BF2E7C0461E04000003
:1019900010B5041E10D000F01FF80E4B1B1A5B058B
:1019A0005B0D0A280FDC0B222100121AD1401530E2
:1019B0000A038440120B01E0002300221B0513439D
:1019C0002000190010BD22000B38824012030024B1
:1019D000120BF3E71E0400001C2101231B04984294
:1019E00001D3000C10391B0A984201D3000A0839B0
:1019F0001B09984201D30009043902A2105C401867
:101A00007047C0460403020201010101000000000A
:101A1000000000002021C020124B00061A688A43F3
:101A20001A601A6820310A431A601A683E390A435C
:101A30001A601A6801390A431A600B4B1A688A4304
:101A40001A600A4A0A495A600A6A1202120A0243D2
:101A50000A6200229A6007321A600B6A1B021B0A94
:101A60000B6270470020024010E000E0FF7C0000A5
:101A700000ED00E03549364B0A681A4080231B010F
:101A800013430B600821334B1A688A431A601A68A3
:101A900031490A401A600C22D9680A40042A13D03E
:101AA00001211A680A431A6003311A681142FCD0F6
:101AB0000321DA688A4302390A43DA600C22254995
:101AC000CB681340042BFBD1224B2449DA680A402F
:101AD000DA60DA6822490A40DA60D968214A11409E
:101AE0008022D2030A43DA60D9681F4A114080225B
:101AF000D2020A43DA60DA681C490A40DA608022BE
:101B0000D96812020A43DA60DA6819490A40DA60D1
:101B1000DA6818490A40F021DA60DA688A43DA6044
:101B20008022196852040A4380211A6089041A68C5
:101B30000A42FCD00321DA680A43DA600C22054924
:101B4000CB6813400C2BFBD17047C046007000409F
:101B5000FFE7FFFF00100240FFFEFFFFFFFFFF8FC8
:101B6000FFFFFFF0FFFF3FFFFFFFC3FFFFFFFEFF91
:101B7000FFC7FFFFFFF8FFFF8023204A5B05916B43
:101B80001F480B439363802301685B001943016086
:101B9000116D0B43802113658900136D0B42FCD03E
:101BA000116D184B194080235B020B431365802392
:101BB000116DDB020B431365CA228021124B5A625E
:101BC000773A5A62DA680A43DA604039DA681142D1
:101BD000FCD019680D4A11400D4A0A431A60596831
:101BE0000C4A11400C4A0A4380215A60DA688A4341
:101BF000DA60FE225A629A3A5A6270470010024036
:101C000000700040FFFFFCFF002800408080C0FF04
:101C100000361700C00000FF014424000122F0B587
:101C2000C6468024354800B5C36A24061343C36200
:101C3000334B042719680826890089082143196055
:101C40005968304C602521405960C0219C680906C4
:101C500021439960A021C9054B6A10241B011B096F
:101C60000B434B62836B1343836380230220DB05AA
:101C70001968804691431960196881431960196891
:101C80002148B94319601968B14319601968A14323
:101C9000196019687034A9431960196821431960E3
:101CA0001968014080201960D96800021143D96089
:101CB000164999621649D962164908600320996944
:101CC0008143404699619969B94399619969314362
:101CD000996199696836B143294399619969A1432A
:101CE0009961196A0C4C11431962216A814321627E
:101CF00019680A431A6080BCB846F0BD0010024063
:101D000000040050FF7FFFFFFFFCFFFF7F0C00007F
:101D10000F27000000E100E0000801400220F0B5BC
:101D2000C646354A00B5D36A34490343D362344BBF
:101D300008271C6810250C4080210901214320241C
:101D4000196059686026A1435960C0219C68090147
:101D5000214399601C6A2B490C40A021C9032143EF
:101D6000042419620121536B23435363264B1A68E1
:101D70008A431A601A6882431A601A68A2431A607A
:101D80001A68BA431A601A68AA431A601A6870354A
:101D9000B2431A601A68A8462A431A601A681B4D93
:101DA0002A4080251A60DA686D030A43DA60184A0F
:101DB0009A62184ADA62184A156003259A69AA439A
:101DC0009A619A69A2439A619A696C343A439A611A
:101DD0009A69A243444632439A619A69A2439A613E
:101DE0001A6A0A431A621A6A02431A621A680A4392
:101DF0001A6080BCB846F0BD00100240FFF3FFFF40
:101E000000040050FFFF0FFF00080140FFFCFFFF30
:101E10007F0C00000F27000000E100E00721F0B573
:101E200057464E464546DE46B34AE0B5D36A0C25D2
:101E30000B43D362A023DB051968B04A042011408C
:101E40008022D2010A4380211A605A6802248A4300
:101E50005A60C022996812020A439A60A84AA94FA0
:101E60001168A943014311605168A1435160916811
:101E70003E34294391601E68A349A1460E4080214B
:101E80004901314319605968A1435960C0219E68D6
:101E90008901314399601E689C4980340E4080213D
:101EA000C9003143202619605968A446B1435960DE
:101EB000C0219E680901314399601E6894490E4013
:101EC0008021C903314319605968924E31405960ED
:101ED000C0219E6809043143996080211E68C902AF
:101EE0003E403143C026196059688B4F3603394054
:101EF0005960996831430326996001211768B743F7
:101F00000F43176057688F43576097683743976050
:101F10001768A7434C46274317605768383CA046CC
:101F2000A743644657609768274397601F68A74395
:101F30004C46274344461F605F68A74364465F6082
:101F40009F6827439F601F68744CA24627408024E7
:101F5000640027431F605F68A446F03CA7435F60AE
:101F60009D68C0272C00BF003C439C601D68A846AC
:101F700044466B4D2C4080256D042C431C605D68ED
:101F8000A8464446674D2C405C609D68AB46C02522
:101F90005C46AD042C439C60544615682C40A0461A
:101FA000644645462C43146010245568A54355608B
:101FB0009468274397601C685B4F3C4080277F03F1
:101FC00027431F605F68594C27405F60C0279C68AB
:101FD000BF0327439F601C68554F3C4080277F020A
:101FE00027431F605F68534C27405F60C0279C6891
:101FF000BF0227439F60504F3C68A400A408A4463A
:102000008024E405A046644645462C433C607C6839
:10201000A4464A4CA046644645462C407C60BC68B9
:10202000A046C0242406A446444665462C43BC6012
:102030000F241F680C25B7431F605F688F435F60E4
:102040009F6837439F603E4FBE68A643BE603D4ECB
:1020500034680C433460F46821430224F160196849
:10206000A94319605968A143596099682943996047
:10207000B968E435A943B960316821433160F1683A
:102080002143F16019682E34A143196059688143D6
:102090005960996821439960BB682B490B40BB602C
:1020A0003368802103433360F3680343F3601368AC
:1020B000144803401360536817480340C02053601E
:1020C00093680003034393603B69AB433B61802308
:1020D00032689B001A433260F2681343F3604A4649
:1020E00020261A4B1E601A601960F0BCBB46B2462F
:1020F000A946A046F0BDC04600100240FF3FFFFFCA
:1021000000040050FFFFF3FFFFCFFFFFFFF3FFFFCF
:10211000FFFF3FFFFFF7FFFFFFFDFFFFFFFCFFFF9C
:10212000FFFFFFFCFFEFFFFFFFFFCFFFFFFBFFFF06
:10213000FFFFFCFFFFFEFFFF00080050FF7FFFFFD7
:102140000000014000040140FFF0FFFF00E100E05B
:1021500000B5022948D017D8002961D0A0238022D9
:10216000DB0512039A6110229A61802252059A615E
:1021700080228D4B52039A612E38C0B2312817D875
:102180008A4B80001B589F4603293BD1A023802205
:10219000DB0512039A61802252039A618022520564
:1021A0009A611022804B2E38C0B29A613128E7D94B
:1021B000A023802280211204DB059A617A4A8902D9
:1021C00091618021C90399618021890399618021EE
:1021D0000905996180218904996180235B029361DB
:1021E00080231B03936100BDA0238022DB05120323
:1021F0009A6180218022490152039A6199616A4B58
:102200009A61B9E7A0238022DB0512039A6180213D
:102210008022490552039A619961634B9A61ABE749
:10222000A0230822DB05F1E7A02380228021DB0523
:1022300012049A615C4A890291618021C903996103
:102240008021890399618021090599618021890490
:10225000996180235B02936108239361C3E7A02304
:1022600080220221DB059A614F4A91613E319961DA
:102270002039996180210901996180218900ABE7AA
:10228000A0238022DB05120402219A61464A916153
:102290003E3198E7A02380220221DB059A61424A61
:1022A00091618021C90399612021996180210901EF
:1022B00099618021890499610123936180231B0323
:1022C000936190E7A02380220221DB059A61364AC0
:1022D00091613E31996120399961802109059961A7
:1022E00080218904E7E7A02380220221DB05120474
:1022F0009A612D4A91613E319961802189039961EA
:1023000080210905996180218900D4E7A0238022DA
:102310008021DB059A61244A8902916140219961FB
:102320002039ECE7A02380228021DB059A611E4A38
:1023300089029161402199612039996180210901C7
:10234000E0E7A0238022DB059EE7A0238022DB05B7
:102350009A610221144AECE7A02380220221DB05C6
:102360009A61114A91613E31D9E7A023802202216E
:10237000DB059A610C4A91618021C9039961802132
:102380008903996180210901BCE7A0238022802173
:10239000DB0512049A61044A890291618021C90314
:1023A0009961202112E7C04600040050D82F000890
:1023B000F0B5C646A72300B5654E84B0F35C002B8C
:1023C00000D19DE06B23E125F35C2D015D43752376
:1023D0003C21F35C4B43ED185E4BADB21A681A68B2
:1023E0001C681F6818681A68E023DB0123409C0002
:1023F000E418F0231B013B406400E4187023034001
:102400004C4399005B180F215B000A409B18E418AD
:102410008923F25CA4B213019B1A9B002A1B9342EE
:102420006ADB80224C4B12029A614C4A0E391368C7
:1024300088460B4313608023DB05DF6A3800FFF713
:10244000A7FA0290039129002000FDF75DFE4346A4
:1024500080B2181AFFF76EFA9323F65C04000D00A1
:1024600030006421FDF750FEC0B2FFF763FA0200AE
:102470000B00FEF787FE00900191632E5AD9C72EFC
:1024800063D922002B0020002900FEF7B3FB0600D1
:102490000F000098019900220023FDF7EBFE0028B1
:1024A00015D000222E4B20002900FEF76BFE009A6B
:1024B000019BFEF79FFB0022294BFDF70DFF020059
:1024C0000B0030003900FEF795FB06000F00029864
:1024D00003993B003200FEF78DFB04000D00FDF771
:1024E000DDFE00220700002320002900FDF7AEFEDC
:1024F000002810D1194B5F6304B080BCB846F0BD12
:1025000080210120144A09069161144A116881430F
:1025100011605363F0E73800FFF73AFA0B0002004E
:1025200029002000FDF78CFE434258410B4B3F1A17
:102530005F63E1E70022009801990023FDF79AFE0E
:102540000028D7D00026064FABE726002F00A0E7D3
:102550000000002000280040000800500008014052
:102560000000F03F70B5C0254E4CAD0323682368D2
:1025700023682368FFF71CFFF020226821682A40A7
:1025800093009B1800035B0001405B18052B28D9C2
:10259000226821682A4093009B185B0001405B1869
:1025A000152B1ED8ED22404B9B5C002B19D03F4BC6
:1025B0001A68032219680A40012A24D01A681B6885
:1025C000DB439B0748D03A4B00201B78002B07D1F8
:1025D000384B1B78002B03D1374B18780123584018
:1025E00070BD364B1B78002BE1D1354B1B78002B8F
:1025F000DDD1344B1B78002BD9D1ED222A4B9B5CCB
:10260000002BE0D0D3E7A02280201021D2050003C8
:102610009061916180218024490591612A49640378
:102620008C618024240494618024A4028C61802421
:10263000E40394618024A4039461802424059461BC
:102640008024A4049461802252028A6188611A68FD
:102650001B68DB439B07B6D1A02380218022DB05CA
:102660000903520399619A618022102052059A61F0
:10267000154A90618020000498618020800290615A
:102680008020C0039861802080039861802000052D
:10269000986180208004986180235B02936191613E
:1026A00091E7C0460028004000000020680100209B
:1026B00076010020750100207701002079010020BB
:1026C000780100207A01002000040050F0B5D646C1
:1026D0004F464646C0B53A4E0A21737C394D9A465C
:1026E000F37E504699462523F35C2F689846FDF704
:1026F0000BFD0A21C4B25046FDF78CFDC9B2090496
:10270000240540460C430A21FDF784FDC9B2484622
:102710000C430A21FDF7F8FCC0B2000304430A2170
:102720004846FDF777FDC9B2090240460C430A212D
:10273000FDF7EAFC244BC0B21F40432300010443D1
:102740003C432C60F35C0A219A463923F35C6F68A2
:1027500099462F23F35C98464D234046F45CFDF7E1
:1027600059FD6403C9B250460C430A21FDF7CCFC65
:10277000C0B2000504430A215046FDF74BFDC9B223
:10278000090448460C430A21FDF7BEFCC0B2000311
:1027900004430A214846FDF73DFDC9B209024046FF
:1027A0000C430A21FDF7B0FC084BC0B200011F40EA
:1027B00004433C436C60E0BCBA46B146A846F0BD59
:1027C00000000020002800408080C0FFC00000FF03
:1027D000F0B5C64604000D0000B5002829D08026BB
:1027E000F605B16A1648FDF78FFC2100FDF78CFC59
:1027F000F062F36A5B08736380240027E405676274
:10280000A16AE36A0E489846FDF77EFC4146FDF753
:102810007BFCFA2168438900FDF776FC0122094B15
:10282000094E1F80236830801343236080BCB84664
:10283000F0BD8023FA22DB059200DA625863DBE701
:102840000048E8015401002056010020F8B5CE46AA
:1028500047460C00494980B50D78002818D0484EED
:10286000484A3778BB00D8194000994613189C464F
:102870009B78002B2ED1115C0023013204E0013340
:10288000DBB20A321F2B5AD010788842F7D133704E
:10289000002C0BD0002D46D1394E3A4AFF2333701D
:1028A000394BD018C0BCB946B046F8BD002D29D070
:1028B00036480178364A374B3F2013803F239370C8
:1028C0000B006E33DBB2092B01D86239C8B2D0706D
:1028D0001000E7E7002D1DD1012063460870D9796B
:1028E0002A480170002CE4D03B004B445B00D31815
:1028F0006418597AE4B21B7A04708C421BD919000F
:102900000370D7E71E4E1F4A31788B005B185B00BF
:102910000333C6E760461D4B1B78C37100230B7061
:10292000002CBBD1F0E7164B18481F780178BB008C
:102930009946144AD8E79C421DD20170BAE70D2986
:102940000DD0112906D00429A2D1FFF7BFFE9FE7C1
:10295000FFF708FEFFF706FE0028F9D198E70022EE
:10296000FA210D4B0D481A800D4B013249001A70A7
:10297000FFF72EFF8CE721009CE7C0466D01002089
:102980006E01002000000020F90900006C01002009
:1029900060010020303F00005A0100200A020000C0
:1029A00058010020F0B5DE4657464E464546E0B594
:1029B0008BB0FFF72FF8FFF75DF8FFF72FFAFFF75F
:1029C000DBF8FFF72BF9FFF7A9F920212020FFF70B
:1029D000BFFB8022664B12069A6100210020FFF7A0
:1029E00035FF644B03251A00069302230190FF3341
:1029F000D65C614B614C03931B78614F9846614BE9
:102A00009B46614B9946614B9A46614B0493614BDF
:102A10000093614B0793614B0593614B0893614BA6
:102A20000293614B09935A46236812689B1AB3427A
:102A300006D301223B681A4202D13B6813433B6034
:102A40004A46236812689B1A9E4206D802233A68B7
:102A5000134202D13A6813433B605246236812681E
:102A60009B1A9E4206D804233A68134202D13A6860
:102A700013433B60049A1378002B70D00121009B14
:102A8000197000231370059A1378002B5ED0FF2372
:102A900000990B70002313704346002B27D00122AE
:102AA000029B01201A700023039A1370009B19786F
:102AB000FFF7CCFE0223069AFF330190D65C039BFE
:102AC0001B78984623681D4228D023682B40012B91
:102AD0002DD023682B40022B32D023682B40032BB0
:102AE000A1D1019B0321D878FFF732FB9BE7099A1C
:102AF00013789846009B19784346002B06D0FF2395
:102B00000299FF200B7000231370CFE7029B187807
:102B100003000B43CCD123681D42D6D1019B002179
:102B20001878FFF715FB23682B40012BD1D1019BAF
:102B300001215878FFF70CFB23682B40022BCCD1E6
:102B4000019B02219878FFF703FBC6E708990A78F2
:102B5000002AA1D0FF2200980B7002709CE7079911
:102B60000A78002A8FD00120009A0B7010708AE733
:102B700000080050000000207801002068010020BB
:102B8000000401408C010020880100208401002005
:102B9000790100205C010020760100207A010020EC
:102BA000770100205D01002075010020064A1368AE
:102BB00001331360054B1A88002A03D01A88013AA2
:102BC00092B21A807047C04668010020640100205C
:102BD000F0B50122C6465A4B00B559690A4218D0D1
:102BE00019685848914319605749584D0C6804605A
:102BF000287800285CD1086855492A700870082197
:102C00009A688A439A60DA680A43DA6001224C4B78
:102C10005A6102224A4B59690A4218D019684D4834
:102C20009143196048494C4D0C680460287800288D
:102C300010D10868494908700121297099689143A9
:102C40009960D9680A43DA6002223D4B5A6180BC20
:102C5000B846F0BD414C08682478001BDC68C0B25F
:102C60009443DC609C6822430C249A6016223C4BFF
:102C7000FF341C5DFF329A5C844246D290424ED2B1
:102C80000122384C90462270374A107800284AD0EA
:102C900036480F680678BF1B2026FF369B5D9F4293
:102CA00042D84146324B19700023237013702EE036
:102CB000274C08682478001BDC68C0B29443DC60B1
:102CC0009C6814439C601624254BFF341C5D844291
:102CD00020D90C24FF341C5D84421DD2254802708B
:102CE000804625480478002C23D0244C0F68267891
:102CF000BF1B2026FF369B5D9F421BD8204B1A70BE
:102D0000002342460370137006E0904207D200236E
:102D10002B7099E71B4B1A7000232B7076E701226A
:102D2000194B1A70F3E71148012313700B680370F5
:102D3000EDE7124C012303700B682370ECE7C046EB
:102D4000000401408C010020680100207C0100206B
:102D500082010020880100207B01002081010020E9
:102D600000000020780100206F0100207E0100207B
:102D70007201002079010020700100207F010020F5
:102D8000730100207601002075010020F0B50422B7
:102D9000C6462D4B00B559690A4215D019682B4C0F
:102DA000914319602178002911D1294908682949DE
:102DB000087001212170996891439960D9680A438C
:102DC000DA600422204B5A6180BCB846F0BD204D29
:102DD000204829680078091AD868C9B29043D86099
:102DE000986802439A6016221B4BFF329A5C8A4213
:102DF00006D802D20122194B1A7000232370E0E793
:102E00000C22FF329A5C8A42F7D201221448904683
:102E10000270144A117800290FD013492F680E78D8
:102E2000BF1B2026FF369B5D9F4207D841460F4BB4
:102E30001970002303701370DFE70B49012313702F
:102E40002B680B70D9E7C046000401407D010020CB
:102E5000680100208301002000000020770100208D
:102E60007A010020710100208001002074010020FF
:102E70008022114B92005969114214D019680F48F1
:102E8000014019600E49096911420DD0D9680A4301
:102E9000DA609A6802409A608023074A9B00536177
:102EA00011680B431360704799680A439A60DA68A7
:102EB0000240DA60F0E7C04600040140FFFDFFFF7A
:102EC0000004005080230122DB0519690A4202D068
:102ED00019699143196170470122044B19690A422B
:102EE00002D01969914319617047C046000801403A
:102EF0007047C04613488546FFF7FAFF124801683D
:102F0000090E124A914205D1114812490160124836
:102F10001249016012481349134A002302E0D458B1
:102F2000C4500433C4188C42F9D3104A104C002307
:102F300001E013600432A242FBD300F01DF8FFF75A
:102F400031FDFEE700080020040000001F00000023
:102F500034100240010000000000014000000000A9
:102F60000000002038010020A830000838010020AF
:102F700090010020FEE7000070B500260C4C0D4DBE
:102F8000641BA410A64209D1002600F019F80A4CCF
:102F90000A4D641BA410A64205D170BDB300EB58C6
:102FA00098470136EEE7B300EB5898470136F2E751
:102FB000A0300008A0300008A4300008A0300008AD
:102FC000F8B5C046F8BC08BC9E467047F8B5C04688
:082FD000F8BC08BC9E467047E6
:102FD80028220008B02100085E220008802200088C
:102FE80094220008C4220008E62200080C230008E6
:102FF80024230008422300084A2300085823000815
:10300800B0210008B0210008B0210008B021000854
:10301800B0210008B0210008B0210008B021000844
:10302800B0210008B0210008B0210008B021000834
:10303800B0210008B0210008B0210008B021000824
:10304800B0210008B0210008B0210008B021000814
:10305800B0210008B02100086A230008B021000848
:10306800B0210008B0210008B0210008B0210008F4
:10307800B0210008B0210008B0210008B0210008E4
:10308800B0210008B0210008B0210008B0210008D4
:08309800B02100088A230008A2
:0430A000E90000083B
:0430A400C10000085F
:1030A80000FF0050505050000000010000505F5FCA
:1030B80030000000020101505F30300000180301A9
:1030C80001505F303100003B040101505F30320095
:1030D800003B050101505F303300001F060101501D
:1030E8005F303400000C070101505F303500006389
:1030F800080101505F3036000107090100505F30B8
:10310800370000000A0000505F5F310000000B0A22
:1031180001505F31300017000C0A01505F31310057
:103128003B000D0000505F5F320000000E0D0150A3
:103138005F323000E71E0F0D01505F323100E7E0CB
:10314800100000505F5F33000000111001505F3322
:1031580030000101121001505F33310000181310C4
:1031680001505F333200003B141001505F333300CD
:103178000700151000505F3334000000160000509F
:103188005F5F34000001171601505F343000030000
:10319800181601505F3431000101190000505F5FBB
:1031A800350000001A1901505F353000644B1B19B7
:1031B80001505F353100E77D1C1901505F35320041
:1031C800E7C81D1901505F353300E77D1E00005028
:0831D8005F5F350000000000FC
:0400000508002EF5CC
:00000001FF
