:020000040800F2
:1000000000080020513B0008D13B0008D13B00080C
:1000100000000000000000000000000000000000E0
:10002000000000000000000000000000D13B0008BC
:100030000000000000000000D13B0008E938000883
:10004000D13B000800000000D13B0008D13B000874
:10005000D13B00080D390008353A0008D53A0008B0
:1000600000000000D13B0008D13B0008D13B000854
:10007000D13B0008D13B000800000000D13B000844
:100080000000000000000000000000000000000070
:10009000353B00080000000000000000D13B0008D4
:1000A00000000000D13B000800000000000000003C
:1000B000D13B0008D13B0008000000000000000018
:1000C00010B5064C2378002B07D1054B002B02D02E
:1000D000044800E000BF0123237010BD8801002008
:1000E00000000000E83C0008044B10B5002B03D0D2
:1000F0000349044800E000BF10BDC04600000000F6
:100100008C010020E83C0008002243088B4274D395
:1001100003098B425FD3030A8B4244D3030B8B4208
:1001200028D3030C8B420DD3FF22090212BA030C11
:100130008B4202D31212090265D0030B8B4219D3F2
:1001400000E0090AC30B8B4201D3CB03C01A524112
:10015000830B8B4201D38B03C01A5241430B8B425A
:1001600001D34B03C01A5241030B8B4201D30B0343
:10017000C01A5241C30A8B4201D3CB02C01A52416A
:10018000830A8B4201D38B02C01A5241430A8B422D
:1001900001D34B02C01A5241030A8B4201D30B0216
:1001A000C01A5241CDD2C3098B4201D3CB01C01A30
:1001B000524183098B4201D38B01C01A524143093A
:1001C0008B4201D34B01C01A524103098B4201D328
:1001D0000B01C01A5241C3088B4201D3CB00C01A95
:1001E000524183088B4201D38B00C01A524143080D
:1001F0008B4201D34B00C01A5241411A00D2014632
:10020000524110467047FFE701B5002000F0F0F8BA
:1002100002BDC0460029F7D076E7704703460B437E
:100220007FD4002243088B4274D303098B425FD3EF
:10023000030A8B4244D3030B8B4228D3030C8B421B
:100240000DD3FF22090212BA030C8B4202D3121201
:10025000090265D0030B8B4219D300E0090AC30BD6
:100260008B4201D3CB03C01A5241830B8B4201D383
:100270008B03C01A5241430B8B4201D34B03C01A6C
:100280005241030B8B4201D30B03C01A5241C30AE4
:100290008B4201D3CB02C01A5241830A8B4201D355
:1002A0008B02C01A5241430A8B4201D34B02C01A3F
:1002B0005241030A8B4201D30B02C01A5241CDD2E4
:1002C000C3098B4201D3CB01C01A524183098B422F
:1002D00001D38B01C01A524143098B4201D34B0118
:1002E000C01A524103098B4201D30B01C01A52417B
:1002F000C3088B4201D3CB00C01A524183088B4202
:1003000001D38B00C01A524143088B4201D34B00EA
:10031000C01A5241411A00D201465241104670475C
:100320005DE0CA0F00D04942031000D34042534061
:1003300000229C4603098B422DD3030A8B4212D321
:10034000FC22890112BA030A8B420CD38901921153
:100350008B4208D3890192118B4204D389013AD090
:10036000921100E08909C3098B4201D3CB01C01A65
:10037000524183098B4201D38B01C01A5241430978
:100380008B4201D34B01C01A524103098B4201D366
:100390000B01C01A5241C3088B4201D3CB00C01AD3
:1003A000524183088B4201D38B00C01A5241D9D2EB
:1003B00043088B4201D34B00C01A5241411A00D26C
:1003C0000146634652415B10104601D34042002B68
:1003D00000D54942704763465B1000D3404201B5E7
:1003E000002000F005F802BD0029F8D016E770479C
:1003F0007047C04670B500220C4B04000D0001F0A0
:10040000F7FE002804D12000290001F02FFE70BD66
:10041000064B00222000290001F01EFA01F026FE02
:1004200080231B069C466044F1E7C0460000E04183
:1004300070B50022002304000D0001F0BBFE00286F
:1004400008D12000290000F00FF802000B00100076
:10045000190070BD80231B06E918200000F004F885
:10046000002342428B41F2E770B500220B4B0D0096
:10047000040000F00BFFFFF7BDFF060001F060FE77
:100480000022074B00F002FF02000B0020002900B1
:1004900001F0E2F9FFF7AEFF310070BD0000F03D62
:1004A0000000F04170B50600080001F01BFE0022BC
:1004B000064B00F0EBFE0D000400300001F040FEA2
:1004C0002B00220000F004F870BDC0460000F0418F
:1004D000F0B54F464646D646C0B582B00090019171
:1004E0000E034C00CD0F710A009E5F00760F0E4385
:1004F000009900920193C900894619037B0D984623
:10050000019B490ADB0F9C46009B009A5B0F0B4343
:100510004146640DD200611A654500D1A6E000296C
:1005200072DD4746002F00D1DDE0CC4FBC4200D148
:100530009AE10127382917DC80273F043B431F2914
:1005400000DDDDE12027781A1F008740BA4617003A
:10055000CF40844638005746074360468240CB4030
:10056000501E8241F61A17434B46DF1BB9458041A6
:100570004042361A330200D4FFE07602760A002E9B
:1005800000D13CE1300001F03DFE0300083B20219A
:100590003800CA1AD0409E4002009F4032439C421D
:1005A00000DDA6E1181B0130091A3E008F40C6404D
:1005B0007B1E9F4113008B4037431F43C2403B00CB
:1005C00016000024134300D1DFE17B0700D132E3A2
:1005D0000F233A003B40042B04D03A1DBA42BF41DE
:1005E0007F42F619330200D423E39C4B01349C4232
:1005F00000D1B4E09A4B64051E40640D7707D20821
:1006000076021743360BACE0002900D17EE041466C
:10061000091B002C00D060E134004846044300D19F
:10062000C9E14C1E012900D12EE28C4DA94200D116
:1006300024E20127382C11DC21001F2900DD0BE208
:10064000202437004846641AA740C840074348465C
:10065000A040CE40441EA0419B1B0743D71BBA427B
:1006600092415242654644469E1A83E7002900DCC7
:100670009CE04746002F67D11F00174300D1E4E0FC
:10068000481E012900D19BE1744FB94200D1EBE033
:1006900001270100382811DC1F2900DDC7E12027D0
:1006A000781A1F00844687401000C8400743604600
:1006B0008240CB40501E8241F61817434F444F45AD
:1006C000804140423618330257D5644B01349C4276
:1006D00045D00121624B7A081E4039400A43F70792
:1006E0001743760871E71F00174300D1ADE04F1E96
:1006F000BC46012900D182E1584FB94200D190E1B6
:1007000061460127382900DD2EE718E7554F611CA7
:10071000394200D0D0E0310048461F000143174362
:10072000002C00D03DE1002900D1BCE1002F00D019
:10073000BFE14B460021D80877070743F0080603BE
:100740004C05360B640D0CE0444FBC4200D18BE0ED
:1007500001273829B2DC80273F043B439CE7002671
:10076000002724053443ED072C433800210002B054
:10077000E0BCBA46B146A846F0BD7B0704D00F23C3
:100780003B40042B00D028E7F808344B7707074399
:10079000F0089C4200D04AE23B00034359D0802637
:1007A0003603064336032D4C360BDAE7002961D0B9
:1007B0004146091B002C00D1B9E0284CA04500D1CE
:1007C000A5E10127382913DC8024240426431F29AE
:1007D00000DDC8E1202437004846641AA740C8401D
:1007E00007434846A040CE40441EA0419B19074302
:1007F000BF189742924152424446D61863E73800E8
:1008000001F000FD030018331F2B00DCBFE63A00A7
:10081000083882409C4200DD83E01B1B581C1F28C7
:1008200000DCB4E117001F3BDF40202805D0402347
:100830001B1A9A40531E9A4117430024002F0AD0D6
:100840007B0700D0C4E626009EE74B460C00D80884
:100850009BE70027014C002683E7C046FF07000006
:10086000FFFF7FFFFE0700004B467707D8080743CE
:10087000F00891E7CD4F611C39426BD131004846F9
:100880000143002C00D04BE11F001743002900D189
:1008900081E1002F00D14CE74A444A458041F618D7
:1008A00040423618330200D5B0E117009146374375
:1008B00000D03EE7002654E74946891A8846C145DC
:1008C000BF41F11A7F42C91B0F0261D447460F4353
:1008D00000D1BDE00E00474651E6B54CA04500D121
:1008E00000E10127382900DDB8E6802424042643EE
:1008F000A3E6B04EE41A16407B0700D03FE743E77B
:100900000F001800203FF8408446202903D04027DC
:10091000791A8B401A43531E9A41634617001F43AE
:1009200022E6A448E11A10404707C00807E7340050
:100930004846044300D1FAE04C1E012900D1D7E01B
:100940009B4FB94200D1E2E00127382C00DD4FE790
:1009500021003CE7964CA14200D1DDE04A444A45E3
:100960008041F31840421818C70752081743460839
:10097000520705D00F220C003A40042A00D02CE682
:100980007607FF0837430009D9E600270026E8E686
:100990004946571ABA4292419E1B52426546B61AC0
:1009A000EDE5002900D0C6E0002F67D180260025A4
:1009B0007F4C3603D5E665460C001E00D008E4E601
:1009C0004A444A458041F318404218181100030276
:1009D00000D496E0774B49081840C3070B434408FE
:1009E000490700D129E10F221A40042A00D1EAE088
:1009F0001F1D9F42B641764236190224C4E649467D
:100A00008F1AB9458041F61A4042361A330206D48D
:100A10007307FF0801211F43F00890E66546012493
:100A2000ABE54B467707D8080743F008B4E60F005C
:100A30001800203FF8408446202903D04027791A27
:100A40008B401A43531E9A41634617001F4335E6F5
:100A500000250024002684E60C003500203CE540FB
:100A6000202905D04024611A8E40494631438946E9
:100A70004846411E884107002F43EFE5D2085F0733
:100A800065461743D80887E6171ABA4292419E1B5B
:100A90005242B61A3302C1D47307FF0865460121DA
:100AA0001F43F0084BE6002F7BD065461E009146A1
:100AB0003FE6811A8846C145A441F11A6442091BE8
:100AC00080242404214277D0101A824292410700E8
:100AD0009E1B5242B61A374300D0A0E06546002460
:100AE00000263EE65F07D20865461743D80853E65E
:100AF000811891429241F01852428018030200D5A9
:100B000068E74707C9080F43C008012117E6D20864
:100B10005F071743D8083FE60C000026002720E6B1
:100B2000002956D15F07D2081743D80834E60C00D5
:100B30001E00D00829E6C10870070143F008002F05
:100B400062D080242403204207D0DE08264204D14C
:100B500065463000D1085B0719434F0FC900C9082B
:100B60007F070F4318E60C003000203CE04084462D
:100B7000202905D04024611A8E40494631438946D8
:100B80004846411E8841614607000F4330E6202158
:100B90000027091A0EE51E00002F00D022E50024D0
:100BA00058E7002500240026DBE5C046FE070000CC
:100BB000FF070000FFFF7FFF47460F4300D147E7D5
:100BC0000E00C146B5E5DF0864070221274300098E
:100BD000B5E51900C008770707431143F00800295D
:100BE00000D1D9E580210903084207D0DC080C4276
:100BF00004D1D2085B071A43170020007B0FFF00C7
:100C0000FF085B071F43C7E50F00C5E5124BD2087D
:100C100033405F075B02012417431E0BA1E5264208
:100C200012D00D4B6546020001241E40E6E421006F
:100C300085E51700A8E53A00D4E4DB0864071C4307
:100C40002700022100097AE5C008770707436546B7
:100C50000021F00873E5C046FFFF7FFFF0B5DE46D8
:100C6000454657464E46E0B587B0009201930B03C8
:100C70001B0B9B46CA0F4B00040080465B0D029283
:100C800000D198E07C4A934237D05946420FC900C0
:100C90000A43802109041143C2009046774A8946DD
:100CA00092469A44002300240393009E019F3B0335
:100CB0001B0B9B467B0030005B0DFD0F002B59D0BA
:100CC0006D4A934248D05946720FC9000A438021A9
:100CD000090411438B466949F2008C46514663442E
:100CE000CB1A9A460021029E6E40F6B20F2C00D914
:100CF000CEE0634BA4001B599F465A4602439146DF
:100D000000D090E09A460223904608240393CCE753
:100D1000CB464246029D0399022900D1DEE1032918
:100D200000D18DE0012900D079E12E0000220023BE
:100D3000002490461B052343F60733434046190021
:100D400007B0F0BCBB46B246A946A046F0BD0022A3
:100D500000249046484BEDE75A46009B1A43494B06
:100D60009C46E244002A59D102231C43002302215D
:100D70009B46B8E75A46009B1A4349D05B46002B76
:100D800000D19CE1584601F03DFA020003000B3A05
:100D90001D27009EBA1A19005846D64008398840C7
:100DA000320002439346009A8A40374953448A46A8
:100DB00000219A4497E75B460343994621D05B465E
:100DC000002B00D169E1584601F01CFA0B235B426D
:100DD0009C460200844466461D239B1B260011008E
:100DE0005846DE40083988403300034399462300C3
:100DF0008B409846254B00249B1A9A460023039368
:100E000053E7002398469A460133042403934CE7A2
:100E100001231C43002301219B4664E70323320086
:100E200003211C435FE79A460323D9460C2403930E
:100E30003BE700238024984600260F4B240379E7E4
:100E400080245B4624031C4324032E0090460A4B57
:100E5000240B6FE780244B462403234202D05B46D9
:100E60002342F0D080244B4624031C432403029EDB
:100E7000014B240B5EE7C046FF07000001FCFFFFAB
:100E8000003D000801F8FFFFF30300000DFCFFFF29
:100E9000CB4500D2F8E000D1F3E001235B429C4651
:100EA000444648460025E2445B46170E1B021F439A
:100EB000190C3B04120200971F0C914602910397F4
:100EC000FFF7A8F902007A430B04210C804619436E
:100ED0008A4209D9009F0123BC465B4261449C467B
:100EE000E0448F4200D85CE1881A0299FFF792F93A
:100EF000039A240442430904240C03000C43A24235
:100F000006D90099013B8C466444A14200D842E1D5
:100F1000A01A424612041A4393464B4659461B0CEC
:100F20001F0004930B0449460904090C0C001B0C18
:100F30005C43120C7B43884651437A43270CBC46E2
:100F40005B186344994203D9802149028C4662446C
:100F5000190C24041B04240C8A181C19904202D377
:100F600016D1A54214D25B46009F013B4D44059328
:100F70004D459B41BC465B426344C018874200D349
:100F800002E1824200D929E100D124E1059B9B4680
:100F90002C1BA542AD41009B801A6D42401B834231
:100FA00000D10FE10299FFF735F9039A0B04424390
:100FB000210C050019438A4200D9CBE0881A029916
:100FC000FFF728F9039A240442430904240C030080
:100FD0000C43A24200D9CAE04146A41A2A041A438B
:100FE000049F13041B0C594340467B439C46150C3D
:100FF00068430B0C844463447D43984203D98020AA
:10100000400284466544180C09041B04090C40196D
:101010005B18844227D323D0012335001A43944B15
:101020005344002B60DD510700D086E02E00D1082C
:101030005A46D20106D55A468E4B1A408023934613
:10104000DB0053448C4A934200DD80E65A46520747
:101050000A4390465A465B055402240B5B0D69E631
:101060003500002BDBD0009D511EAC466444AC42E1
:1010700000D29EE0844200D2E1E000D1EEE00A001E
:10108000CAE7424500D908E74B46DC075808434603
:101090005B081C434346DD0706E701F0B3F8152360
:1010A0009C4684440200634620321C2B00DC92E6FE
:1010B0002300083883409946002398469AE601F0B9
:1010C000A1F802000300153220331C2A00DC5FE681
:1010D00000990838814000228B4666E600222E00E7
:1010E00000249046654B25E62E000121C91A3829B7
:1010F00000DD1BE61F297EDC6148140050445B467E
:1011000082408340CC40501E824123431A435B46B9
:10111000CB40510709D00F211140042905D0111DE2
:101120009142924152429B180A00190200D49BE05E
:101130000022012300249046FCE50F2111400429E0
:1011400000D173E7111D9142924152422E00C9080D
:1011500093446DE7009B013D9C4661448B4200D95E
:101160002CE78A4200D829E7851E614426E70099CA
:10117000013B8C466444A14200D92DE7A24200D82D
:101180002AE7831E644427E7874200D0FEE6A9458C
:1011900000D9FBE6F5E6A24200D8B9E6831E644416
:1011A000B6E68A4200D89FE6BC46831E9846614454
:1011B0009AE60A00844200D02EE74B4500D02BE788
:1011C00035002CE72A4B2F4A5344924543DB01223A
:1011D000002193442CE7AC4200D8D7E602235B42BF
:1011E0009C4600994D444D459B41E3448C465B42EF
:1011F0006344C018CCE61F204042C31A5846D8406A
:10120000202904D05946204B534499400A43531E89
:101210009A4107231900024300241140134209D0C8
:1012200008331340042B1DD0131D934289411A002B
:1012300049424907D2080A43904600237AE54946C5
:10124000009F4D004D458941BC4649426144A94635
:10125000023A6418AEE70122524246E79945EED3BE
:101260000A00AAE70021E5E759075B021C0BE1E74A
:10127000FF030000FFFFFFFEFE070000FF07000066
:101280001E04000002FCFFFF3E040000F0B55746BC
:101290004E46DE464546E0B51F000B031B0B16000D
:1012A0009A46CA0F4B000400914685B05B0D00D1F1
:1012B000CFE1CD4A934255D05146420FC9000A436F
:1012C000802109041143C2009046C84A8A469346C9
:1012D0009B440023002502933C037B00FA0F0196F8
:1012E000240B5B0D009200D188E1BF4A934200D1EC
:1012F00092E0BE4A944663449B440A2D42DCE400DB
:10130000730F23438024494624041C43F3000193B4
:10131000009B00205940CBB20393022D00DC94E0E7
:101320000123AB401D00A6232A00DB001A401D420A
:1013300000D029E290239B001D4200D14DE2002302
:10134000802499462403A84B10004A461B052343DA
:10135000D2071343190005B0F0BCBB46B246A946FC
:10136000A046F0BD52460243904600D0ACE19B46F9
:101370000223924608250293AEE7009BA2469946B7
:10138000019B9846029B022B00D1CAE1032B00D19E
:1013900092E1012B10D1002300240022D4E7012286
:1013A0007B083A4013435246D207134398465346AC
:1013B0005B089A46039B99465B46581C8023DB00DA
:1013C0005B44002B00DCB1E1424652070BD00F22F8
:1013D00041460A40042A06D04246111D4145924129
:1013E0008846524292445246D20106D55246804B1C
:1013F0001A4080239246DB00C3187E4A934200DDE8
:101400008FE14246D108524652070A4351465B05D6
:101410004C02240B5B0D97E7734B26439C46E34439
:10142000002E00D16FE1032349461D43009B594024
:10143000CBB203930A2D00DD33E10123AB401D0045
:101440000323029388222A4297D14246434612043C
:10145000120C160001981D0C030C0004000C4643EE
:10146000B4461E006E430096160007005E436146B8
:10147000B0466F430E0CB8444644B74205D98021AC
:1014800049028846009F4744009761460904090CB9
:10149000370C36048C463100614401911100260C52
:1014A0002404240C61438C4621006943894661462B
:1014B000090C884672434A4442447543914503D916
:1014C0008021490288464544110C8846614609043A
:1014D000090C8C4612046244B91802915146090C59
:1014E0008C4651460F043F0C390041434544884621
:1014F000614641438A4641466046090C8946584345
:101500007B4353444B449A4503D980214902894681
:101510004844190C894641460904090C884639009B
:1015200061431B044344884661464C4371438C46E7
:10153000414677430E0C3F19F6194844B44203D98B
:10154000802149028946CC440299009F8946310492
:101550004F4489464146974292410C04240C4C4426
:10156000FF1852426419A1189F429B418846824647
:101570005B42994690459241AC42A441C244D14459
:1015800052426442144399459B41824592415B42D9
:10159000524213434A46360CA419E31863445B02D3
:1015A000D20D1A43019992467A020A43501E824193
:1015B000FF0D17434A4652021743B846DB0100D5D8
:1015C000EDE60D4B039A5B449146002B00DCACE04A
:1015D0003A00520700D110E70F2258463A40042A39
:1015E00000D0F9E609E7C046FF07000001FCFFFF55
:1015F000FFFFFFFEFE070000FF0300002200324352
:101600006FD0002C00D1C2E0200000F0FBFD0200F2
:1016100003000B3A1D20821A30001900D04008390F
:101620008C400200224334008C405946CB1A864934
:101630008B469B440A2D00DDA4E64946009B01949D
:101640005940CBB2140000200393022D00DD67E661
:10165000FBE65346034398463CD05346002B00D14B
:10166000A3E0504600F0CEFD0B235B429C460200F7
:10167000844411005046083988401D238046604646
:101680001B1A2000D8400300404603439A4623001B
:101690008B4098466C4B00259B1A9B460023029377
:1016A0001AE60F2D00D0C9E0802352461B031A42D0
:1016B00002D01C4200D192E08024534624031C43F4
:1016C00024034246240B3EE69B46032380460C251A
:1016D000029301E600239A469B46013304250293B8
:1016E000FAE501210D430A2D00DD4BE6494600983D
:1016F0004140C9B20391022D00DC96E00023002492
:10170000012001930CE649460223009A2B435140E5
:10171000CAB203920A2B00DD34E6002D57D1039B99
:10172000994600240022494B0EE658460121C91A69
:10173000382900DD2FE61F2956DD1F22544652426C
:10174000D31ADC40202907D0414B42469C465346E1
:10175000604483401A43904642460721531E9A41F3
:101760000B00224313400024114209D00F231340E1
:10177000042B5DD0111D91429B410A005B425B0727
:10178000D2081A430023DFE5039B9946FAE5019846
:1017900000F038FD02000300153220331C2A00DC63
:1017A00038E7019A083882403FE700F02BFD152307
:1017B0009C4684440200634620321C2B00DC58E720
:1017C000002398462300083883409A4662E71D00AC
:1017D0000023002402200193A2E5029032E61C437C
:1017E000009B019A9946AEE51A4B5246C3184046F3
:1017F0009A40C8400243404698400300581E834127
:1018000054461A43CC40530709D00F231340042BEE
:1018100005D0131D934292415242A4181A0023028C
:1018200008D50123002400228EE5894600248BE59B
:101830000023A5E763076402240BA1E7009BA246EF
:101840009946019B984637E70DFCFFFFFF07000014
:101850003E0400001E040000F0B557464E464546C3
:10186000DE46E0B583B0009001910C034D00CE0F31
:10187000610A009C5F00640F0C4300990092019381
:10188000C80019037B0D9946019BCC4FDB0F9C468A
:101890004B0A00998046490F1943009B8B46DA009A
:1018A00092466D0DB94500D1BFE001236146594014
:1018B0004B468C46EB1A8E4275D0002B00DCA3E21F
:1018C0004946002900D1CEE0BD4200D100E2012707
:1018D000382B19DC802759463F0439438B461F2B90
:1018E00000DDFAE12027F91A8C4659466746B940CF
:1018F0000F001100D9400F4361468A40511E8A41B2
:101900005946D9401743641AC71BB8428041404228
:10191000241A230200D440E16402640A002C00D19E
:1019200054E1200000F06EFC0300083B2021380049
:10193000CA1AD0409C4002009F4022439D4200DDD5
:10194000A6E1581B0130091A3C008F40C4407B1EA1
:101950009F4113008B4027431F43C2403B001400AC
:101960000025134300D1F7E17B0700D177E30F2374
:1019700038003B40042B04D0381DB842BF417F42A1
:10198000E419230200D468E38C4B01359D4200D159
:10199000F4E08B4B6D051C406D0D6707C0086402B9
:1019A0000743240BECE0002B00DC29E34946002927
:1019B00000D0D6E05946114300D12EE1591E012B2B
:1019C00000D1E6E1BB4200D182E101270B003829BA
:1019D00014DC1F2B00DD3CE22027F91A8C46594607
:1019E0006746B9400F001100D9400F4361468A4055
:1019F000511E8A415946D940174364183F188742FF
:101A0000804140422418230200D4C6E06B4B0135CC
:101A10009D4200D1B2E00121694B7A081C40394057
:101A20000A43E707174364089EE7664B11438A465B
:101A3000EB18002928D066452CD0002B5BD0002D58
:101A400000D12CE15B4666465F07D2081743DD08EC
:101A50003B002B4300D1E2E0802424032C432403E9
:101A6000564D240B8CE05946114300D1D5E0591E48
:101A7000012B00D1B9E1BB4200D1B1E101270B003C
:101A8000382900DD40E72AE76146012779408C4686
:101A90006645D2D1002B00D1C5E0002D00D055E124
:101AA0004B462500054300D112E2591E8C46012BFE
:101AB00000D149E2414DAB4200D18FE201273829E4
:101AC00011DC63461F2B00DD5BE26146202327000B
:101AD0005B1A050098409F40CD40431E9841CC4082
:101AE0002F430743A344BF189742924152425A449E
:101AF00014004D4687E7344F6B1C3B4200D0B6E0E4
:101B00005946230011430F000343002D00D026E166
:101B1000002B00D1C0E1002900D1A1E0831A984632
:101B20005B464045AD41E31A6D425B1B80252D04A9
:101B30002B4200D14BE15B46101A824292411C1BA2
:101B40000700012663465242A41A27431E40002F75
:101B500000D142E12C4200D16DE2194B01251C401D
:101B60001BE7BD4200D13BE10127382B00DD45E7F3
:101B7000802759463F0439438B462AE70024002733
:101B80002D052543F60735433800290003B0F0BC86
:101B9000BB46B246A946A046F0BD7B0704D00F2342
:101BA0003B40042B00D0E7E62B00F808034A670708
:101BB0000743E508934200D14AE7A5E0FF0700008C
:101BC000FFFF7FFF01F8FFFFFE070000380000F075
:101BD00019FB030018331F2B00DCA7E63A00083876
:101BE00082409D4200DD8AE05B1B581C1F2800DC00
:101BF000D8E117001F3BDF40202805D040231B1AE7
:101C00009A40531E9A4117430025002F00D1E5E06A
:101C10007B0700D0ABE62C00C6E7C008C6E700276C
:101C20000024D14DACE7D14F6B1C3B4271D1230056
:101C30000343002D00D04EE15746002B00D1B5E103
:101C4000002F0DD08318834280415C444042241809
:101C5000220200D5C8E11F009846274300D1BCE00E
:101C600043466707DB081F43E50800234CE0831A5F
:101C700098465B464045BF41E31A7F42DB1B1F028B
:101C80007CD447461F4300D1A6E01C00474645E6EA
:101C9000B74CED1A14407B0700D080E784E74B4631
:101CA0002500054366D05F1E012B00D1FCE0AE4D40
:101CB000AB4200D15EE16646382F00DCB4E0012083
:101CC000171ABA4292415B4652424D469C1A20E690
:101CD0006707C0080743E508BAE61F005946203FDA
:101CE000F9400F00202B05D04021CB1A59469940CE
:101CF0000A43924653465A1E93411F4304E6EB1A89
:101D00009B4D15406F07ED082C035D05240B6D0DF1
:101D100036E7954DAB4200D1D6E0821821008242D1
:101D20008041594440420818C707520817434408E5
:101D3000520700D485E10F221D003A40042A00D04A
:101D40001AE6FF08640727430509DDE75B46D2086A
:101D50005F071743DD087BE60027002410E7002B10
:101D600000D0D6E0002900D02FE1802400267E4D4F
:101D7000240305E766465C46D00817E75B46171A5A
:101D8000BA4292411C1B012663465242A41A1E40CD
:101D9000C4E58318834280415C44404225182A02EE
:101DA00000D4DAE0724A5B081540EA071A43690872
:101DB0005B0700D44AE10F231340042B00D1FCE061
:101DC000171D9742A441644202256418ECE6474679
:101DD0001C001F4300D043E7002600250024CFE667
:101DE000C00867070743E50832E6871A5B46B84232
:101DF0008041E41A4042241A230228D46307FF08D2
:101E00001F43E50801237FE7002B00D173E64B4613
:101E10005F1B3B00002D00D142E7382F00DDECE0D6
:101E200080230E001B041C431F2F25DC20252300CC
:101E3000ED1B0100A840AB40F940451EA8410B43F3
:101E4000FC4018435B461B1B9B4639E76646012551
:101E500062E51F005946203FF9408C46202B05D0F3
:101E600040275946FB1A99400A43924657467B1E23
:101E70009F4163461F43C1E53B002500203BDD40F9
:101E8000202F04D04023DB1B9C402043804640464B
:101E9000431E9841284313E700299DD0012663463D
:101EA0005C4690461E40DBE6171A5B46BA429241FA
:101EB0001C1B5242A41A2302C8D46307FF081F4305
:101EC00066460123E5081FE71D000024002757E6AA
:101ED0005C46D0086AE6002B00D137E75346C008BD
:101EE00067070743E508002B00D1B1E580231B03FA
:101EF0001D4208D05946C808184204D1D2084907E3
:101F00000A43170005007B0FFF00FF085B071F4314
:101F10009EE5C00863071843E508002953D08023D5
:101F20001B031D420AD05946CC081C4206D101268B
:101F300063462500D008490708431E40470FC000EC
:101F4000C0087F07074383E58318934292415C44AE
:101F50005242A5182A0200D524E76F07DB081F4369
:101F6000ED080123D0E6C046FF070000FE07000091
:101F7000FFFF7FFF5B46D2085F0766461743DD0819
:101F800066E52500203BDD406346202B05D040233D
:101F900061465B1A9C402043804647467B1E9F411A
:101FA0002F43A0E520210027091AD2E4002F00D1F9
:101FB00013E75C4617000025F6E5D708490702231A
:101FC0000F432D09A0E6070042E55B4601265F07A7
:101FD000DD086346D20817431E4039E55B46D20848
:101FE0005F071743DD0833E51E4ADB082240570729
:101FF000520201251F43140BC2E50E0001205FE6CB
:10200000002B0DD04B465B1B9C46002D00D148E5B4
:102010000127382B00DD66E580231B041C4350E5B7
:102020006B1C114D2B4200D073E65946230011431F
:102030008A46034300E66707C00800230743E50814
:1020400062E66407FF08274305095DE6D2084907F1
:1020500011430F0002232D0956E60700A4E53800BE
:102060008FE4C046FFFF7FFFFE0700000B00020069
:1020700070B5164D0C0382B0490000200092019308
:10208000240B490DDE0FA94204DD1148814203DD16
:10209000104BF01802B070BD8020400320430E4C5E
:1020A000641A1F2C08DD0D4B5B1AD8400300584200
:1020B000002EEFD11800EDE7094B009A9C46030073
:1020C00061448B40E2401343F1E7C046FE03000049
:1020D0001D040000FFFFFF7F330400001304000015
:1020E000EDFBFFFF70B5002816D0C317C5185D4083
:1020F000C40F280000F086F8104B1B1A5B055B0D1F
:102100000A2814DC02002E00153296400B22121A07
:10211000D5402D032D0B03E00024002300250026CD
:102120001B052B43E40723433000190070BD0B3817
:1021300085402D0300262D0BF2E7C0461E0400004B
:1021400010B5041E10D000F05DF80E4B1B1A5B0595
:102150005B0D0A280FDC0B222100121AD14015302A
:102160000A038440120B01E0002300221B051343E5
:102170002000190010BD22000B38824012030024F9
:10218000120BF3E71E0400008446100062468C46E2
:102190001900634600E0C0461FB500F005F90028AD
:1021A00001D40021C8421FBD10B500F049F84042DB
:1021B000013010BD10B500F0F7F8002801DB002059
:1021C00010BD012010BDC04610B500F0EDF800288C
:1021D00001DD002010BD012010BDC04610B500F08B
:1021E00073F8002801DC002010BD012010BDC0469E
:1021F00010B500F069F8002801DA002010BD0120B8
:1022000010BDC0461C2101231B04984201D3000CC1
:1022100010391B0A984201D3000A08391B09984259
:1022200001D30009043902A2105C40187047C0466F
:10223000040302020101010100000000000000008F
:10224000F0B55746DE464E464546E0B50D00040063
:10225000E80F83460903D80F090B824619488C46BC
:102260001F0369005E00490D3F0B760D814218D0B7
:1022700086420FD00120B1420DD1BC450BD1944212
:1022800009D1D3451CD0002905D160462043431E07
:10229000984100E00120F0BCBB46B246A946A046EA
:1022A000F0BD01208E42F6D1614639430F0017433D
:1022B0002743F0D15B465246981A431E9841EAE7FD
:1022C0000020E8E7FF070000F0B557464E464546B8
:1022D000DE46E0B50D000E034900490D8A46DF0FCA
:1022E000E90FBC4683B02F4F04008046019158008F
:1022F00019039146360B090B400DBA451DD0B84263
:102300000DD05746002F2AD13443002824D10A4348
:1023100036D0002C41D163465800013815E01143F6
:1023200038D15346002B01D12643F4D0019B63459D
:1023300007D1019B5800013807E026432AD15045B8
:1023400021D00120019B5F42384303B0F0BCBB4663
:10235000B246A946A046F0BD002CDCD0E6E7002836
:10236000EFD0019B6345ECD18245EADCE1DB8E4294
:10237000E7D8DED1C845E4D80020C845E5D2D8E783
:10238000002CE2D0DDE7114304D1019B6345D8D195
:102390000020DAE702204042D7E7019B6345E6D000
:1023A000CFE7C046FF070000F0B557464E4645460A
:1023B000DE46E0B50D000E034900490D8A46DF0FE9
:1023C000E90FBC4683B02E4F0400804601915800AF
:1023D00019039146360B090B400DBA451ED0B84281
:1023E0000DD05746002F27D13443002833D10A435C
:1023F00034D0002C40D163465800013815E0114319
:1024000012D15346002B01D12643F4D0019B6345E2
:102410001DD00120019B5F42384306E0264303D1D3
:102420005045F6D111431CD0022003B0F0BCBB468E
:10243000B246A946A046F0BD0028EAD0019B6345FC
:10244000E7D18245E5DC02DB8E42E2D80ED0019B6B
:1024500058000138E9E7002CCDD0D7E7002CE4D0B4
:10246000D7E7019B00206345DFD0D2E7C845D0D82D
:102470000020C845D9D2EAE7019B6345E4D0C8E70C
:10248000FF070000F8B54E4645465746DE46752321
:10249000E0B56749CA5C13019B1A1A01D21A7F235F
:1024A000C85C120103011B1A9B00D218614B551C1A
:1024B0001D60614B1C681F68240C1868A3069B0FE5
:1024C0009E009B190F265B0034401B19DBB21C01D8
:1024D000E31A1C01E31A1B019C46072399463F0A95
:1024E000FFB23C091C40A30098464B464444374089
:1024F0006400E419C0B227013C1B07093B409F0060
:10250000DB190640A4005B0064449B19E318581CC7
:1025100081464C464948D21A04609320095C0C015C
:10252000641AA400944218D2454B464A1B7812788C
:1025300013430CD08023444A1B0691690B430121AD
:102540009361424B1A688A431A6000225A63F0BCB6
:10255000BB46B246A946A046F8BD80233A4A1B02B4
:10256000916928000B439361384B012298461B6800
:102570009246134342461360D36A9B46FFF7E0FD41
:1025800006000F00281BFFF7DBFD32003B00FEF7C3
:1025900065FBFDF72FFF84B24846FFF7D1FD3200FF
:1025A0003B00FEF75BFBFDF725FF534680B2191B8E
:1025B000001BFDF733FE80B2FFF7C2FD0022244B63
:1025C00004000D00FEF762FEFDF76CFF214A224B6E
:1025D000FEF75CFE214A224BFFF73EF9FDF728FF8C
:1025E000204A214BFEF752FE204A06000F00200031
:1025F00029001F4BFEF74AFE02000B003000390095
:10260000FDF766FF1B4A1C4BFDF762FF5B460400AB
:10261000581C0D00FFF794FD0B000200290020005C
:10262000FEF734FEFDF7E6FE434680B258638EE7C0
:1026300000000020B001002000280040AC01002074
:10264000C2010020C3010020000800500008014022
:1026500080842E41EC51B81E85EB0140699EBEC6B8
:10266000B7D1D3436BC7176E6A80243D4DA114B90F
:10267000B0CB633E063D14CA51F15B3D2021C02022
:10268000124B00061A688A431A601A6820310A43FE
:102690001A601A683E390A431A601A6801390A43F7
:1026A0001A600B4B1A688A431A600A4A0A495A6030
:1026B0000A6A1202120A02430A6200229A60073270
:1026C0001A600B6A1B021B0A0B6270470020024053
:1026D00010E000E0FF7C000000ED00E03549364BE3
:1026E0000A681A4080231B0113430B600821334BF7
:1026F0001A688A431A601A6831490A401A600C2223
:10270000D9680A40042A13D001211A680A431A60C2
:1027100003311A681142FCD00321DA688A43023976
:102720000A43DA600C222549CB681340042BFBD105
:10273000224B2449DA680A40DA60DA6822490A4002
:10274000DA60D968214A11408022D2030A43DA6054
:10275000D9681F4A11408022D2020A43DA60DA683F
:102760001C490A40DA608022D96812020A43DA6002
:10277000DA6819490A40DA60DA6818490A40F02133
:10278000DA60DA688A43DA608022196852040A4300
:1027900080211A6089041A680A42FCD00321DA6891
:1027A0000A43DA600C220549CB6813400C2BFBD19D
:1027B0007047C04600700040FFE7FFFF0010024076
:1027C000FFFEFFFFFFFFFF8FFFFFFFF0FFFF3FFF59
:1027D000FFFFC3FFFFFFFEFFFFC7FFFFFFF8FFFF85
:1027E0008022254B5205996B24480A439A63802224
:1027F0000168520011430160196D214801401965BB
:102800008021186DC90001431965196D0A438021A3
:102810001A6589001A6D0A42FCD0196D194A1140D7
:10282000802252020A431A658022196DD2020A439D
:102830001A65CA228021144B5A62773A5A62DA68C2
:102840000A43DA604039DA681142FCD019680F4A4D
:1028500011400F4A0A431A6059680E4A11400E4A45
:102860000A4380215A60DA688A43DA60FE225A629B
:102870009A3A5A627047C046001002400070004009
:10288000FFFEFFFFFFFFFCFF002800408080C0FF2D
:1028900000361700C00000FF012424000220F0B51C
:1028A000C646354A00B5D36A34490343D362344B34
:1028B00008271C6810250C40802109012143202491
:1028C000196059686026A1435960C0219C680901BC
:1028D000214399601C6A2B490C40A021C903214364
:1028E000042419620121536B23435363264B1A6856
:1028F0008A431A601A6882431A601A68A2431A60EF
:102900001A68BA431A601A68AA431A601A687035BE
:10291000B2431A601A68A8462A431A601A681B4D07
:102920002A401A60DA6880250A43DA601F229A6218
:10293000174A6D03DA62174A156003259A69AA439C
:102940009A619A69A2439A619A696C343A439A618E
:102950009A69A243444632439A619A69A2439A61B2
:102960001A6A0A431A621A6A02431A621A688A4386
:102970001A6080BCB846F0BD00100240FFF3FFFFB4
:1029800000040050FFFF0FFF00080140FFFCFFFFA5
:102990000F27000000E100E00721F0B557464E4642
:1029A0004546DE46AD4AE0B5D36AAD480B43D36237
:1029B000A0238022DB051968D20101400A4380214F
:1029C0001A605A680C248A435A609A6802250240A9
:1029D00004209A60A34AA44E1168A14301431160E8
:1029E00051683C30A943516091688146A143916090
:1029F00080211F6849013740394319605968C02454
:102A000081435960996899483140996080211F68D5
:102A1000974EC90037403943202719605968A446AA
:102A2000B9435960996882463140996080211F6896
:102A3000904EC90337403943196059688E4F394069
:102A4000596099683140996080211E68C90206402A
:102A5000314319605968894E31405960996803269D
:102A60000140996001211768B7430F431760576809
:102A70008F4357609768B74397601768A7434C46E2
:102A8000274317605768383CA046A7436446576001
:102A90009768A74397601F68A7434C46274344465F
:102AA0001F605F68A74364465F609F68A7439F609D
:102AB0001C68734F3C40A04680246400A4464446F2
:102AC00065462C431C605C68F03DAC435C609C68D0
:102AD0006C4D3C409C601C682C40A34680246404E0
:102AE000A0465C46404604431C605C68A046664CB9
:102AF000A3464446584604405C609C682000284039
:102B00009860146810253C40A04664464046044343
:102B100014605468AC4354609468274097601F6801
:102B20005A4CA4463C4080277F0327431F605F68C0
:102B3000574C274064465F609F6827409F601F682E
:102B4000544CA4463C4080277F0227431F605F68A7
:102B5000514C274064465F609F6827409F604F4FFD
:102B60003C68A400A408A4468024E405A04664466A
:102B700045462C433C607C68A446494CA0466446CC
:102B800045462C407C60BC680225A400A408BC60BB
:102B90000F241F682800B7431F605F688F435F6082
:102BA0009F683E433F4F9E60BE68A643BE603E4E58
:102BB00034680C433460F46821430C24F1601968D4
:102BC000A14319605968A9435960996821439960E4
:102BD000F0210400BD688D43BD6035680543356054
:102BE000F56802302C433025F4601C68AC431C604F
:102BF0005C6884435C609C682C439C60BB682B4C85
:102C000023405446BB60336803433360F368034397
:102C1000F3601368194823401360536803405360FE
:102C2000C02390681B03034393603B698B433B6164
:102C3000802332689B001A433260F26820271343D6
:102C40004A46F3601A4B70391F601A601960F0BC75
:102C5000BB46B246A946A046F0BDC04600100240A1
:102C6000FF3FFFFF00040050FFCFFFFFFFFFF3FF18
:102C7000FFF3FFFFFFFF3FFFFFF7FFFFFFFDFFFF3A
:102C8000FFFCFFFFFFFFFFFCFFEFFFFFFFFFCFFF9A
:102C9000FFFBFFFFFFFFFCFFFFFEFFFF00080050F0
:102CA000FF7FFFFF0000014000040140FFF0FFFF35
:102CB00000E100E0A0238022DB0530B59C6912030F
:102CC00022439A6180229C69520314439C618024B0
:102CD0009D6964052C439C61AD4CA5692A43A261A2
:102CE00002295FD052D8002957D010219A690A438F
:102CF0009A61A0238022DB05996912040A4380218E
:102D00009A61A34A890294692E38214391618021F6
:102D10009C69C9032143996180219C6989032143EE
:102D2000996180219C6909052143996180219C69F1
:102D3000890421439961802391695B020B4393616C
:102D4000802391691B030B43C0B2936131281CD8C7
:102D5000904B80001B589F46A02380210220DB055A
:102D60009A690A439A618A4A916901439161802173
:102D7000986909010143996180219869890001439B
:102D80009961012193690B43936130BD0329B0D14F
:102D90001022A3691343A361ABE708219A690A4390
:102DA0009A61A6E78022996952010A439A61A0E7D5
:102DB000A0222021D20593690B439361E5E7A0236C
:102DC00080210220DB059A690A439A61704A916961
:102DD0000143916180219869090101439961802132
:102DE0009869890001439961082193690B439361B4
:102DF000CBE7A02380210220DB059A690A439A6170
:102E0000634A91690143916199693E300143996137
:102E100099692038AEE7A02380210220DB059A695A
:102E20000A439A615A4A91690143916199693E3016
:102E3000014399619969203801439961802198691A
:102E4000090197E7A02380210220DB059A690A4344
:102E50004F499A618A6902438A6140219A690A430B
:102E60009A6192E7A0238021DB059A690A439A615F
:102E70009A6940390A439A619A6920390A439A61EA
:102E80008022996912010A439A618022996992000D
:102E90000A4301219A613E4A93690B43936174E7A7
:102EA000A0238021DB059A690A439A619A69403917
:102EB0000A439A619A692039E5E70221344B4020A0
:102EC0009A690A439A61A022D205916901439161EE
:102ED0008021906989000143916101219A690A4327
:102EE0009A6152E7A02380210220DB059A690A43F8
:102EF0009A61274A91690143916199693E30014382
:102F00009961996920383AE7A02380210220DB05E6
:102F10009A690A439A611E4A9169014391619969CC
:102F20001E300143996180219869090127E7022138
:102F3000174A93690B439361A022D20593693E31EE
:102F40000B43936121E7A02380210220DB059A69CE
:102F50000A430F499A618A6902438A6140219A694A
:102F60000A439A619A6920390A439A6180229969D1
:102F700012010A439A618022996992000A439A6178
:102F800003E70821024A93690B439361FDE6C046BB
:102F900000040050403D0008F0B5D6464F46464676
:102FA0000024C0B5E1B220200134FFF783FE042CD9
:102FB000F8D18023344A1B029169A0250B430121DB
:102FC0009361324A324C1368ED050B431360FA23C8
:102FD0005B0098468023DB049A468023DB009946F9
:102FE000FA262C4FB60026E04A461343AB61206810
:102FF0002949FDF70FF9B14202D20022234B5A634F
:1030000020682649FDF706F9254B994201D11F4B4F
:103010005E6320682149FDF7FDF8224B994203D1F8
:10302000FA221A4B12015A6320681C49FDF7F2F884
:103030001D4B994223D020681849FDF7EBF8B9429F
:103040000BD0FA2120688900FDF7E4F8AB6941450F
:10305000CAD352461343AB61C9E780230A4A1B0611
:1030600091690B4301219361084B1A688A431A60E6
:1030700000225A63E0BCBA46B146A846F0BD034BF5
:10308000064A5A63ACE7C0460008005000080140F9
:10309000B80100206F1700008813000070170000AF
:1030A000DC050000B80B000094110000F0B5CA2345
:1030B000D6464F4646468022444CC0B56362773BB5
:1030C0006362E3681343E360403AE3681A42FCD06A
:1030D0003F4E0A21F37E27689A462523F35C50462B
:1030E00099462F23F35C9846FDF70EF80A21C5B2E6
:1030F0005046FDF78FF8C9B209042D0540460D432F
:103100000A21FDF787F8C9B248460D430A21FCF7AA
:10311000FBFFC0B2000305430A214846FDF77AF8D9
:10312000C9B2090240460D430A21FCF7EDFF294BC5
:10313000C0B21F404D23000105433D432560F35CB1
:103140000A219A464323F35C676899463923F35C66
:10315000984657234046F55CFDF75CF86D03C9B20D
:1031600050460D430A21FCF7CFFFC0B200050543CE
:103170000A215046FDF74EF8C9B2090448460D43EE
:103180000A21FCF7C1FFC0B2000305430A214846EB
:10319000FDF740F8C9B2090240460D430A21FCF789
:1031A000B3FF80220C4BC0B200011F4005433D43DA
:1031B0006560E3689343E360FE2363629A3B636266
:1031C000E0BCBA46B146A846F0BDC0460028004063
:1031D000000000208080C0FFC00000FFF0B5012685
:1031E0004746CE467642904680B5002337003200EF
:1031F000B446B146204D04E00133DBB20A351F2B43
:1032000025D001242C578442F6D15EB27C1C00D11B
:10321000370000242C578C4213D0541C27D064460E
:10322000013400D1B4460133DBB20A351F2B0ED076
:1032300001242C578442DFD100242C575EB28C42EB
:10324000EBD10133DBB232000A351F2BF0D16346DC
:10325000013300D067464B46013300D04E4643460B
:10326000013306D0F8B2C0BCB946B046F0BDB14695
:10327000D9E7F0B2F7E7C04600000020202170B582
:10328000214AFF31214D525C21492B6809885B1A84
:10329000934204D901211F4B186801422ED01E49C8
:1032A0002B6809885B1A9A4204D20221194B1868CC
:1032B00001421FD019492B6809885B1A9A4204D22F
:1032C0000422144B19680A4210D0154A154B147881
:1032D0001B781C43144B1B781C4306D128681349E8
:1032E000FCF798FF124B99420CD070BD19680A4345
:1032F0001A60EAE7186801431960DBE718680143C0
:103300001960CCE72C60F0E700000020B801002035
:10331000CC01002000040140CA010020CE010020A1
:10332000C8010020C7010020C901002010270000AB
:103330000F270000F0B5C64603240F2700B5FFF79E
:103340009DFF814B0A2198461A68120CD2B21309CC
:103350002340980018183A4040008018FCF7D4FE2B
:1033600043467A4E3030C5B235701B680A211B0CBB
:10337000DBB21A091440A00020183B404000C018DE
:10338000FCF748FF43460724303171701A680A2160
:10339000120AD2B213092340980018183A4040008C
:1033A0008018FCF7B1FE43463030B0701B680A212C
:1033B0001B0ADBB21A091440A200A4181F406000C7
:1033C000C019FCF727FF624B624A1B781278303134
:1033D0001343614AF1701278134302D001225F4B0C
:1033E0001A700C235E4FFF33FB5C5E4C984619004D
:1033F0002068FCF70FFF4346013B994202D10022AF
:10340000564B1A700320504B1A689846120CD2B2D1
:103410001309034099008C460F2163445B000A4066
:103420009B18052B45D943461B681B0CDBB21A09B8
:103430001040820080180A0040001A4080181528A9
:1034400037D8BB23A022FF5CD2059169012F40D061
:1034500080235B040B43936123689B073FD00323C6
:1034600022681340012B45D0032322681340022B0E
:1034700049D02368DB439B074DD0FA212068C9005F
:10348000FCF7C8FEFA23A0229B00D205994247D937
:1034900080239169DB040B439361002F46D0FEF734
:1034A000F1FF314B187843425841C0B280BCB84656
:1034B000F0BD2A4B1B78002BC3D10223FF33FB5CEA
:1034C000002BEED1BB23A022FF5CD2059169012F16
:1034D000BED145330B43936123689B07BFD1302D89
:1034E000BDD000212800FFF7E5FB0323226813402D
:1034F000012BB9D101217078FFF7DCFB032322688F
:103500001340022BB5D10221B078FFF7D3FB23681B
:10351000DB439B07B1D10321F078FFF7CBFBACE78E
:10352000916918330B439361002FB8D180230F4A60
:103530001B0691690B43012193610D4B1A688A4365
:103540001A605F63ADE7C04600280040A401002078
:10355000C5010020C4010020C6010020C0010020D8
:1035600000000020B8010020C10100200008005028
:1035700000080140F8B50D0000281BD001303FD0F5
:10358000634E644C31788A005018400023189C46E2
:103590009B78002B00D084E02156013405E00133F4
:1035A000DBB20A341F2B00D197E00022A2568A42D8
:1035B000F5D13370584B1B78002D0AD1002B4AD11E
:1035C000534B544C187883001B185B000333E018EE
:1035D000F8BD4F4E3178002B2FD050484D4C03781A
:1035E0008A0052185200A218567A5B19DBB2127A7E
:1035F0000370B34262D8934200D387E006702CE098
:10360000454F3B78002B62D1414E424C31788A00C5
:10361000521801215200A2185156002905DC09E078
:103620000133DBB20A341F2B6ED00022A2568A422D
:10363000F6D13370002D4ED0354E01203278354C06
:1036400093009B185B00E156E31818562A00FFF719
:10365000C5FD3070B7E7314806782027304C0A2185
:1036600030002770FCF750FDC5B2632E0DD867708F
:10367000092E26D93035EDB20A213000A570FCF7AD
:10368000C9FD30312000E170A2E764213000FCF771
:103690003BFD303060700A212800FCF7BBFDCDB245
:1036A000E8E71D4F3B78002B0DD101333B7063469B
:1036B0001A48DB790370002DCED092E71600027015
:1036C000CBE72025D8E7624614480378D37100235E
:1036D0003B70002DB0D13B7870E7102911D01E2926
:1036E00005D0092900D065E7FFF7E0FC62E7FFF7A6
:1036F00021FE002800D15DE7FFF71CFE0028F6D16F
:1037000058E7FFF749FC55E7E03392E71E00A4E7CE
:10371000BE01002000000020BD010020BC010020EF
:10372000A8010020F0B5DE4657464E464546E0B5B6
:10373000A02485B0FEF7A2FFFEF7D0FFFFF72CF91B
:10374000FFF74EF8FFF7AAF88022E405A369D20438
:103750001343A3618023A2695B041343A361802305
:10376000594A1B06916920200B4393612021FFF7E2
:10377000A1FA00210020FFF7FDFE0700534B544E35
:103780009B46544B9A46544B9946544B0193544B89
:103790000293544B03938022A369D2041343A36181
:1037A0008023A2695B041343A3618023464A1B065E
:1037B000916900250B439361FFF760FD5B461B7821
:1037C000002B02D05B461D70013D53461B78002B39
:1037D00004D000235246052513706D424B461B78DA
:1037E000002B03D000234A4601251370019B039848
:1037F0001A780178029B1B7800292CD0002105251E
:103800000170002A30D1002B2CD00023029A1370B3
:10381000013B9846002F02D0380000F0DBF9290068
:103820004046FFF7A7FE071E45D033689B0723D00D
:10383000032332681340012B27D00323326813403F
:10384000022B2BD03368DB439B072FD0380000F0CE
:10385000C1F900279FE7002A06D1002BD5D1002D02
:10386000E3D000239846D5E7002201990A70002B87
:10387000CBD101339846CDE700213878FFF71AFA0B
:10388000032332681340012BD7D101217878FFF749
:1038900011FA032332681340022BD3D10221B878E6
:1038A000FFF708FA3368DB439B07CFD10321F87891
:1038B000FFF700FACAE7012005B0F0BCBB46B246EC
:1038C000A946A046F0BDC04600080050C501002032
:1038D000B8010020C2010020C6010020C401002060
:1038E000C1010020C3010020064A136801331360A0
:1038F000054B1A88002A03D01A88013A92B21A801E
:103900007047C046B8010020B401002001223C4BA2
:1039100010B559690A4217D019683A48914319609D
:1039200039490C68048039480478002C44D10C686B
:10393000374902700C80D9689143D96099680A436D
:103940009A6001222E4B5A6102222D4B59690A427C
:1039500018D019682F48914319602B490C680480CE
:103960002D480478002C0ED10C682C490C800121C4
:103970000170D9689143D96099680A439A6002221C
:103980001F4B5A6110BD00240470986890439860E2
:10399000D8680243DA600A682A21204BFF311B886D
:1039A000D21A1F4B5B5C9B009A4222D901221D4B0D
:1039B0001C701D4B1A70E2E7002404709868904355
:1039C0009860D8681043D8602A20114B09681B887A
:1039D000FF30C91A124B1B5C9B00994204D9134B50
:1039E0001C70134B1A70ACE7114B1C700F4B1A7004
:1039F000A7E701220C4B1C700A4B1A70BFE7C046A8
:103A000000040140CC010020B8010020C8010020C2
:103A1000D2010020CA010020C7010020D0010020EF
:103A200000000020C4010020C1010020C5010020C9
:103A3000C201002004221F4B10B559690A4218D058
:103A400019681D48914319601C490C6804801C4882
:103A50000478002C0ED10C681A490C8001210170E9
:103A6000D9689143D96099680A439A600422114B3E
:103A70005A6110BD00240470986890439860D8681B
:103A80000243DA600A682A210E4BFF311B88D21AE2
:103A90000D4B5B5C9B009A4205D901220B4B1A70BF
:103AA0000B4B1C70E2E70122094B1A70074B1C708C
:103AB000DCE7C04600040140CE010020B801002030
:103AC000C9010020D401002000000020C301002013
:103AD000C60100208022134B92005969114217D071
:103AE000196811480140196010490969114210D044
:103AF000D9680A43DA609A6802409A6000220C4B47
:103B00001A708023074A9B00536111680B431360AE
:103B1000704799680A439A60DA680240DA600122C5
:103B2000EDE7C04600040140FFFDFFFF0004005028
:103B3000BF0100200122044B19690A4202D0196911
:103B4000914319617047C046000801407047C04664
:103B500013488546FFF7FAFF12480168090E124A1A
:103B6000914205D111481249016012481249016081
:103B700012481349134A002302E0D458C4500433B6
:103B8000C4188C42F9D3104A104C002301E0136092
:103B90000432A242FBD300F037F8FFF7C3FDFEE783
:103BA00000080020040000001F0000003410024044
:103BB00001000000000001400000000000000020A3
:103BC00088010020103E0008880100201803002012
:103BD000FEE7000010B5034B0100186800F03AF84A
:103BE00010BDC0463801002010B5024800F030F882
:103BF00010BDC0461403002010B5024800F029F89B
:103C000010BDC0461403002070B500260C4C0D4DAD
:103C1000641BA410A64209D1002600F065F80A4CE6
:103C20000A4D641BA410A64205D170BDB300EB5829
:103C300098470136EEE7B300EB5898470136F2E7B4
:103C4000083E0008083E00080C3E0008083E000838
:103C50007047704770B505000C1E10D0043C2368F7
:103C6000002B00DAE4182800FFF7BEFF1D4A136896
:103C7000002B05D1636014602800FFF7BDFF70BD05
:103C8000A34208D9206821188B42F3D119685B68D8
:103C900009182160EEE71A005B68002B01D0A342EF
:103CA000F9D911685018A0420BD120680918501892
:103CB00011608342E0D118685B684118116053605D
:103CC000DAE7A04202D90C232B60D5E7206821183F
:103CD0008B4203D119685B680918216063605460E6
:103CE000CAE7C046D8010020F8B5C046F8BC08BCF9
:103CF0009E467047F8B5C046F8BC08BC9E46704763
:103D0000900E00084E0D00082C0D0008180D00083C
:103D10002C0D0008320E00082C0D0008180D0008AC
:103D20004E0D00084E0D0008320E0008180D000858
:103D3000100D0008100D0008100D0008540E0008AA
:103D4000822F00088A2D0008462F00082E2F000819
:103D5000082F0008E42E0008BA2E0008A02E000844
:103D6000642E0008442E0008162E0008F22D0008CC
:103D70008A2D00088A2D00088A2D00088A2D000847
:103D80008A2D0008BE2D00088A2D00088A2D000803
:103D90008A2D00088A2D00088A2D00088A2D000827
:103DA0008A2D00088A2D00088A2D00088A2D000817
:103DB0008A2D00088A2D00088A2D00088A2D000807
:103DC0008A2D00088A2D0008582D00088A2D000829
:103DD0008A2D00088A2D00088A2D00088A2D0008E7
:103DE0008A2D00088A2D00088A2D00088A2D0008D7
:103DF0008A2D00088A2D00088A2D00088A2D0008C7
:083E00008A2D0008B02D000816
:043E0800E9000008C5
:043E0C00C1000008E9
:103E100000FF0050505050000000010000505F3083
:103E20005F000000020101505F30301100180301F3
:103E300001505F303124003B040101505F303200FB
:103E4000003B050101505F303301011F06010150A5
:103E50005F303404010C070101505F30350000E78A
:103E6000080101505F3036010107090100505F3041
:103E7000370000000A0000505F315F0000000B0AAD
:103E800001505F31300600170C0A01505F313100DC
:103E9000003B0D0000505F325F0000000E0D01502E
:103EA0005F32300F00E70F0D01505F3231E0E0E08C
:103EB000100D00505F3232000000110000505F33DF
:103EC0005F000000121101505F3330010001131137
:103ED00001505F3331050018141101505F33323245
:103EE000003B151101505F333300000716110050DD
:103EF0005F3334000000170000505F345F000001A2
:103F0000181701505F3430000003191701505F3457
:103F1000310000011A1701505F34320500E71B0021
:103F200000505F355F0000001C1B01505F353037CB
:103F300000E71D1B01505F35316400E71E00005093
:103F40005F365F00000000003C0100200000000020
:103F5000DC01002044020020AC0200200000000030
:103F60000000000000000000000000000000000051
:103F70000000000000000000000000000000000041
:103F80000000000000000000000000000000000031
:083F9000000000000000000029
:0400000508003B5163
:00000001FF
