:020000040800F2
:1000000000080020D13A0008513B0008513B00088D
:1000100000000000000000000000000000000000E0
:10002000000000000000000000000000513B00083C
:100030000000000000000000513B00085538000897
:10004000513B000800000000513B0008513B0008F4
:10005000513B000879380008A1390008413A0008EE
:1000600000000000513B0008513B0008513B0008D4
:10007000513B0008513B000800000000A13A000875
:100080000000000000000000000000000000000070
:10009000B53A00080000000000000000513B0008D5
:1000A00000000000513B00080000000000000000BC
:1000B000513B0008513B0008000000000000000018
:1000C00010B5064C2378002B07D1054B002B02D02E
:1000D000044800E000BF0123237010BD3801002058
:1000E000000000009C3B0008044B10B5002B03D01F
:1000F0000349044800E000BF10BDC04600000000F6
:100100003C0100209C3B0008002243088B4274D332
:1001100003098B425FD3030A8B4244D3030B8B4208
:1001200028D3030C8B420DD3FF22090212BA030C11
:100130008B4202D31212090265D0030B8B4219D3F2
:1001400000E0090AC30B8B4201D3CB03C01A524112
:10015000830B8B4201D38B03C01A5241430B8B425A
:1001600001D34B03C01A5241030B8B4201D30B0343
:10017000C01A5241C30A8B4201D3CB02C01A52416A
:10018000830A8B4201D38B02C01A5241430A8B422D
:1001900001D34B02C01A5241030A8B4201D30B0216
:1001A000C01A5241CDD2C3098B4201D3CB01C01A30
:1001B000524183098B4201D38B01C01A524143093A
:1001C0008B4201D34B01C01A524103098B4201D328
:1001D0000B01C01A5241C3088B4201D3CB00C01A95
:1001E000524183088B4201D38B00C01A524143080D
:1001F0008B4201D34B00C01A5241411A00D2014632
:10020000524110467047FFE701B5002000F0F0F8BA
:1002100002BDC0460029F7D076E7704703460B437E
:100220007FD4002243088B4274D303098B425FD3EF
:10023000030A8B4244D3030B8B4228D3030C8B421B
:100240000DD3FF22090212BA030C8B4202D3121201
:10025000090265D0030B8B4219D300E0090AC30BD6
:100260008B4201D3CB03C01A5241830B8B4201D383
:100270008B03C01A5241430B8B4201D34B03C01A6C
:100280005241030B8B4201D30B03C01A5241C30AE4
:100290008B4201D3CB02C01A5241830A8B4201D355
:1002A0008B02C01A5241430A8B4201D34B02C01A3F
:1002B0005241030A8B4201D30B02C01A5241CDD2E4
:1002C000C3098B4201D3CB01C01A524183098B422F
:1002D00001D38B01C01A524143098B4201D34B0118
:1002E000C01A524103098B4201D30B01C01A52417B
:1002F000C3088B4201D3CB00C01A524183088B4202
:1003000001D38B00C01A524143088B4201D34B00EA
:10031000C01A5241411A00D201465241104670475C
:100320005DE0CA0F00D04942031000D34042534061
:1003300000229C4603098B422DD3030A8B4212D321
:10034000FC22890112BA030A8B420CD38901921153
:100350008B4208D3890192118B4204D389013AD090
:10036000921100E08909C3098B4201D3CB01C01A65
:10037000524183098B4201D38B01C01A5241430978
:100380008B4201D34B01C01A524103098B4201D366
:100390000B01C01A5241C3088B4201D3CB00C01AD3
:1003A000524183088B4201D38B00C01A5241D9D2EB
:1003B00043088B4201D34B00C01A5241411A00D26C
:1003C0000146634652415B10104601D34042002B68
:1003D00000D54942704763465B1000D3404201B5E7
:1003E000002000F005F802BD0029F8D016E770479C
:1003F0007047C04670B500220C4B04000D0001F0A0
:10040000BBFD002804D12000290001F0F3FC70BDE1
:10041000064B00222000290001F050F901F0EAFC0F
:1004200080231B069C466044F1E7C0460000E04183
:10043000F0B557464E464546DE46E0B583B00090DF
:1004400001910C034F00CE0F610A009C1D03640F45
:100450000C43009900920193C80059004B0D994636
:10046000009A019B6D0AD90F530F2B439A46009BAC
:100470007F0DDA0094464A46B046BA1A8E4200D141
:10048000B0E0002A00DC78E04946002900D1E9E02C
:10049000C9498F4200D195E10125382A16DC802117
:1004A000534609040B439A461F2A00DDE7E1202149
:1004B00055468B1A61469D40D1400D436146994097
:1004C0004B1E99415346D3400D43E41A451BA842A5
:1004D00080414042241A230200D40FE16402640ADE
:1004E000002C00D139E1200001F050FD0300083B51
:1004F00020212800CA1AD0409C4002009D4022437F
:100500009F4200DD73E1D81B0130091A2C008D4099
:10051000C4406B1E9D411300C2408B402543002701
:1005200014001D436B0709D00F232B40042B05D06B
:100530002B1DAB42AD416D4264191D00230200D456
:100540002DE19D4A0137974200D1D3E046469B49B1
:10055000ED0821404A072A437C054D022D0B640D0E
:1005600024052C43F60734431000210003B0F0BCEF
:10057000BB46B246A946A046F0BD002A00D184E0A1
:100580004A46D21B002F00D06DE12500054300D163
:1005900027E1561E012A00D13BE2874DAA4200D135
:1005A0006AE20125382E12DC32001F2A00DDF8E154
:1005B00020262500B61A07005346B040D440B54067
:1005C000D740461EB0411B1B9A463D430543624639
:1005D000551BAC459241534652420E004F46884649
:1005E0009C1A78E7002A00DC8EE04946002975D184
:1005F00061465346194300D1F6E0511E012A00D14D
:1006000091E16D4DAA4200D1DCE00125382914DCCE
:100610000A001F2A00DDA2E120215346891A8B40DF
:100620001D006346D3401D4363468B4019004B1E9B
:1006300099415346D3400D43E4182D18854280411B
:1006400040422418230259D55B4B01379F4251D0B9
:1006500001215A4B6A081C4029400A43E50715430B
:1006600064085FE761465346194300D1BCE0511E60
:10067000012A00D164E1504DAA4200D16AE101256E
:10068000382900DD22E70A000EE74D4A7D1C15429D
:1006900000D0D0E025006246534605431A43002FA0
:1006A00000D037E1002D00D1A8E1002A00D16AE195
:1006B0006346C51A5346E21AA8429B415B42D31ACD
:1006C0001A0200D403E263461D1AAC459241534618
:1006D00052421C1B0E008846A41A23E736498F425B
:1006E00070D00125382AA8DC8021534609040B4329
:1006F0009A468EE73C000025002231E707232B4075
:10070000002B00D010E793E0002A74D04A46D21B99
:10071000002F00D1C7E02849894500D185E1012596
:10072000382A12DC802109040C431F2A00DDABE1CA
:1007300020212500891A070088408D40D740411E9E
:100740008841D4403D430543A244654465459241F8
:100750005242524414004F4674E7280001F016FC40
:10076000030018331F2B00DCC2E62A000838824041
:100770009F4200DDA9E0DB1B581C1F2800DCACE118
:1007800015001F3BDD40202805D040231B1A9A404E
:10079000531E9A411543072300272B40B0E7ED086D
:1007A000054B62072A43E4089F420FD02403250B20
:1007B0007C05640DD4E6C046FF070000FFFF7FFF05
:1007C000FE070000C00862070243E4081300234349
:1007D00000D186E180252D0325432D03C34C2D0B2D
:1007E000BEE6604654460E001700C508D8E7C04C68
:1007F000FF1A144096E6BF4A791C11426BD12200C1
:100800000243002F00D0DBE0002A00D12DE1624638
:1008100053461A4300D1B6E06346C518854280416D
:10082000544440422418230202D50F00B04B1C4010
:100830003A002800D8E76246851AA84292415346FA
:1008400052429146E31A1A004B46D21A13009146BF
:100850001A0254D44A464C462A4300D040E60026A9
:10086000002400257CE6A14DA94500D190E001259A
:10087000382A00DDABE680252D042C4395E61100D7
:1008800055462039CD40A946202A06D0402153465E
:100890008A1A934062461A43944665466B1E9D41F0
:1008A0004B461D4312E62100014300D1C4E0511E16
:1008B000012A00D1FBE08D4DAA4200D1B5E001250F
:1008C000382900DD41E70A002FE7894CFF1A144060
:1008D0006207E4086AE7854A914200D1E3E0634693
:1008E000C218824280412300404253441B18DD0756
:1008F0005C080723520815430F002B4000E76346AE
:100900001D1AAC459241534652421C1B0E008846AC
:10091000A41AE5E5002D00D091E0002A38D180240A
:100920000026240356E76346C51885428041544497
:10093000404224180127230200D4DFE6022787E67D
:100940006346C51AA842804153464042E41A012733
:10095000241AC0E56207C0080243E40836E7110024
:1009600053462039CB409946202A06D04021534691
:100970008A1A934062461A43944665466B1E9D410F
:100980004B461D4359E66207C0080243E4080DE7E1
:1009900053465A076346D80853460E000243DC0804
:1009A00014E715002600203DEE40202A03D0402504
:1009B000AA1A94402043421E90410500354306E6A2
:1009C000002A7CD062465346C0081A4300D1FAE69A
:1009D000620710438022E4081203144208D0D908A9
:1009E000114205D16346D80853460C005B071843F3
:1009F000420FC000C00852070243E7E6002A00D1B8
:100A00002DE76346D80853465A070E000243DC0818
:100A1000CCE663461D1AAC459241534652421C1B1C
:100A20000E008846A41A013755E56346D908534697
:100A30005A070A43DC08C9E660465446D4E6C008B3
:100A4000002A00D1BFE6620710438022E4081203A7
:100A50001442CDD0DD081542CAD16346D8085346AA
:100A60005B070E002C001843C2E76346D9085346C3
:100A70005A070A43DC0899E66346D80853465A07E2
:100A80000E000243DC08A1E6110027002039CF4008
:100A9000202A03D040218A1A94402043421E9041CC
:100AA00005003D4351E60C000025002258E5604456
:100AB00060459241544452420500A4183AE7534617
:100AC0005A076346D90853460A43DC087EE61A00F3
:100AD0001C002A4300D0ABE6C1E620210025091AFC
:100AE00019E500220025014C3AE5C046FF07000049
:100AF000FFFF7FFFFE070000F0B5DE464546574684
:100B00004E46E0B587B0009201930B031B0B9B464A
:100B1000CA0F4B00040080465B0D029200D16AE1CF
:100B2000D44A934200D18CE15946420FC9000A438E
:100B3000802109041143C2009046CF4A894692465B
:100B40009A44002300240393009E019F3B031B0B48
:100B50009B467B0030005B0DFD0F002B00D128E190
:100B6000C44A934200D177E15946720FC9000A4343
:100B70008021090411438B46BF49F2008C4651463F
:100B80006344CB1A9A460023029E6E400F2C27D84E
:100B9000BA49A40009598F46CB464246029E039BA0
:100BA000022B16D0032B00D1A6E2012B00D0DFE0F0
:100BB00000220023002490461B052343F6073343FD
:100BC0004046190007B0F0BCBB46B246A946A04655
:100BD000F0BD002200249046A64BEDE72E00DFE793
:100BE000CB4500D2D4E100D1CFE101235B429C464A
:100BF000444648460027E2445B46150E1B021D434F
:100C0000190C2B04120200951D0C914602910395BC
:100C1000FFF700FB02006A430B04210C80461943D6
:100C20008A4209D9009D0123AC465B4261449C463F
:100C3000E0448D4200D8FBE1881A0299FFF7EAFAF6
:100C4000039A240442430904240C03000C43A242E7
:100C500006D90099013B8C466444A14200D8E1E1E9
:100C6000A01A424612041A4393464B4659461B0C9F
:100C70001D0004930B0449460904090C0C001B0CCD
:100C80005C43120C6B43884651436A43250CAC46C7
:100C90005B186344994203D9802149028C4662441F
:100CA000190C24041B04240C8A181C19904202D32A
:100CB00016D1A74214D25B46009D013B4F440593D9
:100CC0004F459B41AC465B426344C018854200D30C
:100CD000A1E1824200D9F6E100D1F1E1059B9B46FA
:100CE0003C1BA742BF41009D801A7F42C01B85422A
:100CF00000D1D0E10299FFF78DFA039A0B04424329
:100D0000210C070019438A4200D978E1881A029918
:100D1000FFF780FA039A240442430904240C0300D9
:100D20000C43A24200D95DE14146A41A3A041A4399
:100D3000049D13041B0C594347466B439C46100CFF
:100D400047430B0CBC44634468439F4203D980254E
:100D50006D02AC4660441F0C09041B04090C3F18CB
:100D60005B18BC4200D202E100D1FDE001231A432E
:100D7000434B5344002B00DCAEE0510700D098E118
:100D80005946C90106D559463E4B194080238B462A
:100D9000DB0053443C498B4200DD1AE75946D20838
:100DA000490711435A465B0554028846240B5B0DE4
:100DB00002E75A46009B1A4300D17EE05B46002BB7
:100DC00000D100E1584601F0E1F8020003000B3ABF
:100DD0001D27009EBA1A19005846D6400839884087
:100DE000320002439346009A8A40284953448A4677
:100DF0009A440023C8E65B460343994656D05B46B7
:100E0000002B00D1CDE0584601F0C0F80B235B4227
:100E10009C460200844466461D239B1B260011004D
:100E20005846DE4008398840330003439946230082
:100E30008B409846164B00249B1A9A460023039336
:100E400082E65A46024391462AD100229A4602235C
:100E500090460824039377E65A46009B1A430D4BAD
:100E60009C46E244002A17D102231C4300239B46E0
:100E7000023389E6FF07000001FCFFFFB43B0008D6
:100E8000FF030000FFFFFFFEFE070000F30300006A
:100E90000DFCFFFF01F8FFFF032332001C4373E644
:100EA0009A460323D9460C2403934DE60023984623
:100EB0009A4601330424039346E601231C4300238E
:100EC0009B46013360E60023802498460026924B1F
:100ED000240371E6012252420121C91A382900DD9A
:100EE00066E61F2900DCABE01F204042C31A5846CB
:100EF000D8400300202904D05846884951448840EE
:100F00000243511E8A411A4307231900002411404D
:100F100013420CD00F231340042B00D1F9E0111D14
:100F200091429B410A005B4259075B021C0BD208AD
:100F30000A43904600233FE680244B462403234285
:100F400009D05B46234206D11C4324032E00904661
:100F5000714B240B30E680244B4624031C432403AE
:100F6000029E6D4B240B27E6002B00D100E7009872
:100F7000511E84466444844200D284E0BC4200D2C4
:100F8000AEE000D1C1E00A00F0E6424500D92CE60F
:100F90004B46DC07580843465B081C434346DF07C3
:100FA0002AE600F0F3FF15239C46844402006346C2
:100FB00020321C2B00DC2EE72300083883409946A2
:100FC0000023984636E700F0E1FF020003001532E7
:100FD00020331C2A00DCFBE60099083881400022FF
:100FE0008B4602E70099013B8C466444A14200D93C
:100FF0009AE6A24200D897E6831E644494E6AC4683
:101000006144013F8D4200D980E68A4200D87DE6E6
:10101000871E61447AE6854200D05FE6B94500D973
:101020005CE656E6A24200D81AE6831E644417E640
:101030008A4200D800E6AC46831E98466144FBE530
:1010400037481400504482405B4617008340CC4030
:101050007A1E974123433B431A005B46CB4051071E
:1010600009D00F211140042905D0111D9142924150
:1010700052429B180A00190200D455E700220123AE
:101080000024904698E50A00BC4200D06EE64B452D
:1010900000D06BE66CE6234B234A5344924500DABA
:1010A00018E7012149420A1D8A42894149428B447D
:1010B00066E60F211140042900D161E61100F2E734
:1010C000BC4200D80AE602235B429C4600994F448A
:1010D0004F459B41E3448C465B426344C018FFE5A7
:1010E0004946009D480048458941AC464942614413
:1010F0008146023A6418C7E780245B4624031C43F8
:1011000024039046044B240B56E59945E8D30A0086
:10111000BDE7002308E7C046FF0700003E040000CB
:101120001E040000FF03000002FCFFFFF0B557465D
:10113000DE464E464546E0B51F000B031B0B16006E
:101140009A46CA0F4B000400934687B05B0D00D14E
:10115000D5E0BB4A934200D1F8E05146420FC900A6
:101160000A43802109041143C2009146B54A8A46C8
:101170009D180023984602933C037B00FA0F300031
:10118000240B5B0D009200D196E0AD4A934231D022
:10119000720FE4002243802424041443A94AF0007F
:1011A000944663445B195A1C0192424600260A2A5F
:1011B00042DC5A4600994A4093464246022A32DCB3
:1011C000013A012A00D949E1022E00D1CAE0012EDC
:1011D0003DD100230024002210005A461B05234362
:1011E000D2071343190007B0F0BCBB46B246A9466C
:1011F000A046F0BD924B2643EB18002E00D1BBE079
:101200000322414611435A46884600994A408021AC
:1012100009018C4629006144019141460A2900DDFB
:1012200033E293460326424601279740A6213A001F
:10123000C9000A400F4231D0029E022E00D135E291
:10124000032E00D1D2E154464846012EC1D0019A66
:101250007D4B94466344002B00DCC0E0420709D07C
:101260000F220240042A05D0021D824280414042E2
:1012700024181000E20106D5744B019A1C4080230B
:101280009446DB006344724A93426BDC6207C008F9
:1012900064025B050243240B5B0D9DE790218900EE
:1012A0000F4263D188223A4200D1D7E0009BA24688
:1012B0009B4681460296BFE72300334300D17FE07F
:1012C000002C00D1ADE1200000F060FE0200030020
:1012D0000B3A1D201900821A30000839D0408C408A
:1012E0000443300088405B4AEB1A944663445A1C1E
:1012F0000192424600260A2A00DC5AE79CE7534640
:101300000343994654D05346002B00D177E1504611
:1013100000F03CFE0B235B429C460200844411001B
:101320005046083988401D23804660461B1A20001D
:10133000D8400300404603439A4623008B40994619
:101340000023444D9846AD1A029315E752460243D6
:10135000914626D100221D00022392460832904673
:10136000029309E700240022354B35E7002380244F
:101370009B462403324B2FE7022241461143802231
:10138000120194462A006244884601920A2900DD2F
:1013900052E75A460020009904004A40934602262C
:1013A0000BE70C221D000323814690460293E3E6DF
:1013B00000239A4604339846033B00250293DBE65C
:1013C000424601331A432B0090465A1C0192424672
:1013D0000024002001260A2A00DCEAE62CE701228C
:1013E000D21A382A00DDF4E61F2A00DC2AE11F2188
:1013F0004942CB1A2100D9400B00202A05D0164AB9
:10140000019D94466544AC402043421E90411843E0
:10141000072319000024014003420CD00F2303408E
:10142000042B00D140E1031D8342A4411800644213
:1014300061076402240BC20800230A43CCE6C046BD
:10144000FF07000001FCFFFFFF030000FFFFFFFE9E
:10145000FE0700000DFCFFFF3E04000049464A461F
:101460000904090C0D00160C020C0004000C454385
:10147000AC4605007543A84615000F007543009261
:1014800002952A00009D6F4365462D0CA9464744EE
:101490004F44B84505D91500802252029046454474
:1014A00002953D0C039565462D043F042D0CAC467A
:1014B0003D0065440495250C2404240CAC4625000D
:1014C0007543A84665460F00694341448946674312
:1014D000390C49446E43884503D980225202904614
:1014E00046440D0CA846350045440595039D3F0430
:1014F000A8463F0C0904C91988444546039555463A
:101500002E04360C2F0C35004543784381463800B5
:10151000A8462D0CAA46009A504372434A445244AE
:10152000914503D980256D02A9464844150CA9466A
:1015300045462D042D0CA84665467D4312044844BB
:101540009044A9463200654662436E437C43170CC3
:101550003619BF19BC4203D980246402A446E14471
:10156000029C039EA446059D66448E428941AC467A
:1015700012043C04120CA218624449425418464416
:10158000A4464645A44182466442A046AA429241EE
:101590008C458941E244D044494252420A43A04525
:1015A000A44182458941644249420C4341463F0C73
:1015B000D2191219CC0D049970020843411E8841BA
:1015C00041464A44F60D520230434902144308434F
:1015D000D20135D50122430802401343E0071843E6
:1015E000640834E6009BA2469B468146802453460D
:1015F00024031C4324034A462E4B240BECE500F045
:10160000C5FC15239C4684440200634620321C2BF3
:1016100000DC84E6002399462300083883409A467C
:101620008EE600F0B3FC02000300153220331C2AC2
:1016300000DC4EE602003400083A0020944052E6F6
:10164000019304E61C4B21009C460300019DD340FE
:101650006544A94019430300AB40581E8341194318
:101660000800D4404B0709D00F230B40042B05D0B2
:101670000B1D8B428041404224181800230200D4E5
:10168000D6E6012300240022A6E50F29AAD1802353
:1016900052461B031A42A9D01C42A7D11C43009BEF
:1016A00002009B46034B97E50024C1E60024014B52
:1016B000220091E5FF0700001E040000F0B54E4631
:1016C0004546DE465746E0B585B0009001910C03D3
:1016D0004F00CE0F610A009CB046640F0C43009986
:1016E0007F0DC80011001A001B039C460091019257
:1016F00051004B0D9946019B009DD90F63466A0F1F
:101700005B0A1343EA0094469346C14A039002934E
:10171000914500D1CDE0012569404D467D1BAA468B
:101720008E4200D180E0002D00DC35E349460029DF
:1017300000D1DFE0974200D194E152460125382ADA
:1017400019DC8022029B12041343029352461F2A83
:1017500000DDE3E1534620226146029DD21A954006
:10176000D9400D43614691400A00511E8A411543FC
:10177000029ADA40A41A451BA84280414042241A2A
:10178000230200D43DE16402640A002C00D147E149
:10179000200000F0FBFB0300083B20212800CA1AB0
:1017A000D0409C4002009D4022439F4200DD77E1F3
:1017B000D81B0130091A2C008D40C4406B1E9D417E
:1017C0001300C2408B402543002714001D436B07C4
:1017D00009D00F232B40042B05D02B1DAB42AD416C
:1017E0006D4264191D00230200D440E1884A01378C
:1017F000974200D101E1012643468649ED08214088
:101800004A072A437C054D022D0B640D1E4024051A
:101810002C43F60734431000210005B0F0BCBB4652
:10182000B246A946A046F0BD002D00DCD0E24946F4
:10183000002900D0D4E06146029B194300D12BE17E
:10184000691E012D00D1D9E1954200D10AE101259F
:10185000382917DC8A4653461F2B00DDE7E120229A
:10186000D21A029B614693401D005346D9406346FD
:1018700093401A000D43511E8A4153461543029A64
:10188000DA40A4182D1885428041404224182302D2
:1018900000D4B6E05E4B01379F4200D1ADE001219C
:1018A0005C4B6A081C4029400A43E507154364085D
:1018B0008DE7594A029B92466246BA441A432CD09D
:1018C0008E422ED05246002A60D0002F00D1DBE09D
:1018D00063460E00029CD80862070243E408130026
:1018E000234300D154E280252D0325432D03484C8A
:1018F0002D0B8CE76146029B194300D1CCE02900F7
:101900000139012D00D188E1954200D1AAE00125DD
:10191000382900DD2FE78A4618E7012251408E4220
:10192000D0D15346002B00D1BEE0002F00D038E1CB
:10193000CA462200024300D1E2E15346591E012B60
:1019400000D10DE2324A924500D1D2E10127382977
:1019500013DC1F2900DDEEE12022029B521A250034
:1019600007009A46CC4090409540CF40A244421E8A
:10197000904153462F43074302933D00654465451C
:101980009241029B52424F46D41880E7234A7D1C65
:10199000154200D0AAE062462500029B05431A4387
:1019A000002F00D0F5E0002D00D16BE1002A00D11E
:1019B00052E16346C51A029BE21AA8429B415B4270
:1019C000D31A1A0200D4D5E163461D1AAC459241E0
:1019D0000126029B52421C1B8846A41A0E40F6E6C2
:1019E00097423FD052460125382A00DD4AE780223F
:1019F000029B1204134302932DE73C0000250022B2
:101A000005E707232B40002B00D0E2E66BE0C04641
:101A1000FF070000FFFF7FFF01F8FFFFFE07000048
:101A2000280000F0B3FA030018331F2B00DCB4E6E3
:101A30002A00083882409F4200DDB9E0DB1B581CB9
:101A40001F2800DCA0E115001F3BDD40202805D049
:101A500040231B1A9A40531E9A411543072300271F
:101A60002B40D0E7C00862070243E40837E7EA08E2
:101A700063071A43D34BE4089F4200D12FE72403A6
:101A8000250B7C05640DC2E6CA462200024358D1EC
:101A900063460E00029C0393039B5746DA08E7E770
:101AA000C94CFF1A144092E6C84D7A1C2A4200D055
:101AB00084E022000243002F00D0EFE0002A00D192
:101AC000E5E0624602990A4300D1C5E06346C518C5
:101AD0008C4685428041644440422418230202D54A
:101AE000B94B01371C40BA460395D5E76246851AC3
:101AF000A842924152429146029BE31A1A004B4679
:101B0000D21A130091461A026CD44A464C462A4314
:101B100000D03AE600260024002578E602995346D4
:101B20000D00203AD540202B06D04022D21A0B00BF
:101B3000934062461A4393465B465A1E93411D43A7
:101B400019E653465A1E012B00D1C6E09D4EB24500
:101B500000D1BDE688460E000125382A10DC1F2A78
:101B60007FDC20212500891A070088408D40D7405E
:101B7000D440411E8841029B3D431B1B05430293F9
:101B80006246551BAC459241029B52424F469C1AFD
:101B9000F6E5002D00D0B7E0002A00D1F0E00126E4
:101BA0000E4063460298D90842070A43C40896E6E5
:101BB000854CFF1A14406207E40860E781498A42B5
:101BC00000D1C9E06346C11881428041029B404276
:101BD000E3181B18DD075C08072349080D431700AD
:101BE0002B4010E763461D1AAC4592410126029B2B
:101BF00052421C1B8846A41A0E40C6E56346C5180F
:101C0000029B854280419C4640426444241801273F
:101C1000230200D4F5E6022741E66346C51AA8422E
:101C20008041029B4042E41A0127241AA8E5029D44
:101C300052462B00203AD34019005346202B06D0A1
:101C40004022D21A2B00934062461A4393465D46C7
:101C50006B1E9D410D4315E66207C0080243E40870
:101C60000DE7110027002039CF40202A05D0402160
:101C70008A1A9440250005430395039D6A1E9541E9
:101C80003D437DE7002A00D144E701260E4063462C
:101C9000D908029B5A070A43DC08F0E6002A28D03C
:101CA0006246029FC0083A4300D1DCE66207104357
:101CB0008022E4081203144209D0FD08154206D11F
:101CC000634601262C00D8087B0718430E40420FBC
:101CD000C000C0085207024301E663461D1AAC4526
:101CE0009241029B52421C1B0E0088460127A41AF7
:101CF00046E56346D908029B5A070A43DC08EEE52D
:101D00006346029C0393C7E6C008002A00D1AAE6F6
:101D1000620710438022E40812031442D7D0029FC6
:101D2000FD081542D3D163460126D8087B072C0055
:101D300018430E40CBE70A002700203AD74020295D
:101D400005D04022521A9440250005430395039D77
:101D50006A1E95412F4310E614000025002256E527
:101D6000029B60449946604592414C4452420500B2
:101D7000A4184CE71A001C002A4300D0B3E6C9E6B9
:101D8000802400262403AEE520210025091A17E54A
:101D9000002200250B4C3AE5002D00D1F6E54B461C
:101DA000DA1B9246002F00D16FE6382A05DC802628
:101DB0003604344388460E00D1E688460E000125DD
:101DC000DEE6C046FF070000FFFF7FFFFE070000C2
:101DD000002D00D168E64B46D91B002F01D18A4661
:101DE000A7E50127382900DDC7E580221204144346
:101DF000AFE5C0460B00020070B5164D0C0382B073
:101E00004900002000920193240B490DDE0FA942E6
:101E100004DD1148814203DD104BF01802B070BDA3
:101E20008020400320430E4C641A1F2C08DD0D4B0C
:101E30005B1AD84003005842002EEFD11800EDE79E
:101E4000094B009A9C46030061448B40E2401343D7
:101E5000F1E7C046FE0300001D040000FFFFFF7F06
:101E60003304000013040000EDFBFFFF70B50028F1
:101E700016D0C317C5185D40C40F280000F086F8BF
:101E8000104B1B1A5B055B0D0A2814DC02002E00A8
:101E9000153296400B22121AD5402D032D0B03E06C
:101EA00000240023002500261B052B43E4072343C1
:101EB0003000190070BD0B3885402D0300262D0B16
:101EC000F2E7C0461E04000010B5041E10D000F05A
:101ED0005DF80E4B1B1A5B055B0D0A280FDC0B220D
:101EE0002100121AD14015300A038440120B01E080
:101EF000002300221B0513432000190010BD2200FF
:101F00000B38824012030024120BF3E71E0400007A
:101F10008446100062468C461900634600E0C046C5
:101F20001FB500F009F9002801D40021C8421FBDE7
:101F300010B500F049F84042013010BD10B500F076
:101F4000FBF8002801DB002010BD012010BDC046B9
:101F500010B500F0F1F8002801DD002010BD0120CF
:101F600010BDC04610B500F073F8002801DC002059
:101F700010BD012010BDC04610B500F069F8002862
:101F800001DA002010BD012010BDC0461C21012334
:101F90001B04984201D3000C10391B0A984201D34C
:101FA000000A08391B09984201D30009043902A22A
:101FB000105C40187047C046040302020101010191
:101FC0000000000000000000F0B55746DE464E4617
:101FD0004546E0B50D000400E80F83460903D80F1D
:101FE000090B824619488C461F0369005E00490DA3
:101FF0003F0B760D814218D086420FD00120B142AE
:102000000DD1BC450BD1944209D1D3451CD0002938
:1020100005D160462043431E984100E00120F0BCFA
:10202000BB46B246A946A046F0BD01208E42F6D17D
:10203000614639430F0017432743F0D15B465246B0
:10204000981A431E9841EAE70020E8E7FF070000DE
:10205000F0B557464E464546DE46E0B50D000F0347
:10206000390B83B00400804601915800E90F314FCD
:10207000400D8C466E00190382469146760D090B81
:10208000D80FBE421FD0BA450FD0002E2FD15546D3
:10209000019E3443002D27D10A433AD0002C45D16C
:1020A00000281AD10120404217E011433BD1002EF5
:1020B00002D1019F2743F3D0844509D16346002B09
:1020C000F0D0604609E0019F27432CD1B24524D0CF
:1020D00063460220013B1840013803B0F0BCBB4608
:1020E000B246A946A046F0BD002CD9D0E4E754463C
:1020F000002CEDD08445EBD15645E9DCDEDB019BBD
:102100008B42E5D8DAD1C845E2D80020C845E4D2F0
:10211000D4E70020002CE0D0DAE7114303D1844556
:10212000D6D10020D9E702204042D6E78445E6D048
:10213000CEE7C046FF070000F0B557464E4645467D
:10214000DE46E0B50D000F0304008046E80F390BB2
:10215000844683B05800304F400D01911E03690042
:1021600082469146490D360BD80FB94220D0BA4568
:102170000FD000292BD101990C435146002937D1AA
:10218000324338D0002C44D1002819D101204042DC
:1021900016E0164313D1002902D1019F2743F3D043
:1021A000844520D063460220013B1840013807E0F7
:1021B000019F274303D18A45F4D116431FD0022043
:1021C00003B0F0BCBB46B246A946A046F0BD54469B
:1021D000002CE7D08445E5D15145E3DC03DB019BCE
:1021E000B342DFD80FD06346002BCFD06046E7E77D
:1021F000002CC9D0D4E70020002CE1D0D2E78445E0
:10220000D0D10020DCE7C845CCD80020C845D7D2C3
:10221000E9E78445E3D0C5E7FF070000F0B54F4686
:102220004646D6467523C0B57249CA5C13019B1A4F
:102230001A01D21A7F23C85C120103011B1A9B00EA
:10224000D2186D4B551C1D606C4B1C681F68240C0C
:102250001868A3069B0F9E009B190F265B00344055
:102260001B19DBB21C01E31A1C01E31A1B019C467B
:10227000072399463F0AFFB23C091C40A300984639
:102280004B46444437406400E419C0B227013C1B6C
:1022900007093B409F00DB190640A4005B00644433
:1022A0009B19E318581C81464C465548D21A0460C5
:1022B0009320095C0C01641AA400944217D2514B7C
:1022C000514A1B78127813430CD080234F4A1B06C7
:1022D00091690B43012193614D4B1A688A431A603F
:1022E00000225A63E0BCBA46B146A846F0BD80233E
:1022F000464A1B02916928000B439361444B01221B
:1023000098461B68134342461360D36A9A46FFF708
:10231000DBFD06000F00281BFFF7D6FD32003B0057
:10232000FEF7EAFB00223B4BFEF700FFFEF762F8E8
:1023300084B24846FFF7C8FD32003B00FEF7DCFBE5
:102340000022344BFEF7F2FEFEF754F883B21B1B5B
:102350005801C01A30498000C018091BC000FDF7A1
:102360005DFF0004000CFFF781FD04000D002B4A07
:102370002B4BFEF7DBFE22002B00FEF7D7FE2200E0
:102380002B00FEF7D3FE274A06000F00200029008D
:10239000254BFEF7CBFE22002B00FEF7C7FE020006
:1023A0000B0030003900FEF743F8204A06000F000A
:1023B000200029001E4BFEF7B9FE02000B00300082
:1023C0003900FFF77BF91B4A1B4BFEF731F85346E8
:1023D0000400581C0D00FFF777FD0B0002002900D8
:1023E0002000FEF7A3FEFEF705F8434680B25863CF
:1023F00078E7C04600000020680100200028004067
:10240000640100207A0100207B01002000080050B8
:10241000000801400088C340102700007F34B962E3
:102420008086EC3D0F7CE53B5865AC3E010075298C
:10243000C9B10C3F00202E787BA6603F2021C02030
:10244000124B00061A688A431A601A6820310A4340
:102450001A601A683E390A431A601A6801390A4339
:102460001A600B4B1A688A431A600A4A0A495A6072
:102470000A6A1202120A02430A6200229A600732B2
:102480001A600B6A1B021B0A0B6270470020024095
:1024900010E000E0FF7C000000ED00E03549364B25
:1024A0000A681A4080231B0113430B600821334B39
:1024B0001A688A431A601A6831490A401A600C2265
:1024C000D9680A40042A13D001211A680A431A6005
:1024D00003311A681142FCD00321DA688A430239B9
:1024E0000A43DA600C222549CB681340042BFBD148
:1024F000224B2449DA680A40DA60DA6822490A4045
:10250000DA60D968214A11408022D2030A43DA6096
:10251000D9681F4A11408022D2020A43DA60DA6881
:102520001C490A40DA608022D96812020A43DA6044
:10253000DA6819490A40DA60DA6818490A40F02175
:10254000DA60DA688A43DA608022196852040A4342
:1025500080211A6089041A680A42FCD00321DA68D3
:102560000A43DA600C220549CB6813400C2BFBD1DF
:102570007047C04600700040FFE7FFFF00100240B8
:10258000FFFEFFFFFFFFFF8FFFFFFFF0FFFF3FFF9B
:10259000FFFFC3FFFFFFFEFFFFC7FFFFFFF8FFFFC7
:1025A0008023204A5B05916B1F480B439363802374
:1025B00001685B0019430160116D0B4380211365B5
:1025C0008900136D0B42FCD0116D184B194080230C
:1025D0005B020B4313658023116DDB020B43136514
:1025E000CA228021124B5A62773A5A62DA680A4349
:1025F000DA604039DA681142FCD019680D4A11409E
:102600000D4A0A431A6059680C4A11400C4A0A43A1
:1026100080215A60DA688A43DA60FE225A629A3A66
:102620005A6270470010024000700040FFFFFCFF3C
:10263000002800408080C0FF00361700C00000FF67
:10264000012424000121F0B5C646364800B5C36A0E
:1026500080240B43C362A023DB051A682406920082
:10266000920822431A605A682F4C042722405A606D
:10267000C0229C68120622439A605A6A08261201F8
:1026800012091A435A62836B10240B43836380231D
:1026900002206025DB051A6880468A431A601A68A2
:1026A00082431A601A682148BA431A601A68B24312
:1026B0001A601A68A2431A601A687034AA431A6032
:1026C0001A6822431A601A6802401A60DA68802089
:1026D0000A43DA601F229A62154A0002DA62154A3A
:1026E000106003209A69824340469A619A69BA430E
:1026F0009A619A6932439A619A696836B2432A4369
:102700009A619A69A2439A611A6A0B4C0A431A6247
:10271000226A824322621A688A431A6080BCB846E1
:10272000F0BDC04600100240FF7FFFFFFFFCFFFF2F
:102730000F27000000E100E0000801400220F0B592
:10274000C646354A00B5D36A34490343D362344B95
:1027500008271C6810250C408021090121432024F2
:10276000196059686026A1435960C0219C6809011D
:10277000214399601C6A2B490C40A021C9032143C5
:10278000042419620121536B23435363264B1A68B7
:102790008A431A601A6882431A601A68A2431A6050
:1027A0001A68BA431A601A68AA431A601A68703520
:1027B000B2431A601A68A8462A431A601A681B4D69
:1027C0002A401A60DA6880250A43DA601F229A627A
:1027D000174A6D03DA62174A156003259A69AA43FE
:1027E0009A619A69A2439A619A696C343A439A61F0
:1027F0009A69A243444632439A619A69A2439A6114
:102800001A6A0A431A621A6A02431A621A688A43E7
:102810001A6080BCB846F0BD00100240FFF3FFFF15
:1028200000040050FFFF0FFF00080140FFFCFFFF06
:102830000F27000000E100E00721F0B557464E46A3
:102840004546DE46AD4AE0B5D36AAD480B43D36298
:10285000A0238022DB051968D20101400A438021B0
:102860001A605A680C248A435A609A68022502400A
:1028700004209A60A34AA44E1168A1430143116049
:1028800051683C30A943516091688146A1439160F1
:1028900080211F6849013740394319605968C024B5
:1028A00081435960996899483140996080211F6837
:1028B000974EC90037403943202719605968A4460C
:1028C000B9435960996882463140996080211F68F8
:1028D000904EC90337403943196059688E4F3940CB
:1028E000596099683140996080211E68C90206408C
:1028F000314319605968894E3140596099680326FF
:102900000140996001211768B7430F43176057686A
:102910008F4357609768B74397601768A7434C4643
:10292000274317605768383CA046A7436446576062
:102930009768A74397601F68A7434C4627434446C0
:102940001F605F68A74364465F609F68A7439F60FE
:102950001C68734F3C40A04680246400A446444653
:1029600065462C431C605C68F03DAC435C609C6831
:102970006C4D3C409C601C682C40A3468024640441
:10298000A0465C46404604431C605C68A046664C1A
:10299000A3464446584604405C609C68200028409A
:1029A0009860146810253C40A046644640460443A5
:1029B00014605468AC4354609468274097601F6863
:1029C0005A4CA4463C4080277F0327431F605F6822
:1029D000574C274064465F609F6827409F601F6890
:1029E000544CA4463C4080277F0227431F605F6809
:1029F000514C274064465F609F6827409F604F4F5F
:102A00003C68A400A408A4468024E405A0466446CB
:102A100045462C433C607C68A446494CA04664462D
:102A200045462C407C60BC680225A400A408BC601C
:102A30000F241F682800B7431F605F688F435F60E3
:102A40009F683E433F4F9E60BE68A643BE603E4EB9
:102A500034680C433460F46821430C24F160196835
:102A6000A14319605968A943596099682143996045
:102A7000F0210400BD688D43BD60356805433560B5
:102A8000F56802302C433025F4601C68AC431C60B0
:102A90005C6884435C609C682C439C60BB682B4CE6
:102AA00023405446BB60336803433360F3680343F9
:102AB000F360136819482340136053680340536060
:102AC000C02390681B03034393603B698B433B61C6
:102AD000802332689B001A433260F2682027134338
:102AE0004A46F3601A4B70391F601A601960F0BCD7
:102AF000BB46B246A946A046F0BDC0460010024003
:102B0000FF3FFFFF00040050FFCFFFFFFFFFF3FF79
:102B1000FFF3FFFFFFFF3FFFFFF7FFFFFFFDFFFF9B
:102B2000FFFCFFFFFFFFFFFCFFEFFFFFFFFFCFFFFB
:102B3000FFFBFFFFFFFFFCFFFFFEFFFF0008005051
:102B4000FF7FFFFF0000014000040140FFF0FFFF96
:102B500000E100E010B5022969D020D8002900D199
:102B60008BE0A0238022DB05996912030A43102120
:102B70009A619A690A439A618022996952050A43C7
:102B80009A618023E14A5B0391690B4393612E387C
:102B9000C0B231281FD8DE4B80001B589F46032946
:102BA0005BD1A0238022DB05996912030A439A6155
:102BB0008022996952030A439A61802299695205D9
:102BC0000A4310219A61D14A2E389369C0B20B434F
:102BD00093613128DFD9A0238022DB059969120493
:102BE0000A4380219A61C94A89029069014391612F
:102BF00080219869C90301439961802198698903FB
:102C000001439961802198690905014399618021F7
:102C10009869890401439961802391695B020B43A0
:102C20009361802391691B030B43936110BDA02323
:102C30008022DB05996912030A439A61802299690F
:102C400052031143996180219C6949012143996193
:102C5000AE4B99690A439A6199E7A0238022DB056C
:102C6000996912030A439A618022996952031143B8
:102C7000996180219C694905E8E7A023DB050821CB
:102C80009A69EFE7A0238022DB05996912040A43C1
:102C900080219A619D4A8902906901439161802156
:102CA0009869C903014399618021986989030143A7
:102CB000996180219869090501439961802198698A
:102CC000890401439961802391695B020B430821C8
:102CD000936193690B439361A8E7A02380210220AD
:102CE000DB059A690A439A61884A916901439161B7
:102CF00099693E300143996199692038014399618E
:102D000080219869090101439961802198698900AE
:102D100080E7A0238022DB059969120402200A4380
:102D20009A617A4A91690143916199693E3062E7FB
:102D3000A02380210220DB059A690A439A61734A25
:102D400091690143916180219869C9030143202061
:102D50009961996901439961802198690901014349
:102D600099618021986989040143996193690121DE
:102D700055E7A02380210220DB059A690A439A6166
:102D8000624A91690143916199693E3001439961B9
:102D90009969203801439961802198690905DEE726
:102DA000A02380220220DB05996912040A439A615C
:102DB000564A91690143916199693E300143996195
:102DC00080219869890301439961802198690905E7
:102DD0000143996180219869890001439961936950
:102DE00001211CE7A0238021DB059A690A43802189
:102DF0009A61464A8902906901434020916199692C
:102E00000143996199692038DDE7A0238021DB0522
:102E10009A690A4380219A613C4A89029069014378
:102E20004020916199690143996199692038014372
:102E30009961802198690901CAE7A023DB058021F7
:102E40009A696BE7A02380210220DB059A690A4377
:102E50009A612E4A91690143916199693E30E2E796
:102E6000A02380210220DB059A690A439A61274A40
:102E700091690143916199693E30C1E7A0238021A6
:102E80000220DB059A690A439A61204A916901434D
:102E9000916180219869C9030143996180219869F2
:102EA000890301439961802198690901014399616E
:102EB00080219869890004E7A02380210220DB0596
:102EC0009A690A439A61114A91690143916180218B
:102ED0009869C90301439961802198698903A6E72C
:102EE000A0238022DB05996912040A4380219A619C
:102EF000064A890290690143916180219869C9035A
:102F000001439961202099697AE6C0460004005087
:102F1000F43B0008F8B580234546DE464E4657464A
:102F2000294A1B029169E0B50B4393610122274DA9
:102F3000274C2B6813432B60FA239B0099460023F0
:102F40009B46244B9846244B244E9A46244F1EE021
:102F500020682449FDF75EF9494501D25B466B6361
:102F600020682049FDF756F9414501D853466B6367
:102F700020681C49FDF74EF9B94201D81A4B6B6322
:102F800020681849FDF746F9184B994218D920686E
:102F90001449FDF73FF9B142DAD100220B4B0A493F
:102FA0005A6380228869120602438A6101211A68E5
:102FB0008A431A60F0BCBB46B246A946A046F8BD9B
:102FC000024B0B4A5A63BEE700080050000801405C
:102FD00070010020B70B0000B80B00000F270000A5
:102FE0006F17000010270000701700002723000053
:102FF00028230000F0B5CA23D6464F464646802215
:10300000444CC0B56362773B6362E3681343E3609B
:10301000403AE3681A42FCD03F4E0A21F37E27680B
:103020009A462523F35C504699462F23F35C984635
:10303000FDF76AF80A21C5B25046FDF7EBF8C9B2B0
:1030400009042D0540460D430A21FDF7E3F8C9B2F6
:1030500048460D430A21FDF757F8C0B20003054367
:103060000A214846FDF7D6F8C9B2090240460D4389
:103070000A21FDF749F8294BC0B21F404D2300013A
:1030800005433D432560F35C0A219A464323F35CE4
:10309000676899463923F35C984657234046F55CA8
:1030A000FDF7B8F86D03C9B250460D430A21FDF78C
:1030B0002BF8C0B2000505430A215046FDF7AAF8D7
:1030C000C9B2090448460D430A21FDF71DF8C0B2F4
:1030D000000305430A214846FDF79CF8C9B20902DE
:1030E00040460D430A21FDF70FF880220C4BC0B279
:1030F00000011F4005433D436560E3689343E3607F
:10310000FE2363629A3B6362E0BCBA46B146A846BE
:10311000F0BDC04600280040000000208080C0FFB5
:10312000C00000FFF0B501264746CE4676429146E4
:1031300080B5002337003200B446B0461A4C04E094
:103140000133DBB20A341F2B16D0012565578542A7
:10315000F6D15EB27D1C00D13700002565578D4247
:103160001BD0551C1BD065460135E9D10133DBB2BC
:10317000B4460A341F2BE8D16346013300D1BC4664
:103180004346013300D1B0464B46013309D0634674
:10319000D8B2C0BCB946B046F0BD3200D0E7B046A8
:1031A000CEE74346D8B2F4E700000020202010B557
:1031B000184AFF30184B125C184819680088091A21
:1031C000914204D9012016490C6820421DD01548AF
:1031D00019680088091A8A4204D2022010490C6832
:1031E00020420ED010491B6809885B1A9A4207D208
:1031F00004220B4B19680A4202D119680A431A606B
:1032000010BD0C6820430860ECE70C6820430860A0
:10321000DDE7C0460000002070010020840100208E
:10322000000401408201002086010020F0B5D6464E
:103230004F4646460324C0B50F26FFF7B7FF814B24
:103240000A2199461A68120CD2B213092340980039
:103250001818324040008018FCF756FF4B467A4F52
:103260003030C5B23D701B680A211B0CDBB21A0955
:103270001440A000201833404000C018FCF7CAFFDB
:103280004B460724303179701A680A21120AD2B2EB
:103290001309234098001818324040008018FCF7AA
:1032A00033FF3030C3B2BB709A464B461B680A21CD
:1032B0001B0ADBB21A091440A200A41833406400B0
:1032C000E018FCF7A7FF614B614A1B781278303198
:1032D0001343604AF9701278134302D001225E4B07
:1032E0001A705E4B5E4C9846F7234246D35C2068CA
:1032F00019009946FCF78EFF0C234246FF33D35C3E
:10330000013B994202D10022534B1A7003224D49CE
:103310000868000CC0B2030913409E00B4460F2693
:1033200063445B0030401B18052B49D90B681B0C0C
:10333000DBB219090A4091005218310052001940BD
:103340005218152A3CD84246BB23D35CA022D20592
:1033500098469169012B6CD080235B040B439361E9
:1033600023689B0749D0032322681340012B4FD0C9
:10337000032322681340022B53D02368DB439B07AF
:103380005BD0FA212068C900FCF744FFFA23A02291
:103390009B00D20599421BD980239169DB040B4322
:1033A00093614346002B1AD0FEF738FF2D4B187857
:1033B00043425841C0B2E0BCBA46B146A846F0BD4F
:1033C000254B1B78002BBED14B46002BEED1BAE724
:1033D000916918330B4393614346002BE4D180235A
:1033E000214A1B0691690B43012193611F4B1A6807
:1033F0008A431A6042465A63D8E7302DB3D0002181
:103400002800FFF7A7FB032322681340012BAFD14D
:1034100001217878FFF79EFB032322681340022BDB
:10342000ABD15346302BA8D00221B878FFF792FBDE
:10343000A3E7FF330B43936192E70321F878FFF78B
:1034400089FB9EE7002800405C0100207D010020F0
:103450007C0100207E010020780100200000002077
:103460007001002079010020000800500008014090
:10347000F8B5CE4647460D0080B500281BD0013078
:1034800042D0794E794C31788A0050184000231888
:103490009C469B78002B00D087E02156013405E044
:1034A0000133DBB20A341F2B00D19AE00022A2566E
:1034B0008A42F5D133706E4B1B78002D0DD1002B55
:1034C0004DD1694B694C187883001B185B0003339E
:1034D000E018C0BCB946B046F8BD634E3178002B49
:1034E0002FD06448614C03788A0052185200A21809
:1034F000567A5B19DBB2127A0370B34262D89342F8
:1035000000D3AFE006702CE0594F3B78002B62D11E
:10351000554E564C31788A00521801215200A2189B
:103520005156002905DC09E00133DBB20A341F2BB8
:1035300072D00022A2568A42F6D13370002D4ED0AE
:10354000494E01203278494C93009B185B00E156AC
:10355000E31818562A00FFF7E5FD3070B4E7454838
:1035600006782027444C0A2130002770FCF7CCFD58
:10357000C5B2632E0DD86770092E26D93035EDB24D
:103580000A213000A570FCF745FE30312000E170C3
:103590009FE764213000FCF7B7FD303060700A21EE
:1035A0002800FCF737FECDB2E8E7314F3B78002B1F
:1035B0000DD101333B7063462E48DB790370002D3B
:1035C00093D1CDE716000270CBE72025D8E76246FD
:1035D00028480378D37100233B70002DB0D13B788D
:1035E0006DE716291AD007DC092912D0102900D05E
:1035F00061E7FFF78FFC5EE71E2900D05BE7FFF76E
:1036000015FE002800D156E7FFF710FE0028F6D17E
:1036100051E7FFF7EFFC4EE7E0338EE78022012110
:10362000D2051368154F0B43136038681449FCF733
:10363000F1FD144EB1420ED063239946323B9846B9
:10364000114C4B46E3624346636338680C49FCF710
:10365000E1FDB142F5D180220121D20513688B43EF
:10366000136028E71E007CE77601002000000020A0
:10367000750100207401002060010020700100200D
:10368000102700000F27000000080140F0B5DE46BB
:1036900057464E464546E0B587B0FEF7CFFEFEF7EB
:1036A000FDFEFFF7C9F8FEF77BFFFEF7CBFFFFF744
:1036B00045F820212020FFF74DFA80235A4A1B06A7
:1036C000916900200B4393610021FFF7D1FE574B16
:1036D00000249A461860564B03279946554B564E80
:1036E0009B46564B0493564B0293564B0393564BB3
:1036F0000193564B0593564B9846A025ED054B4636
:103700001C7080233470AA69DB041343AB618023EF
:10371000AA695B041343AB618023434A1B0691698A
:103720000B439361FFF742FD5B461B78002B03D0F0
:10373000FF2333705B461C70049A1378002B02D071
:10374000FB2314703370029A1378002B02D00123EC
:1037500014703370039A1378002B02D00523147071
:1037600033700599019B0A781B78002A2CD001221E
:1037700048460C700270002B51D0FF234A460021AE
:1037800001201370019B40421C707156FFF770FEC0
:103790005346186043461B681F4223D043461B68AC
:1037A0003B40012B29D043461B683B40022B2FD0C6
:1037B00043461B683B40032BA1D153461B680321A2
:1037C000D878FFF7C7F998E7002BD6D14B460020F1
:1037D00000211856715603000B43D7D143461B688E
:1037E0001F42DBD153461B6800211878FFF7B2F95E
:1037F00043461B683B40012BD5D153461B68012132
:103800005878FFF7A7F943461B683B40022BCFD1FE
:1038100053461B6802219878FFF79CF9C8E70021FE
:1038200001207156B2E7C046000800505401002044
:10383000590100207D010020580100207A0100205C
:103840007E0100207B010020790100207C01002006
:1038500070010020064A136801331360054B1A8873
:10386000002A03D01A88013A92B21A807047C046E3
:10387000700100206C01002001223C4B10B55969F9
:103880000A4217D019683A489143196039490C68BF
:10389000048039480478002C44D10C683749027000
:1038A0000C80D9689143D96099680A439A600122D3
:1038B0002E4B5A6102222D4B59690A4218D01968C1
:1038C0002F48914319602B490C6804802D480478D7
:1038D000002C0ED10C682C490C8001210170D96894
:1038E0009143D96099680A439A6002221F4B5A613A
:1038F00010BD00240470986890439860D868024313
:10390000DA600A682A21204BFF311B88D21A1F4B2C
:103910005B5C9B009A4222D901221D4B1C701D4BFF
:103920001A70E2E700240470986890439860D868A1
:103930001043D8602A20114B09681B88FF30C91A30
:10394000124B1B5C9B00994204D9134B1C70134B08
:103950001A70ACE7114B1C700F4B1A70A7E70122CD
:103960000C4B1C700A4B1A70BFE7C04600040140A4
:103970008401002070010020800100208A010020C5
:10398000820100207F01002088010020000000202B
:103990007C010020790100207D0100207A010020B7
:1039A00004221F4B10B559690A4218D019681D48E6
:1039B000914319601C490C6804801C480478002C51
:1039C0000ED10C681A490C8001210170D96891430D
:1039D000D96099680A439A600422114B5A6110BD5C
:1039E00000240470986890439860D8680243DA60B5
:1039F0000A682A210E4BFF311B88D21A0D4B5B5CE3
:103A00009B009A4205D901220B4B1A700B4B1C707C
:103A1000E2E70122094B1A70074B1C70DCE7C04635
:103A20000004014086010020700100208101002077
:103A30008C010020000000207B0100207E0100207E
:103A40008022134B92005969114217D0196811480E
:103A50000140196010490969114210D0D9680A4320
:103A6000DA609A6802409A6000220C4B1A70802338
:103A7000074A9B00536111680B43136070479968B4
:103A80000A439A60DA680240DA600122EDE7C04634
:103A900000040140FFFDFFFF0004005077010020FB
:103AA00080230122DB0519690A4202D0196991437A
:103AB000196170470122044B19690A4202D0196941
:103AC000914319617047C046000801407047C046E5
:103AD00013488546FFF7FAFF12480168090E124A9B
:103AE000914205D111481249016012481249016002
:103AF00012481349134A002302E0D458C450043337
:103B0000C4188C42F9D3104A104C002301E0136012
:103B10000432A242FBD300F01DF8FFF7B7FDFEE729
:103B200000080020040000001F00000034100240C4
:103B30000100000000000140000000000000002023
:103B400038010020C43C000838010020900100200A
:103B5000FEE7000070B500260C4C0D4D641BA41050
:103B6000A64209D1002600F019F80A4C0A4D641B40
:103B7000A410A64205D170BDB300EB58984701369A
:103B8000EEE7B300EB5898470136F2E7BC3C00087B
:103B9000BC3C0008C03C0008BC3C0008F8B5C0466E
:103BA000F8BC08BC9E467047F8B5C046F8BC08BCD7
:043BB0009E46704776
:103BB400E00B0008D20B0008B00B0008DC0B000877
:103BC400B00B0008C60E0008B00B0008DC0B0008A0
:103BD400D20B0008D20B0008C60E0008DC0B00084C
:103BE400980B0008980B0008980B0008380F000881
:103BF400842C0008D62B0008DA2C0008122D0008AB
:103C0400302D0008722D0008A02D0008E42D0008B6
:103C14000A2E00083A2E0008442E0008602E0008E0
:103C2400D62B0008D62B0008D62B0008D62B00086C
:103C3400D62B00087C2E0008D62B0008D62B0008B3
:103C4400D62B0008D62B0008D62B0008D62B00084C
:103C5400D62B0008D62B0008D62B0008D62B00083C
:103C6400D62B0008D62B0008D62B0008D62B00082C
:103C7400D62B0008D62B0008B82E0008D62B000837
:103C8400D62B0008D62B0008D62B0008D62B00080C
:103C9400D62B0008D62B0008D62B0008D62B0008FC
:103CA400D62B0008D62B0008D62B0008D62B0008EC
:083CB400D62B0008E02E0008E9
:043CBC00E900000813
:043CC000C100000837
:103CC40000FF0050505050000000010000505F30D1
:103CD4005F000000020101505F303005001803014D
:103CE40001505F30311E003B040101505F3032004F
:103CF400003B050101505F303301011F06010150F3
:103D04005F303401010C070101505F30350000E7DA
:103D1400080101505F3036010107090100505F308E
:103D2400370000000A0000505F315F0000000B0AFA
:103D340001505F31300500170C0A01505F31312DFD
:103D4400003B0D0000505F325F0000000E0D01507B
:103D54005F32300F00E70F0D01505F3231E0E0E0D9
:103D6400100D00505F3232000000110000505F332C
:103D74005F000000121101505F3330010001131184
:103D840001505F3331050018141101505F33323292
:103D9400003B151101505F3333000007161100502A
:103DA4005F3334000000170000505F345F000001EF
:103DB400181701505F3430000003191701505F34A5
:103DC400310000011A1701505F34320500E71B006F
:103DD40000505F355F0000001C1B01505F35301E32
:103DE40000E71D1B01505F35316400E71E000050E1
:083DF4005F365F0000000000D3
:0400000508003AD1E4
:00000001FF
