:020000040800F2
:1000000000080020F1390008713A0008713A000830
:1000100000000000000000000000000000000000E0
:10002000000000000000000000000000713A00081D
:100030000000000000000000713A000819370008B5
:10004000713A000800000000713A0008713A000897
:10005000713A00083D37000851380008E5380008BB
:1000600000000000713A0008713A0008713A000877
:10007000713A0008713A00080000000035390008A4
:100080000000000000000000000000000000000070
:10009000D53900080000000000000000713A000897
:1000A00000000000713A000800000000000000009D
:1000B000713A0008713A00080000000000000000DA
:1000C00010B5064C2378002B07D1054B002B02D02E
:1000D000044800E000BF0123237010BD3801002058
:1000E00000000000BC3A0008044B10B5002B03D000
:1000F0000349044800E000BF10BDC04600000000F6
:100100003C010020BC3A000802B47146490849008D
:10011000095C49008E4402BC7047C04603B4714676
:10012000490840004900095A49008E4403BC704701
:10013000002243088B4274D303098B425FD3030A26
:100140008B4244D3030B8B4228D3030C8B420DD339
:10015000FF22090212BA030C8B4202D312120902C7
:1001600065D0030B8B4219D300E0090AC30B8B4205
:1001700001D3CB03C01A5241830B8B4201D38B03B3
:10018000C01A5241430B8B4201D34B03C01A524158
:10019000030B8B4201D30B03C01A5241C30A8B429B
:1001A00001D3CB02C01A5241830A8B4201D38B0286
:1001B000C01A5241430A8B4201D34B02C01A52412A
:1001C000030A8B4201D30B02C01A5241CDD2C3099C
:1001D0008B4201D3CB01C01A524183098B4201D318
:1001E0008B01C01A524143098B4201D34B01C01A03
:1001F000524103098B4201D30B01C01A5241C3087B
:100200008B4201D3CB00C01A524183088B4201D3E9
:100210008B00C01A524143088B4201D34B00C01AD5
:100220005241411A00D20146524110467047FFE741
:1002300001B5002000F0F0F802BDC0460029F7D05B
:1002400076E7704703460B437FD4002243088B4276
:1002500074D303098B425FD3030A8B4244D3030B4D
:100260008B4228D3030C8B420DD3FF22090212BA12
:10027000030C8B4202D31212090265D0030B8B428E
:1002800019D300E0090AC30B8B4201D3CB03C01A78
:100290005241830B8B4201D38B03C01A5241430B53
:1002A0008B4201D34B03C01A5241030B8B4201D343
:1002B0000B03C01A5241C30A8B4201D3CB02C01AAE
:1002C0005241830A8B4201D38B02C01A5241430A26
:1002D0008B4201D34B02C01A5241030A8B4201D315
:1002E0000B02C01A5241CDD2C3098B4201D3CB01BC
:1002F000C01A524183098B4201D38B01C01A52416B
:1003000043098B4201D34B01C01A524103098B426E
:1003100001D30B01C01A5241C3088B4201D3CB0059
:10032000C01A524183088B4201D38B00C01A52413C
:1003300043088B4201D34B00C01A5241411A00D2EC
:1003400001465241104670475DE0CA0F00D0494255
:10035000031000D34042534000229C4603098B42C5
:100360002DD3030A8B4212D3FC22890112BA030A4D
:100370008B420CD3890192118B4208D389019211CF
:100380008B4204D389013AD0921100E08909C30954
:100390008B4201D3CB01C01A524183098B4201D356
:1003A0008B01C01A524143098B4201D34B01C01A41
:1003B000524103098B4201D30B01C01A5241C308B9
:1003C0008B4201D3CB00C01A524183088B4201D328
:1003D0008B00C01A5241D9D243088B4201D34B0043
:1003E000C01A5241411A00D20146634652415B1085
:1003F000104601D34042002B00D549427047634666
:100400005B1000D3404201B5002000F005F802BDAA
:100410000029F8D016E770477047C04670B5002233
:100420000C4B04000D0001F0BBFD002804D120009E
:10043000290001F0F3FC70BD064B002220002900CA
:1004400001F050F901F0EAFC80231B069C46604451
:10045000F1E7C0460000E041F0B557464E4645463C
:10046000DE46E0B583B0009001910C034F00CE0F43
:10047000610A009C1D03640F0C43009900920193D4
:10048000C80059004B0D9946009A019B6D0AD90F7F
:10049000530F2B439A46009B7F0DDA0094464A4641
:1004A000B046BA1A8E4200D1B0E0002A00DC78E0F3
:1004B0004946002900D1E9E0C9498F4200D195E1C0
:1004C0000125382A16DC8021534609040B439A463D
:1004D0001F2A00DDE7E1202155468B1A61469D4029
:1004E000D1400D43614699404B1E99415346D3403C
:1004F0000D43E41A451BA84280414042241A2302BE
:1005000000D40FE16402640A002C00D139E120001C
:1005100001F050FD0300083B20212800CA1AD040FA
:100520009C4002009D4022439F4200DD73E1D81BA6
:100530000130091A2C008D40C4406B1E9D411300F0
:10054000C2408B402543002714001D436B0709D090
:100550000F232B40042B05D02B1DAB42AD416D4228
:1005600064191D00230200D42DE19D4A01379742F2
:1005700000D1D3E046469B49ED0821404A072A4373
:100580007C054D022D0B640D24052C43F6073443E6
:100590001000210003B0F0BCBB46B246A946A046FD
:1005A000F0BD002A00D184E04A46D21B002F00D0C3
:1005B0006DE12500054300D127E1561E012A00D137
:1005C0003BE2874DAA4200D16AE20125382E12DCB7
:1005D00032001F2A00DDF8E120262500B61A0700A8
:1005E0005346B040D440B540D740461EB0411B1BD7
:1005F0009A463D4305436246551BAC4592415346DE
:1006000052420E004F4688469C1A78E7002A00DCCA
:100610008EE04946002975D161465346194300D101
:10062000F6E0511E012A00D191E16D4DAA4200D1A0
:10063000DCE00125382914DC0A001F2A00DDA2E1D4
:1006400020215346891A8B401D006346D3401D4329
:1006500063468B4019004B1E99415346D3400D43CE
:10066000E4182D188542804140422418230259D5B0
:100670005B4B01379F4251D001215A4B6A081C4005
:1006800029400A43E507154364085FE7614653467E
:10069000194300D1BCE0511E012A00D164E1504D44
:1006A000AA4200D16AE10125382900DD22E70A00CB
:1006B0000EE74D4A7D1C154200D0D0E02500624671
:1006C000534605431A43002F00D037E1002D00D1D7
:1006D000A8E1002A00D16AE16346C51A5346E21A2E
:1006E000A8429B415B42D31A1A0200D403E263463C
:1006F0001D1AAC459241534652421C1B0E008846BF
:10070000A41A23E736498F4270D00125382AA8DC85
:100710008021534609040B439A468EE73C0000258E
:10072000002231E707232B40002B00D010E793E095
:10073000002A74D04A46D21B002F00D1C7E02849B6
:10074000894500D185E10125382A12DC8021090480
:100750000C431F2A00DDABE120212500891A070088
:1007600088408D40D740411E8841D4403D430543D9
:10077000A2446544654592415242524414004F469A
:1007800074E7280001F016FC030018331F2B00DC6F
:10079000C2E62A00083882409F4200DDA9E0DB1B48
:1007A000581C1F2800DCACE115001F3BDD40202851
:1007B00005D040231B1A9A40531E9A411543072324
:1007C00000272B40B0E7ED08054B62072A43E408F9
:1007D0009F420FD02403250B7C05640DD4E6C04650
:1007E000FF070000FFFF7FFFFE070000C008620751
:1007F0000243E4081300234300D186E180252D0342
:1008000025432D03C34C2D0BBEE6604654460E0017
:100810001700C508D8E7C04CFF1A144096E6BF4A37
:10082000791C11426BD122000243002F00D0DBE083
:10083000002A00D12DE1624653461A4300D1B6E0AA
:100840006346C5188542804154444042241823021F
:1008500002D50F00B04B1C403A002800D8E7624692
:10086000851AA8429241534652429146E31A1A0011
:100870004B46D21A130091461A0254D44A464C46AB
:100880002A4300D040E60026002400257CE6A14D46
:10089000A94500D190E00125382A00DDABE680258E
:1008A0002D042C4395E6110055462039CD40A9462C
:1008B000202A06D0402153468A1A934062461A43A2
:1008C000944665466B1E9D414B461D4312E6210032
:1008D000014300D1C4E0511E012A00D1FBE08D4D3F
:1008E000AA4200D1B5E00125382900DD41E70A0020
:1008F0002FE7894CFF1A14406207E4086AE7854A2B
:10090000914200D1E3E06346C21882428041230055
:10091000404253441B18DD075C0807235208154367
:100920000F002B4000E763461D1AAC459241534629
:1009300052421C1B0E008846A41AE5E5002D00D08B
:1009400091E0002A38D180240026240356E763462C
:10095000C51885428041544440422418012723028F
:1009600000D4DFE6022787E66346C51AA842804125
:1009700053464042E41A0127241AC0E56207C00822
:100980000243E40836E7110053462039CB4099462C
:10099000202A06D0402153468A1A934062461A43C1
:1009A000944665466B1E9D414B461D4359E66207C2
:1009B000C0080243E4080DE753465A076346D808C7
:1009C00053460E000243DC0814E715002600203DC4
:1009D000EE40202A03D04025AA1A94402043421E0C
:1009E00090410500354306E6002A7CD06246534616
:1009F000C0081A4300D1FAE6620710438022E408D7
:100A00001203144208D0D908114205D16346D80810
:100A100053460C005B071843420FC000C008520742
:100A20000243E7E6002A00D12DE76346D808534683
:100A30005A070E000243DC08CCE663461D1AAC459B
:100A40009241534652421C1B0E008846A41A01379D
:100A500055E56346D90853465A070A43DC08C9E6F8
:100A600060465446D4E6C008002A00D1BFE66207BB
:100A700010438022E40812031442CDD0DD08154251
:100A8000CAD16346D80853465B070E002C001843B2
:100A9000C2E76346D90853465A070A43DC0899E679
:100AA0006346D80853465A070E000243DC08A1E605
:100AB000110027002039CF40202A03D040218A1A74
:100AC00094402043421E904105003D4351E60C00F6
:100AD0000025002258E5604460459241544452424A
:100AE0000500A4183AE753465A076346D908534607
:100AF0000A43DC087EE61A001C002A4300D0ABE65D
:100B0000C1E620210025091A19E500220025014C23
:100B10003AE5C046FF070000FFFF7FFFFE07000029
:100B2000F0B5DE46454657464E46E0B587B00092E2
:100B300001930B031B0B9B46CA0F4B00040080461E
:100B40005B0D029200D16AE1D44A934200D18CE15C
:100B50005946420FC9000A43802109041143C200CB
:100B60009046CF4A894692469A4400230024039334
:100B7000009E019F3B031B0B9B467B0030005B0DDF
:100B8000FD0F002B00D128E1C44A934200D177E148
:100B90005946720FC9000A438021090411438B464C
:100BA000BF49F2008C4651466344CB1A9A46002353
:100BB000029E6E400F2C27D8BA49A40009598F46CF
:100BC000CB464246029E039B022B16D0032B00D13C
:100BD000A6E2012B00D0DFE0002200230024904693
:100BE0001B052343F60733434046190007B0F0BC0A
:100BF000BB46B246A946A046F0BD0022002490465E
:100C0000A64BEDE72E00DFE7CB4500D2D4E100D1C3
:100C1000CFE101235B429C46444648460027E2441C
:100C20005B46150E1B021D43190C2B041202009586
:100C30001D0C914602910395FFF700FB02006A43E9
:100C40000B04210C804619438A4209D9009D0123D7
:100C5000AC465B4261449C46E0448D4200D8FBE1D7
:100C6000881A0299FFF7EAFA039A24044243090416
:100C7000240C03000C43A24206D90099013B8C4688
:100C80006444A14200D8E1E1A01A424612041A438A
:100C900093464B4659461B0C1D0004930B044946D2
:100CA0000904090C0C001B0C5C43120C6B438846B6
:100CB00051436A43250CAC465B186344994203D9FF
:100CC000802149028C466244190C24041B04240C24
:100CD0008A181C19904202D316D1A74214D25B463F
:100CE000009D013B4F4405934F459B41AC465B4201
:100CF0006344C018854200D3A1E1824200D9F6E1E5
:100D000000D1F1E1059B9B463C1BA742BF41009DE2
:100D1000801A7F42C01B854200D1D0E10299FFF7C3
:100D20008DFA039A0B044243210C070019438A42AF
:100D300000D978E1881A0299FFF780FA039A24040F
:100D400042430904240C03000C43A24200D95DE194
:100D50004146A41A3A041A43049D13041B0C594338
:100D600047466B439C46100C47430B0CBC44634402
:100D700068439F4203D980256D02AC4660441F0C36
:100D800009041B04090C3F185B18BC4200D202E1A5
:100D900000D1FDE001231A43434B5344002B00DCF8
:100DA000AEE0510700D098E15946C90106D5594631
:100DB0003E4B194080238B46DB0053443C498B4219
:100DC00000DD1AE75946D208490711435A465B0528
:100DD00054028846240B5B0D02E75A46009B1A43D7
:100DE00000D17EE05B46002B00D100E1584601F0C7
:100DF000E1F8020003000B3A1D27009EBA1A190001
:100E00005846D64008398840320002439346009A3B
:100E10008A40284953448A469A440023C8E65B46E0
:100E20000343994656D05B46002B00D1CDE058468F
:100E300001F0C0F80B235B429C46020084446646E6
:100E40001D239B1B260011005846DE4008398840B0
:100E500033000343994623008B409846164B0024E9
:100E60009B1A9A460023039382E65A460243914610
:100E70002AD100229A46022390460824039377E65B
:100E80005A46009B1A430D4B9C46E244002A17D158
:100E900002231C4300239B46023389E6FF07000020
:100EA00001FCFFFFD43A0008FF030000FFFFFFFE34
:100EB000FE070000F30300000DFCFFFF01F8FFFF39
:100EC000032332001C4373E69A460323D9460C24BD
:100ED00003934DE6002398469A4601330424039376
:100EE00046E601231C4300239B46013360E60023B2
:100EF000802498460026924B240371E60122524238
:100F00000121C91A382900DD66E61F2900DCABE0A3
:100F10001F204042C31A5846D8400300202904D05D
:100F200058468849514488400243511E8A411A4319
:100F3000072319000024114013420CD00F23134043
:100F4000042B00D1F9E0111D91429B410A005B4244
:100F500059075B021C0BD2080A43904600233FE668
:100F600080244B462403234209D05B46234206D10A
:100F70001C4324032E009046714B240B30E6802442
:100F80004B4624031C432403029E6D4B240B27E68F
:100F9000002B00D100E70098511E8446644484422F
:100FA00000D284E0BC4200D2AEE000D1C1E00A0031
:100FB000F0E6424500D92CE64B46DC07580843468C
:100FC0005B081C434346DF072AE600F0F3FF1523C6
:100FD0009C4684440200634620321C2B00DC2EE732
:100FE00023000838834099460023984636E700F0EE
:100FF000E1FF02000300153220331C2A00DCFBE66F
:1010000000990838814000228B4602E70099013B95
:101010008C466444A14200D99AE6A24200D897E6E1
:10102000831E644494E6AC466144013F8D4200D97E
:1010300080E68A4200D87DE6871E61447AE68542D2
:1010400000D05FE6B94500D95CE656E6A24200D87A
:101050001AE6831E644417E68A4200D800E6AC46CE
:10106000831E98466144FBE5374814005044824093
:101070005B4617008340CC407A1E974123433B4395
:101080001A005B46CB40510709D00F2111400429BB
:1010900005D0111D9142924152429B180A0019023B
:1010A00000D455E7002201230024904698E50A0069
:1010B000BC4200D06EE64B4500D06BE66CE6234B9D
:1010C000234A5344924500DA18E7012149420A1D98
:1010D0008A42894149428B4466E60F211140042926
:1010E00000D161E61100F2E7BC4200D80AE6022313
:1010F0005B429C4600994F444F459B41E3448C46DC
:101100005B426344C018FFE54946009D48004845DE
:101110008941AC46494261448146023A6418C7E7B6
:1011200080245B4624031C4324039046044B240B79
:1011300056E59945E8D30A00BDE7002308E7C04615
:10114000FF0700003E0400001E040000FF03000033
:1011500002FCFFFFF0B55746DE464E464546E0B579
:101160001F000B031B0B16009A46CA0F4B0004000E
:10117000934687B05B0D00D1D5E0BB4A934200D1C6
:10118000F8E05146420FC9000A4380210904114387
:10119000C2009146B54A8A469D180023984602939C
:1011A0003C037B00FA0F3000240B5B0D009200D152
:1011B00096E0AD4A934231D0720FE400224380247E
:1011C00024041443A94AF000944663445B195A1C52
:1011D0000192424600260A2A42DC5A4600994A40B9
:1011E00093464246022A32DC013A012A00D949E1FB
:1011F000022E00D1CAE0012E3DD10023002400229E
:1012000010005A461B052343D2071343190007B0A9
:10121000F0BCBB46B246A946A046F0BD924B264361
:10122000EB18002E00D1BBE00322414611435A4681
:10123000884600994A40802109018C462900614472
:10124000019141460A2900DD33E2934603264246D6
:1012500001279740A6213A00C9000A400F4231D029
:10126000029E022E00D135E2032E00D1D2E1544677
:101270004846012EC1D0019A7D4B94466344002B11
:1012800000DCC0E0420709D00F220240042A05D04A
:10129000021D82428041404224181000E20106D51E
:1012A000744B019A1C4080239446DB006344724ACD
:1012B00093426BDC6207C00864025B050243240BA7
:1012C0005B0D9DE7902189000F4263D188223A424D
:1012D00000D1D7E0009BA2469B4681460296BFE71D
:1012E0002300334300D17FE0002C00D1ADE120008A
:1012F00000F060FE020003000B3A1D201900821A64
:1013000030000839D0408C400443300088405B4AAC
:10131000EB1A944663445A1C0192424600260A2A5C
:1013200000DC5AE79CE753460343994654D05346A2
:10133000002B00D177E1504600F03CFE0B235B42CE
:101340009C460200844411005046083988401D2301
:10135000804660461B1A2000D840030040460343E5
:101360009A4623008B4099460023444D9846AD1A77
:10137000029315E752460243914626D100221D00F2
:101380000223924608329046029309E70024002285
:10139000354B35E7002380249B462403324B2FE74F
:1013A0000222414611438022120194462A006244DF
:1013B000884601920A2900DD52E75A46002000992A
:1013C00004004A40934602260BE70C221D0003232B
:1013D000814690460293E3E600239A4604339846FA
:1013E000033B00250293DBE6424601331A432B0000
:1013F00090465A1C019242460024002001260A2AE7
:1014000000DCEAE62CE70122D21A382A00DDF4E6F5
:101410001F2A00DC2AE11F214942CB1A2100D940B2
:101420000B00202A05D0164A019D94466544AC4025
:101430002043421E90411843072319000024014015
:1014400003420CD00F230340042B00D140E1031DC5
:101450008342A4411800644261076402240BC2085D
:1014600000230A43CCE6C046FF07000001FCFFFF53
:10147000FF030000FFFFFFFEFE0700000DFCFFFF63
:101480003E04000049464A460904090C0D00160CAA
:10149000020C0004000C4543AC4605007543A84609
:1014A00015000F007543009202952A00009D6F43BE
:1014B00065462D0CA94647444F44B84505D915004B
:1014C000802252029046454402953D0C03956546A4
:1014D0002D043F042D0CAC463D0065440495250CBD
:1014E0002404240CAC4625007543A84665460F002D
:1014F0006943414489466743390C49446E438845F2
:1015000003D980225202904646440D0CA84635006D
:1015100045440595039D3F04A8463F0C0904C9199D
:1015200088444546039555462E04360C2F0C35004D
:101530004543784381463800A8462D0CAA46009AB8
:10154000504372434A445244914503D980256D0269
:10155000A9464844150CA94645462D042D0CA8461D
:1015600065467D43120448449044A94632006546CE
:1015700062436E437C43170C3619BF19BC4203D932
:1015800080246402A446E144029C039EA446059D77
:1015900066448E428941AC4612043C04120CA218E7
:1015A0006244494254184644A4464645A4418246F2
:1015B0006442A046AA4292418C458941E244D0440B
:1015C000494252420A43A045A441824589416442AE
:1015D00049420C4341463F0CD2191219CC0D0499D3
:1015E00070020843411E884141464A44F60D5202AA
:1015F0003043490214430843D20135D50122430840
:1016000002401343E0071843640834E6009BA246F7
:101610009B4681468024534624031C4324034A46A8
:101620002E4B240BECE500F0C5FC15239C468444AE
:101630000200634620321C2B00DC84E6002399461E
:101640002300083883409A468EE600F0B3FC02007F
:101650000300153220331C2A00DC4EE60200340061
:10166000083A0020944052E6019304E61C4B210006
:101670009C460300019DD3406544A94019430300E3
:10168000AB40581E834119430800D4404B0709D092
:101690000F230B40042B05D00B1D8B428041404291
:1016A00024181800230200D4D6E6012300240022C7
:1016B000A6E50F29AAD1802352461B031A42A9D0BE
:1016C0001C42A7D11C43009B02009B46034B97E59D
:1016D0000024C1E60024014B220091E5FF07000031
:1016E0001E040000F0B54E464546DE465746E0B5BE
:1016F00085B0009001910C034F00CE0F610A009C51
:10170000B046640F0C4300997F0DC80011001A0009
:101710001B039C460091019251004B0D9946019B81
:10172000009DD90F63466A0F5B0A1343EA00944693
:101730009346C14A03900293914500D1CDE0012523
:1017400069404D467D1BAA468E4200D180E0002DA7
:1017500000DC35E34946002900D1DFE0974200D1A3
:1017600094E152460125382A19DC8022029B12049A
:101770001343029352461F2A00DDE3E15346202221
:101780006146029DD21A9540D9400D436146914071
:101790000A00511E8A411543029ADA40A41A451BD9
:1017A000A84280414042241A230200D43DE1640251
:1017B000640A002C00D147E1200000F0FBFB03008D
:1017C000083B20212800CA1AD0409C4002009D40BE
:1017D00022439F4200DD77E1D81B0130091A2C001B
:1017E0008D40C4406B1E9D411300C2408B40254379
:1017F000002714001D436B0709D00F232B40042B37
:1018000005D02B1DAB42AD416D4264191D00230272
:1018100000D440E1884A0137974200D101E1012616
:1018200043468649ED0821404A072A437C054D027C
:101830002D0B640D1E4024052C43F6073443100085
:10184000210005B0F0BCBB46B246A946A046F0BD9B
:10185000002D00DCD0E24946002900D0D4E06146EA
:10186000029B194300D12BE1691E012D00D1D9E162
:10187000954200D10AE10125382917DC8A465346F2
:101880001F2B00DDE7E12022D21A029B6146934024
:101890001D005346D940634693401A000D43511E24
:1018A0008A4153461543029ADA40A4182D188542FE
:1018B000804140422418230200D4B6E05E4B013739
:1018C0009F4200D1ADE001215C4B6A081C402940D9
:1018D0000A43E507154364088DE7594A029B92467F
:1018E0006246BA441A432CD08E422ED05246002A69
:1018F00060D0002F00D1DBE063460E00029CD808C8
:1019000062070243E4081300234300D154E2802518
:101910002D0325432D03484C2D0B8CE76146029B7C
:10192000194300D1CCE029000139012D00D188E113
:10193000954200D1AAE00125382900DD2FE78A462B
:1019400018E7012251408E42D0D15346002B00D1DE
:10195000BEE0002F00D038E1CA462200024300D189
:10196000E2E15346591E012B00D10DE2324A924565
:1019700000D1D2E10127382913DC1F2900DDEEE177
:101980002022029B521A250007009A46CC40904024
:101990009540CF40A244421E904153462F430743F7
:1019A00002933D00654465459241029B52424F4679
:1019B000D41880E7234A7D1C154200D0AAE0624675
:1019C0002500029B05431A43002F00D0F5E0002DAF
:1019D00000D16BE1002A00D152E16346C51A029B97
:1019E000E21AA8429B415B42D31A1A0200D4D5E105
:1019F00063461D1AAC4592410126029B52421C1BB4
:101A00008846A41A0E40F6E697423FD0524601257A
:101A1000382A00DD4AE78022029B12041343029316
:101A20002DE73C000025002205E707232B40002B73
:101A300000D0E2E66BE0C046FF070000FFFF7FFF3B
:101A400001F8FFFFFE070000280000F0B3FA0300D2
:101A500018331F2B00DCB4E62A00083882409F426E
:101A600000DDB9E0DB1B581C1F2800DCA0E11500DD
:101A70001F3BDD40202805D040231B1A9A40531EEF
:101A80009A411543072300272B40D0E7C00862077F
:101A90000243E40837E7EA0863071A43D34BE40834
:101AA0009F4200D12FE72403250B7C05640DC2E67D
:101AB000CA462200024358D163460E00029C03939B
:101AC000039B5746DA08E7E7C94CFF1A144092E631
:101AD000C84D7A1C2A4200D084E022000243002F25
:101AE00000D0EFE0002A00D1E5E0624602990A4307
:101AF00000D1C5E06346C5188C46854280416444E8
:101B000040422418230202D5B94B01371C40BA4683
:101B10000395D5E76246851AA84292415242914602
:101B2000029BE31A1A004B46D21A130091461A027E
:101B30006CD44A464C462A4300D03AE6002600249C
:101B4000002578E6029953460D00203AD540202B17
:101B500006D04022D21A0B00934062461A439346A5
:101B60005B465A1E93411D4319E653465A1E012BEC
:101B700000D1C6E09D4EB24500D1BDE688460E00BC
:101B80000125382A10DC1F2A7FDC20212500891A34
:101B9000070088408D40D740D440411E8841029BB9
:101BA0003D431B1B054302936246551BAC459241C6
:101BB000029B52424F469C1AF6E5002D00D0B7E03A
:101BC000002A00D1F0E001260E4063460298D908B1
:101BD00042070A43C40896E6854CFF1A1440620780
:101BE000E40860E781498A4200D1C9E06346C11830
:101BF00081428041029B4042E3181B18DD075C08CC
:101C0000072349080D4317002B4010E763461D1AB0
:101C1000AC4592410126029B52421C1B8846A41AE5
:101C20000E40C6E56346C518029B854280419C462E
:101C30004042644424180127230200D4F5E6022719
:101C400041E66346C51AA8428041029B4042E41A1D
:101C50000127241AA8E5029D52462B00203AD340C2
:101C600019005346202B06D04022D21A2B00934055
:101C700062461A4393465D466B1E9D410D4315E631
:101C80006207C0080243E4080DE71100270020396D
:101C9000CF40202A05D040218A1A944025000543D0
:101CA0000395039D6A1E95413D437DE7002A00D1BF
:101CB00044E701260E406346D908029B5A070A43AF
:101CC000DC08F0E6002A28D06246029FC0083A43AA
:101CD00000D1DCE6620710438022E40812031442BC
:101CE00009D0FD08154206D1634601262C00D8080C
:101CF0007B0718430E40420FC000C0085207024342
:101D000001E663461D1AAC459241029B52421C1BE0
:101D10000E0088460127A41A46E56346D908029BAF
:101D20005A070A43DC08EEE56346029C0393C7E6C4
:101D3000C008002A00D1AAE6620710438022E40806
:101D400012031442D7D0029FFD081542D3D1634637
:101D50000126D8087B072C0018430E40CBE70A0069
:101D60002700203AD740202905D04022521A94401B
:101D7000250005430395039D6A1E95412F4310E6F8
:101D800014000025002256E5029B604499466045F8
:101D900092414C4452420500A4184CE71A001C0022
:101DA0002A4300D0B3E6C9E6802400262403AEE52A
:101DB00020210025091A17E5002200250B4C3AE5E1
:101DC000002D00D1F6E54B46DA1B9246002F00D1DC
:101DD0006FE6382A05DC80263604344388460E0038
:101DE000D1E688460E000125DEE6C046FF0700006A
:101DF000FFFF7FFFFE070000002D00D168E64B4685
:101E0000D91B002F01D18A46A7E50127382900DD1B
:101E1000C7E5802212041443AFE5C0460B00020060
:101E200070B5164D0C0382B049000020009201935A
:101E3000240B490DDE0FA94204DD1148814203DD68
:101E4000104BF01802B070BD8020400320430E4CB0
:101E5000641A1F2C08DD0D4B5B1AD8400300584252
:101E6000002EEFD11800EDE7094B009A9C460300C5
:101E700061448B40E2401343F1E7C046FE0300009B
:101E80001D040000FFFFFF7F330400001304000067
:101E9000EDFBFFFF70B5002816D0C317C5185D40D5
:101EA000C40F280000F086F8104B1B1A5B055B0D71
:101EB0000A2814DC02002E00153296400B22121A5A
:101EC000D5402D032D0B03E0002400230025002620
:101ED0001B052B43E40723433000190070BD0B386A
:101EE00085402D0300262D0BF2E7C0461E0400009E
:101EF00010B5041E10D000F05DF80E4B1B1A5B05E8
:101F00005B0D0A280FDC0B222100121AD14015307C
:101F10000A038440120B01E0002300221B05134337
:101F20002000190010BD22000B388240120300244B
:101F3000120BF3E71E0400008446100062468C4634
:101F40001900634600E0C0461FB500F009F90028FB
:101F500001D40021C8421FBD10B500F049F840422D
:101F6000013010BD10B500F0FBF8002801DB0020A7
:101F700010BD012010BDC04610B500F0F1F80028DA
:101F800001DD002010BD012010BDC04610B500F0DD
:101F900073F8002801DC002010BD012010BDC046F0
:101FA00010B500F069F8002801DA002010BD01200A
:101FB00010BDC0461C2101231B04984201D3000C14
:101FC00010391B0A984201D3000A08391B099842AC
:101FD00001D30009043902A2105C40187047C046C2
:101FE00004030202010101010000000000000000E2
:101FF000F0B55746DE464E464546E0B50D000400B6
:10200000E80F83460903D80F090B824619488C460E
:102010001F0369005E00490D3F0B760D814218D009
:1020200086420FD00120B1420DD1BC450BD1944264
:1020300009D1D3451CD0002905D160462043431E59
:10204000984100E00120F0BCBB46B246A946A0463C
:10205000F0BD01208E42F6D1614639430F0017438F
:102060002743F0D15B465246981A431E9841EAE74F
:102070000020E8E7FF070000F0B557464E4645460A
:10208000DE46E0B50D000F03390B83B00400804637
:1020900001915800E90F314F400D8C466E00190335
:1020A00082469146760D090BD80FBE421FD0BA4525
:1020B0000FD0002E2FD15546019E3443002D27D13D
:1020C0000A433AD0002C45D100281AD101204042C1
:1020D00017E011433BD1002E02D1019F2743F3D0DB
:1020E000844509D16346002BF0D0604609E0019F8A
:1020F00027432CD1B24524D063460220013B18402F
:10210000013803B0F0BCBB46B246A946A046F0BDBC
:10211000002CD9D0E4E75446002CEDD08445EBD117
:102120005645E9DCDEDB019B8B42E5D8DAD1C845B8
:10213000E2D80020C845E4D2D4E70020002CE0D04B
:10214000DAE7114303D18445D6D10020D9E7022034
:102150004042D6E78445E6D0CEE7C046FF07000000
:10216000F0B557464E464546DE46E0B50D000F0336
:1021700004008046E80F390B844683B05800304F86
:10218000400D01911E03690082469146490D360BB0
:10219000D80FB94220D0BA450FD000292BD10199D0
:1021A0000C435146002937D1324338D0002C44D15A
:1021B000002819D10120404216E0164313D100290E
:1021C00002D1019F2743F3D0844520D063460220EB
:1021D000013B1840013807E0019F274303D18A459E
:1021E000F4D116431FD0022003B0F0BCBB46B24668
:1021F000A946A046F0BD5446002CE7D08445E5D161
:102200005145E3DC03DB019BB342DFD80FD06346CB
:10221000002BCFD06046E7E7002CC9D0D4E70020E0
:10222000002CE1D0D2E78445D0D10020DCE7C845BE
:10223000CCD80020C845D7D2E9E78445E3D0C5E72C
:10224000FF0700008023421E5B0401209A4210D247
:10225000084B196881431960C02107485A60026A17
:1022600009061202120A0A4302620020072298603D
:102270001A60704710E000E000ED00E020210D4BF7
:1022800010B51A68FA208A431A6040221968C00102
:102290000A431A60022219680A431A600122196867
:1022A0000A431A60FFF7CEFF034A136A1B021B0A98
:1022B000136210BD0020024000ED00E03449354BB0
:1022C0000A681A4080231B0113430B600821324B1C
:1022D0001A688A431A601A6830490A401A60DA6834
:1022E0000E31FF310A40042A12D0012219680A4334
:1022F0001A60042219681142FCD00322D968914364
:10230000023A0A430C21DA60DA680A40042AFBD157
:10231000DA6823490A40DA60DA6822490A40DA605A
:10232000D968214A11408022D2030A43DA60D96871
:102330001E4A11408022D2020A43DA60DA681C4940
:102340000A40DA608022D96812020A43DA60DA6849
:1023500018490A40DA60DA6817490A40F021DA6061
:10236000DA688A43DA608022196852040A431A60E4
:102370008022920419681142FCD00322D9680A43D2
:102380000C21DA60DA680A400C2AFBD17047C0469B
:1023900000700040FFE7FFFF00100240FFFEFFFF5C
:1023A000FFFFFF8FFFFFFFF0FFFF3FFFFFFFC3FFB8
:1023B000FFFFFEFFFFC7FFFFFFF8FFFF8022254B57
:1023C0005205996B24480A439A638022016852009F
:1023D00011430160196D2148014019658021186D74
:1023E000C90001431965196D0A431A6580229200DC
:1023F000196D1142FCD0196D194A11408022520208
:102400000A431A658022196DD2020A431A65CA224C
:10241000144B5A62773A5A62D9682D320A43DA600D
:102420004022D9681142FCD019680F4A11400F4A66
:102430000A431A6059680E4A11400E4A0A43802125
:102440005A60DA688A43DA60FE225A629A3A5A621D
:102450007047C0460010024000700040FFFEFFFFC2
:10246000FFFFFCFF002800408080C0FF00361700FF
:10247000C00000FF0124240001213448F0B5C36AE4
:1024800080240B43C362A023DB051A682406920054
:10249000920822431A605A682D4C042722405A6041
:1024A000C0229C68120622439A605A6A02241201D2
:1024B00012091A435A62836B10250B4383638023EE
:1024C0000820DB051A688A431A601A68A2431A605A
:1024D0001A68BA431A601A6882431A601A68AA43D3
:1024E0001A6060221D6895431D6080251E68194A88
:1024F0002E431E601E6816401E60DE6880220E435A
:10250000DE601F269E62144E1202DE62134E32609F
:1025100003229E6996439E619E695D32BE439E6121
:102520009E693043702698619869B04302439A616E
:102530009A690B48AA439A611A6A0A431A62026AA4
:10254000A24302621A688A431A60F0BD001002407A
:10255000FF7FFFFFFFFCFFFF0F27000000E100E00F
:102560000008014002223449F0B5CB6A33481343D6
:10257000CB62334B04271C681025044080200001E7
:102580002043202418605868A0435860C0209C68ED
:102590000001204398601C6A2A480440A020C00320
:1025A000204318624B6B08243B434B630121264BAD
:1025B0001868884318601868904318601868B84312
:1025C00018601868A04318601868A8431860602055
:1025D0001D6885431D6080251E681C482E431E60B3
:1025E0001E6806401E60DE6880200E43DE601F26E7
:1025F0009E62174E4003DE62164E306003209E69D5
:1026000086439E619E695D30BE439E619E693443F0
:1026100070269C619C69B443204398619869A843E3
:102620009861186A08431862186A02431A621A68A5
:102630008A431A60F0BDC04600100240FFF3FFFF5E
:1026400000040050FFFF0FFF00080140FFFCFFFFE8
:102650000F27000000E100E00723984AF0B5D16A97
:1026600097480B43D362A0238022DB051968D2016F
:1026700001400A4380211A605A6804248A435A6040
:102680009A68022702400C209A608E4A4025116801
:10269000A44681432143116051682E00B943516023
:1026A00091680E378143916080211C6886484901FA
:1026B0000440214319605968A94359609968014051
:1026C000996080211C688148C9000440214320246E
:1026D00019605968A1435960996801409960802147
:1026E0001C687B48C9030440214319605968794C30
:1026F000214059609968784C0140996080211868A0
:10270000C90220400143196059687448014059606A
:10271000996821400324996001211068A04308436F
:1027200010605068884350609068A04390601068C3
:10273000BD34A043284310605068383DA843506022
:102740009068A04390601868A043304318605868B0
:10275000A84358609868A043A419802698601D6813
:102760005F487604054025431D605D68BD435D609C
:102770009D685C4F05409D601D683D4035431D6070
:102780005D68594E35405D609D683D4010279D60F5
:10279000156805402C4314605468BC435460946829
:1027A0000E3F0440802094601D68504C400325403B
:1027B0002843186058684E4D28405860986820405B
:1027C000986080201D684B4C4002254028431860CB
:1027D0005868494D2840802558609868ED0520408C
:1027E000986046480468A400A4082543056044682E
:1027F000434D2C40446084680F25A400A4088460E5
:1028000003241868A0431860586888435860986883
:1028100020433C4C9860A068A843A0603A480568F3
:102820000D430560C56829430C25C1601968A9439B
:1028300019605968B9435960996829439960A1683A
:10284000E435A943A160016839430160C168394397
:10285000C160302167461E688E431E605E68BE43BD
:102860005E609E6831439960A36828491B4E0B4007
:10287000A360036818493B430360C3683B43C360DC
:1028800013680B401360536833405360C023916852
:102890001B030B43936023694026AB4323618023D2
:1028A0002024802102689B001A430260C2681343FF
:1028B000C360174B1C601E601960F0BD0010024021
:1028C000FF3FFFFF00040050FFCFFFFFFFF3FFFFBC
:1028D000FFFF3FFFFFF7FFFFFFFFF3FFFFFDFFFFDE
:1028E000FFFCFFFFFFFFFFFCFFEFFFFFFFFFCFFF3E
:1028F000FFFBFFFFFFFFFCFFFFFEFFFF0008005094
:10290000FF7FFFFF0000014000040140FFF0FFFFD8
:1029100000E100E0F8B5FFF7BDFA0D000400184A29
:10292000184BFEF717FC2B002200FEF713FC2B00C0
:102930002200FEF70FFC144A06000F0020002900B9
:10294000124BFEF707FC2B002200FEF703FC0200EF
:102950000B0030003900FDF77FFD0D4A06000F0027
:10296000200029000B4BFEF7F5FB02000B003000A6
:102970003900FEF7B7FE084A084BFDF76DFDF8BDBC
:102980007F34B9628086EC3D0F7CE53B5865AC3EF8
:1029900001007529C9B10C3F00202E787BA6603F4D
:1029A000A02330B5D04A0400DB050800032971D804
:1029B00080214903FDF7A8FB0210525E08209D69A3
:1029C0002843986198690843986180209D69400573
:1029D00028439861936910E08021986909030143B5
:1029E000996110219869014399618021986949058D
:1029F00001439961802391695B030B439361A02399
:102A0000DB05502C59D82D2C59D920002E382228DE
:102A100055D8FDF783FB99005400DC00FA000B0148
:102A20002E01420158016B017B017E01850154009A
:102A30005400540054005400C10054005400540089
:102A400054005400540054005400540054005400E6
:102A500054005400540054005400620080209D69CA
:102A600000032843986198690843986180209D6914
:102A70004001ADE780209D69000328439861986973
:102A800001439961802198694905014399619169E0
:102A90001023B2E7802198690903014399618021DD
:102AA000986949030843986180209D69400528433F
:102AB0009861936919439161A1E75F2C28D0802127
:102AC0009869090401439961802190698902014351
:102AD000916180219869C903A2E08021986901432E
:102AE0009961022190690143916180219869C9032C
:102AF000014399618021986989030143996180218B
:102B00009869090101439961802198698900A6E0CB
:102B100080219869090401439961802190698902A3
:102B20000143916180219869C90301439961202182
:102B30009869014399618021986909050143996168
:102B40008021986989045AE0802198690904014329
:102B5000996180219069890201439161802198697E
:102B6000C9030143996180219869890301439961EF
:102B70008021986909050143996180219869890438
:102B800001439961802391695B020B4393610823A0
:102B900091690B43936130BD80219869014399612C
:102BA000022190690143916180219869C903014321
:102BB000996180219869890301439961802198690D
:102BC000090101439961802198698900D8E7802132
:102BD0009869014399610221906901439161402103
:102BE0009869014399612021986901439961802185
:102BF000986909010143996180219869890001431D
:102C00009961802391695B022DE080219869090414
:102C100001439961022190690143916140219869C2
:102C20000143996180219869890382E7802198692D
:102C30000143996102219069014391618021986962
:102C4000C903014399612021986901439961802159
:102C500098690901014399618021986989040143B8
:102C60009961012391690B439361802391691B034F
:102C70008FE780219869014399610221906901439E
:102C8000916140219869014399612021986901432C
:102C90009961802198690905DCE780219869090418
:102CA0000143996102219069014391614021986932
:102CB00001439961802198698903014399618021C9
:102CC000986909051EE7802198690143996180216F
:102CD000906989020143916140219869014399619A
:102CE00098692021E9E7C0460004005080219869D6
:102CF00001439961802190698902014391614021DA
:102D000098690143996198692021F6E680219869C4
:102D10007EE7802198690143996190690221ECE77F
:102D2000802198690143996190690221D2E7C046E8
:102D3000F8B58023214E1B02B269FA271343B36111
:102D400001231F4C1F4D2268BF00134323602868D6
:102D50001D49FDF773FA1D4B99420BD100236363A4
:102D60008023B2691B0613430122B3612368934396
:102D70002360F8BD28681449FDF760FAB94201D212
:102D80000023636328681049FDF758FA104B9942F5
:102D900001D8104B636328680B49FDF74FFA0E4BBF
:102DA000994201D80D4B636328680749FDF746FA3D
:102DB0000B4B9942CBD80B4B6363C8E7000800501C
:102DC0000008014080010020102700000F270000AC
:102DD000B70B0000B80B00006F1700007017000061
:102DE00027230000282300000A200F21044B1B6822
:102DF0001B0C9A06920F50430B40C0187047C046F8
:102E0000002800400A200F21044B1B681B0A5A06A9
:102E1000520F50430B40C0187047C0460028004076
:102E20000A200F21034B1B685A06520F50430B40D8
:102E3000C018704700280040F0B54C4B4C4D197835
:102E400085B0002900D183E02B0075331A782B0060
:102E5000E1273C267F331B783F017A437343D31825
:102E600000935C1C434B93351C60FFF7BDFF029041
:102E7000FFF7C8FF029B70435F433F18FFF7D0FF87
:102E80003D4BC019471C1F602D78009B7543181AD5
:102E9000854207D2394B3A4A1B781278134349D1FD
:102EA00005B0F0BD8023374A1B029169364E0B43B3
:102EB00093610123326813433360F06A0130FFF7F6
:102EC00017F8029003912000FFF712F8009001918B
:102ED000601BFFF70DF8009A019BFDF721FE002211
:102EE0002A4BFEF737F9FDF799FA84B23800FEF75E
:102EF000FFFF009A019BFDF713FE0022234BFEF714
:102F000029F9FDF78BFA83B2FA2021491B1B8000B7
:102F10005843091BFDF796F980B2FFF7FBFC02004E
:102F20000B0002980399FEF715F9FDF777FA80B2C6
:102F30007063B5E78023134A1B0691690B43012197
:102F40009361114B1A688A431A6000225A63A7E7FB
:102F500080230C4A1B0690690343012093610A4BAE
:102F60001A6882431A6059639AE7C046BB00002082
:102F70000000002078010020740100208901002059
:102F80008A01002000080050000801400088C3406A
:102F900010270000CA23F0B5464C85B06362773B2A
:102FA0006362E2682D331343E3604023E2681A4210
:102FB000FCD02368404D0293AB1DDE7F2B00EF7EDB
:102FC0002F331B780A2138000193FDF7B1F8C0B206
:102FD00003050A2138000393FDF730F9039BC9B2BA
:102FE00001980F040A211F43FDF728F9C9B23000E8
:102FF0000F430A21FDF79CF8C0B2000307430A21E2
:103000003000FDF71BF90198CEB20A21FDF790F8C8
:103010003602029A294BC0B23E43000113400643D8
:103020001E43266063680A2102932B004D331F78EC
:103030002B0043331E782B0039331B78573518008B
:103040000193FDF7FBF82D78C9B26D0338000D43ED
:103050000A21FDF76DF8C0B2000505430A213800CA
:10306000FDF7ECF83000CFB20A21FDF761F83F041C
:103070002F430A21C5B23000FDF7E0F82D03C9B295
:103080003D43090201980D430A21FDF751F8029AC8
:103090000B4BC0B213408022000105431D43656005
:1030A000E3689343E360FE2363629A3B636205B087
:1030B000F0BDC04600280040000000208080C0FF16
:1030C000C00000FF02000020054B0021595691422C
:1030D00005D00130C0B20A331F28F6D1E030704766
:1030E000000000200123F0B55B4285B001900392FF
:1030F0001E0000221F0018001C00164D0291012125
:1031000069568C4601998C4510D153B2711C00D17F
:103110001E00002169568C4602998C4505D0791C09
:1031200016D0411C02D1180000E01F000132D2B2BB
:103130000A351F2AE3D1421C00D13000621C00D1A5
:103140001C00039BC0B2013300D1E0B205B0F0BD5A
:103150001C00EBE700000020F8B5802406000D00FD
:10316000E405002826D0A16A15480131FCF7E0FFEC
:103170003100FCF7DDFFE062E36A5B0863638024F3
:103180000026E4056662A16AE76A01310C48FCF793
:10319000CFFF3900FCF7CCFFFA2168438900FCF728
:1031A000C7FF084B1860084B1E60012322681343B9
:1031B0002360F8BDFA239B00E3626063DFE7C0464B
:1031C0000048E8015C010020600100200022FA2193
:1031D00010B5054B05481A600132054B91401A7035
:1031E000FFF7BAFF10BDC046580100200A020000D8
:1031F00054010020202010B5174AFF301749125CF7
:1032000017480B6800881B1A934207D901231548F9
:1032100004681C4202D104682343036012480B680F
:1032200000881B1A9A4207D202230E4804681C42E7
:1032300002D10468234303600B680C4909885B1AB8
:103240009A4207D20423074A1168194202D1116831
:103250000B43136010BDC046000000208001002019
:1032600094010020000401409201002096010020FA
:10327000F0B585B0FFF7BEFFFFF7B6FD63285AD85B
:103280000A21FCF755FF3030C4B22600303E7342AD
:103290005E41F6B2524D2C70FFF7A6FD0A21FCF7F5
:1032A000CDFF30316970FFF7ADFD632846D80A21A4
:1032B000FCF73EFF3030C0B20300303B5A4253416E
:1032C000DBB20293A870FFF79DFD0A21FCF7B6FF61
:1032D000444B454A1B78127830311343434AE97016
:1032E0001278134302D00122414B1A70414B424FD6
:1032F0000393424B38681B7819000193FCF79EFF3B
:10330000039BFF331B7B013B994202D10022384BC8
:103310001A70FFF769FD052813D8354B1B78002B71
:1033200013D1019B002B10D0354B187843425841E4
:10333000C0B205B0F0BD3F240026ABE73F2000231C
:10334000BFE7FFF751FD1528E7D8039BBB331A7879
:10335000A023DB05012A3AD18022996952000A4351
:103360009A613B689B0705D1002E03D131002000F4
:10337000FFF716FB032339681940012902D1687849
:10338000FFF70EFB032339681940022905D1029B80
:10339000002B02D1A878FFF703FB032339681940FB
:1033A000994202D1E878FFF7FBFAFA213868C900A0
:1033B000FCF744FFFA22A0239200DB0591420AD8D1
:1033C000996918320A439A61FFF736FDACE780220B
:1033D00099695204C3E780229969D204F2E7C04692
:1033E0006A0100208C0100208B0100208D0100204B
:1033F000870100200000002080010020F70000204D
:103400008801002070B50C00002847D0604D614E47
:10341000013014D1604B1A78002A02D000221A70B1
:103420000AE00A23012032785343EB18185600288B
:1034300002DDFFF747FE3070002C36D142E00A2251
:1034400033785A43A9188B78002B20D0524B534A1B
:103450001878002818D101301870CB791370002C1F
:103460006CD00A214D484B4A03781B191478484AFE
:1034700061435218517ADBB2127A03708B425CD8E6
:1034800093425BD2017059E01278CA71C6E72900F5
:10349000AA560120085690421BD133703E4B1B7830
:1034A000002C00D171E0002BDBD10A220120394D24
:1034B000374B29784A43D1569B1818562200FFF7FC
:1034C00011FE28700A20334B1B785843344BC01828
:1034D0005AE00133DBB20A311F2BDAD1162A11D0A0
:1034E00006DC092A0BD0102AD8D1FFF721FCD5E73A
:1034F0001E2AD3D1FFF7BCFE0028FBD1CEE7FFF791
:1035000049FDCBE780220123D20511680B431360EC
:10351000244B25491868FCF791FE244B994206D1AB
:1035200080220121D20513688B431360B6E72B007C
:10353000D9331878FFF74AFEEAE702702020174BCC
:103540001B4C1D782070632D05D964212800FCF7E1
:10355000EFFD3030C0B20A2160702800FCF7E8FDB2
:103560000A21C0B2FCF76AFEC9B2002902D12023A9
:10357000632D01D93031CBB20A212800A370FCF7AA
:103580005DFE20003031E17070BD002BD6D199E78F
:103590000000002086010020850100208401002019
:1035A0000300002080010020102700000F270000EA
:1035B0006E010020F7B5FEF761FEFEF77FFEFFF714
:1035C0004BF8FEF7FBFEFEF757FFFEF7CBFF20217F
:1035D0000800FFF7E5F980230021444E1B06B2697D
:1035E00008001343B361FFF70DFF414C2060A02793
:1035F000FF05404B404D01931A00002313702B70C0
:103600008023BA69DB041343BB618023BA695B047E
:103610001343BB618023B2691B061343B361FFF7F9
:10362000E9FD364B1A78002A03D0FF222A700022C7
:103630001A70334B1A78002A03D0FB222A7000221A
:103640001A70304B1A78002A03D001222A70002207
:103650001A702D4B1A78002A03D005222A700022F6
:103660001A702A4B1A78002A04D0012201990A7094
:1036700000221A70264B1A78002A04D0FF220199E2
:103680000A7000221A700020019B0021185669560A
:1036900003000B4302D0FFF7B5FE20600321032295
:1036A0001C4D2B681940134203D123681878FFF78B
:1036B00077F9032329681940012903D12368587831
:1036C000FFF76EF9032329681940022903D1236803
:1036D0009878FFF765F903222B681340934288D14D
:1036E00023681100D878FFF75BF980E700080050E5
:1036F0006401002069010020680100208C01002085
:10370000890100208D0100208A0100208B0100200A
:103710008801002080010020064A136801331360ED
:10372000054A1388002B03D01388013B9BB21380FA
:103730007047C046800100207C0100200122374BE9
:1037400070B55969114216D019683548914319600E
:1037500004683449344D0C80344C2178002927D139
:10376000016822702980D9689143D96099680A4319
:103770009A6001225A6102225969114217D01968D0
:10378000274891431960046829492A4D0C802A4C26
:103790002178002926D10168298001212170D9686A
:1037A0009143D96099680A439A6002225A6170BDB8
:1037B000002121709C68214E94439C60DC68144376
:1037C000DC60046828882A25241A1D48FF35405DDE
:1037D0001C4D8000844202D929703270C9E73170D3
:1037E0002A70C6E7002121709C68174E94439C60A4
:1037F000DC6822432A24DA6000682A88FF34801AB1
:103800000F4A0125125D114C9200904202D921709D
:103810003570CAE731702570C7E7C0460004014023
:1038200080010020940100209A0100208F010020D7
:1038300092010020980100208E01002089010020C3
:10384000000000208C010020880100208B01002056
:1038500004221C4B70B55969114217D019681A48D7
:103860009143196004681949194D0C80194C21784D
:1038700000290CD10168298001212170D968914368
:10388000D96099680A439A6004225A6170BD002188
:1038900021709C68012694439C60DC6822432A24A2
:1038A000DA6000682A88FF34801A0B4A0B4D125DDB
:1038B0000B4C9200904202D926702970E4E72E70DA
:1038C0002170E1E700040140800100209601002002
:1038D0009C01002090010020000000208D010020AC
:1038E0008A0100208022104B92005969114213D0A6
:1038F00018680E49084018600D48006910420CD144
:10390000986802439A60DA680A40DA60802292007E
:103910005A6119680A431A607047D8680243DA602E
:103920009A680A409A60F1E700040140FFFDFFFF3A
:103930000004005080230221DB051A6910B50A42F9
:1039400034D01A698A431A611C4A11680131116026
:1039500011681B4A1268914218DD1A490A78002A38
:1039600004D101211A688A431A600FE016480268E0
:103970002E2A1FDC5B6B002B19D1531C134A0360EA
:103980009B00D1184988985AFFF7E6FB8023DB0596
:103990001A69920503D51A690D490A401A61012175
:1039A0001A690A4202D01A698A431A6110BD1E219F
:1039B0000020E9E700220A70D3E7C046600100203A
:1039C0005C0100205401002058010020143B000835
:1039D000FFFDFFFF0121044B1A690A4202D01A6958
:1039E0008A431A617047C0460008014070470000D2
:1039F00013488546FFF7FAFF12480168090E124A7C
:103A0000914205D1114812490160124812490160E2
:103A100012481349134A002302E0D458C450043317
:103A2000C4188C42F9D3104A104C002301E01360F3
:103A30000432A242FBD300F01DF8FFF7BBFDFEE706
:103A400000080020040000001F00000034100240A5
:103A50000100000000000140000000000000002004
:103A600038010020DC3B000838010020A0010020C4
:103A7000FEE7000070B500260C4C0D4D641BA41031
:103A8000A64209D1002600F019F80A4C0A4D641B21
:103A9000A410A64205D170BDB300EB58984701367B
:103AA000EEE7B300EB5898470136F2E7D43B000845
:103AB000D43B0008D83B0008D43B0008F8B5C0460A
:103AC000F8BC08BC9E467047F8B5C046F8BC08BCB8
:043AD0009E46704757
:103AD400080C0008FA0B0008D80B0008040C0008B6
:103AE400D80B0008EE0E0008D80B0008040C0008E0
:103AF400FA0B0008FA0B0008EE0E0008040C00088C
:103B0400C00B0008C00B0008C00B0008600F0008C1
:103B14000A02F4018801F401D201FA005D01FA00FD
:103B24003701FA005D01FA008801F4010501E80398
:103B34000A02F4018801F401D201FA005D01FA00DD
:103B44003701FA005D01FA008801F4010A02F40168
:103B54000000FA003701FA003701FA003701FA00D1
:103B64008801FA00D201F4016E02FA002A02FA0076
:103B74000A02FA000A02FA000A02FA000A02FA0029
:103B8400D201FA005D01FA003701FA005D01FA0082
:103B94008801F4010A02E8030A02E803D201FA00E8
:103BA4009F01FA008801FA009F01FA00D201E8039C
:103BB400D201F4010A02F401D201FA005D01FA0013
:103BC4003701FA005D01FA008801F4010A02E803F2
:043BD400E9000008FC
:043BD800C100000820
:103BDC0000FF0050505050000000010000505F30BA
:103BEC005F000000020101505F3030050018030136
:103BFC0001505F30311E003B040101505F30320038
:103C0C00003B050101505F303301011F06010150DB
:103C1C005F303401010C070101505F30350000E7C3
:103C2C00080101505F3036010107090100505F3077
:103C3C00370000000A0000505F315F0000000B0AE3
:103C4C0001505F31300500170C0A01505F31312DE6
:103C5C00003B0D0000505F325F0000000E0D015064
:103C6C005F32300F00E70F0D01505F3231E0E0E0C2
:103C7C00100D00505F3232000000110000505F3315
:103C8C005F000000121101505F333001000113116D
:103C9C0001505F3331050018141101505F3332327B
:103CAC00003B151101505F33330000071611005013
:103CBC005F3334000000170000505F345F000001D8
:103CCC00181701505F3430000003191701505F348E
:103CDC00310000011A1701505F34320500E71B0058
:103CEC0000505F355F0000001C1B01505F35301E1B
:103CFC0000E71D1B01505F35316400E71E000050CA
:083D0C005F365F0000000000BB
:04000005080039F1C5
:00000001FF
